:100000000C94BA1F0C94EB1F0C94EB1F0C94EB1F79
:100010000C94EB1F0C94EB1F0C94EB1F0C94EB1F38
:100020000C94EB1F0C94EB1F0C94EB1F0C94EB1F28
:100030000C94EB1F0C9409580C94EB1F0C94EB1FC1
:100040000C94EB1F0C943F9B0C94EB1F0C94EB1F38
:100050000C94EB1F0C94EB1F0D94C3060C94E5DE7F
:100060000C94EB1F0C942B4B0C94EB1F0C94EB1F7C
:100070000C94EB1F0C94EB1F0C94EB1F0C94EB1FD8
:100080000C945CA30C94EB1F0C94EB1F0C94EB1FD3
:100090000C94EB1F0C94EB1F0C94EB1F0C94EB1FB8
:1000A0000C94EB1F0C94EB1F0C942EA30C94EB1FE1
:1000B0000C94EB1F0C94EB1F0C94EB1F0C9400A3FF
:1000C0000C94EB1F0C94EB1F0C94EB1F0C94EB1F88
:1000D0000C94EB1F0C94EB1F0C94EB1F0C94EB1F78
:1000E0000C94EB1F5E4B644B754B804B884B9D4BC8
:1000F0008C4B9D4B904B944B9D4B9A4B09D60ED6F7
:1001000013D61DD627D6A0D631D639D641D64BD652
:1001100055D65FD66ED678D6A0D682D68CD696D651
:100120004CDD4FDD3EDD42DD48DD86DD53DD57DD54
:100130005DDD61DD65DD6BDD6FDD73DD86DD79DD68
:100140007DDD81DD28FB0EFB11FB14FB17FB23FB80
:100150001AFB34FB1DFB20FB084AD73B3BCE016E4C
:1001600084BCBFFDC12F3D6C74319ABD56833DDA0E
:100170003D00C77F11BED9E4BB4C3E916BAAAABE1D
:10018000000000803F05A84CCDB2D44EB93836A946
:10019000020C50B9918688083CA6AAAA2ABE000083
:1001A00000803F000D94B10D0D9416190D94B60DFD
:1001B0000D94210C0D94910D0D94130E0D94260C9D
:1001C0000D94A00A0D94C00D0D94410E0D94C41110
:1001D0000D94CC1F0D94430E0D94B20B0D94D609C3
:1001E0000D94BB0D0D94B9220D942A0E0D945B0F46
:1001F0000D94990D0D948D0D0D942B0C0D94950D62
:100200000D94590F0D945D0F4E414E494E4954596E
:10021000494E46CDCCCC3D0AD7233C17B7D13877D1
:10022000CC2B329595E6241FB14F0A0000204100E7
:1002300000C84200401C4620BCBE4CCA1B0E5AAE31
:10024000C59D7400407A10F35A00A0724E18090040
:1002500010A5D4E80000E87648170000E40B54022B
:100260000000CA9A3B000000E1F505000080969866
:1002700000000040420F000000A0860100000010B6
:100280002700000000E803000000006400000000F8
:10029000000A00000000000100000000002C76D8D9
:1002A00088DC674F0823DFC1DFAE59E1B1B796E5BF
:1002B000E3E453C63AE651997696E8E6C28426EB23
:1002C000898C9B62ED407C6FFCEFBC9C9F40F2BA36
:1002D000A56FA5F490055A2AF75C936B6CF9676DCE
:1002E000C11BFCE0E40D47FEF520E6B500D0ED9023
:1002F0002E0300943577050080841E080000204EF0
:100300000A000000C80C333333330F986E12831188
:1003100041EF8D2114893BE65516CFFEE6DB18D15F
:10032000844B381BF77C1D901DA4BBE42420328431
:10033000725E228100C9F124ECA1E53D27434F4DB7
:100340004D554E49434154494F4E00445259525520
:100350004E004552524F525300494E464F004543BE
:10036000484F0047322F473320626164207061722A
:10037000616D65746572730A005665696C6C652EF3
:100380002E2E004F726967696E6520585920507291
:10039000656D6965720A004F726967696E652058FC
:1003A00059205072656D696572004D6573682070E3
:1003B0006F696E742063616E6E6F74206265207267
:1003C00065736F6C7665640A00436C696320706FB7
:1003D00075722072657072656E647265004D6F741F
:1003E0006575727320626C6F717565732E004D3187
:1003F0003235002569730025696D20256973002554
:1004000069682025696D20256973002569642025A8
:1004100069682025696D2025697300256979202583
:100420006964202569682025696D2025697300505D
:1004300072696E742074696D653A20005E03590319
:1004400052034B033D036F66660044454255473AED
:10045000004D3131332053006F6B0020573A004577
:1004600020436F6F6C696E672E2E2E004520456EFF
:1004700020636861756666652E2E2E0020573A004F
:1004800042656420636F6F6C696E672E2E2E004C80
:10049000697420656E20636861756666652E2E2E10
:1004A00000496D7072696D616E746520417272658C
:1004B000742E002C20002C2000544845524D414CF5
:1004C0005F50524F54454354494F4E004155544F8D
:1004D0005245504F52545F53445F53544154555307
:1004E00000454D455247454E43595F504152534593
:1004F0005200434153455F4C494748545F4252497B
:100500004748544E45535300544F47474C455F4C62
:10051000494748545300534F4654574152455F5042
:100520004F574552004255494C445F504552434550
:100530004E54004C4556454C494E475F444154414A
:10054000005A5F50524F4245004155544F4C45565A
:10055000454C005052494E545F4A4F420050524F52
:100560004752455353004155544F5245504F5254F2
:100570005F54454D5000564F4C554D4554524943DC
:1005800000454550524F4D0053455249414C5F582C
:100590004F4E5F584F4646004649524D57415245CF
:1005A0005F4E414D453A4D61726C696E205448333F
:1005B000442055312E52322E423320534F55524350
:1005C000455F434F44455F55524C3A2050524F547B
:1005D0004F434F4C5F56455253494F4E3A312E30A0
:1005E000204D414348494E455F545950453A496D65
:1005F0007072696D616E746520455854525544455A
:10060000525F434F554E543A3120555549443A0AAA
:10061000002F2F20004D31343520533C696E646526
:10062000783E206F7574206F662072616E6765205A
:1006300028302D31290A004E6F2063617365206CCC
:10064000696768740A0041727265740A00466164E1
:1006500065204865696768742000426564204C65C0
:1006600076656C696E6720004661696C656420740C
:100670006F20656E61626C6520426564204C657612
:10068000656C696E670A004D65736820706F696EEE
:10069000742063616E6E6F74206265207265736F83
:1006A0006C7665640A004D34323120696E636F7276
:1006B0007265637420706172616D65746572207516
:1006C000736167650A00454550524F4D204F4B0AF4
:1006D00000496E736572742066696C616D656E7435
:1006E00020616E6420707265737320627574746F1C
:1006F0006E20286F72204D313038290A0050726503
:10070000737320627574746F6E20286F72204D3180
:1007100030382920746F2068656174206E6F7A7A92
:100720006C650A00496E736572742066696C616D50
:10073000656E7420616E64207072657373206275DB
:1007400074746F6E20286F72204D313038290A0082
:100750003A200050726F6265205A204F66667365BA
:1007600074003F5A206F7574206F662072616E6747
:100770006520282D3520746F2031290A00416374CB
:100780006976652045787472756465723A2000490F
:100790006E76616C69642065787472756465720A3E
:1007A000004E6F20436865636B73756D20776974C5
:1007B00068206C696E65206E756D6265722C204CC8
:1007C000617374204C696E653A200053544F505049
:1007D000452E005072696E7465722073746F70706C
:1007E00065642064756520746F206572726F727322
:1007F0002E2046697820746865206572726F7220B9
:10080000616E6420757365204D39393920746F200D
:10081000726573746172742E202854656D706572F0
:1008200061747572652069732072657365742E201A
:1008300053657420697420616674657220726573F3
:1008400074617274696E67290A004E6F204368658F
:10085000636B73756D2077697468206C696E6520B1
:100860006E756D6265722C204C617374204C696EDC
:10087000653A2000636865636B73756D206D6973FD
:100880006D617463682C204C617374204C696E65D3
:100890003A20004C696E65204E756D626572206964
:1008A00073206E6F74204C617374204C696E6520E8
:1008B0004E756D6265722B312C204C617374204C27
:1008C000696E653A20004D313130004D33310053AF
:1008D000442072656164206572726F720A00446F11
:1008E0006E65207072696E74696E672066696C65EA
:1008F0000A0020496E76616C6964206578747275AF
:10090000646572200000000000000000000000008C
:100910000000009643000096430000C84345455040
:10092000524F4D206461746173697A6520657272FB
:100930006F722E0A00290A002062797465733B20C9
:10094000637263200053657474696E677320537417
:100950006F726564202800290A002062797465732B
:100960003B2063726320002073746F726564207390
:10097000657474696E6773207265747269657665F3
:1009800064202800202863616C63756C6174656461
:1009900029210A0020213D2000454550524F4D207D
:1009A000435243206D69736D61746368202D202864
:1009B00073746F7265642920002053697A653A2048
:1009C00000496E6465783A2000204D61726C696E52
:1009D0003D563536290A0028454550524F4D3D00B9
:1009E000454550524F4D2076657273696F6E206D8C
:1009F00069736D61746368200048617264636F6439
:100A000065642044656661756C742053657474690F
:100A10006E6773204C6F616465640A00F401000026
:100A2000F4010000F4010000881300000000FA4304
:100A30000000FA4300007041000048420000A0425C
:100A40000000A0420000C8430080CF43024D4F5237
:100A5000542E00202D20496E76616C6964206578E3
:100A6000747275646572206E756D62657220210AFC
:100A70000000000000000000000000000000000076
:100A80000000000000000000000000000000000066
:100A90000000000000000004000040000000000012
:100AA00000000000000000070001C000000000007E
:100AB0000000000000000007C007C00000000000A8
:100AC0000000000000000007E00FC0000000000070
:100AD0000000000000000007F01FC0000000000040
:100AE0000000000000000007F01FC0000000000030
:100AF0000000000000000007F01FC0000000000020
:100B00000000000000000007F01FC000000000000F
:100B10000000000000000003F01FC0000000000003
:100B20000000000000000003F01FC00000000000F3
:100B30000000000000000003F01F80000000000023
:100B40000000000000000003F01F80000000000013
:100B50000000000000000003F01F80000000000003
:100B60000000000000000003F01F800000000000F3
:100B70000000000000000003F01F800000000000E3
:100B80000000000018000003F01F8000003000008B
:100B9000000000000C000001F01F000000600000D9
:100BA000000000000F000001F01F000001C0000065
:100BB0000000000007800001F01F0000038000001B
:100BC0000000000003E00001F01F00000F800000A3
:100BD0000000000003F00001F01F00001F000000F3
:100BE0000000000001FC0001F01F00007E0000007A
:100BF0000000000000FE0001F01F0000FC000000EB
:100C000000000000007F8001F01F0003F8000000DA
:100C100000000000007FC000F01F0007F800000087
:100C200000000000003FF000F01E001FF000000078
:100C300000000000001FFC18F01E303FE000000024
:100C400000000000000FF838701C383FC0000000A2
:100C5000000000000007F0FC30187E1F800000003C
:100C6000000000000003E1FE1010FF0F80000000F4
:100C7000000000000001C3FF0001FF87000000002A
:100C800000000000000087FF8001FFC2000000009C
:100C90000000000000000FFF8003FFE000000000E4
:100CA0000000000000001FE7C007CFF000000000B8
:100CB0000000000000003FC1E00F83F800000000CA
:100CC0000000000000001FC0700E07F000000000D0
:100CD0000000000000001FE010080FE0000000000E
:100CE0000000000000000FF000001FE00000000006
:100CF00000000000000007F800001FC00000000016
:100D000000000000000003FC00003F800000000025
:100D100000000000000001FC00007F000000000057
:100D200000000000000000FE0000FE0000000000C7
:100D3000000000000000007F0001FC000000000037
:100D4000000000000000007F8003F80000000000A9
:100D5000000000000000003FC007F000000000009D
:100D6000000000000000001FE007F000000000008D
:100D7000000000000000000FF00FE0000000000085
:100D80000000000000000007F01FC000000000008D
:100D90000000000000000003F83F80000000000099
:100DA0000000000000000001FC7F000000000000C7
:100DB0000000000000000000FE7E000000000000B7
:100DC00000000000000000007FFC000000000000A8
:100DD00000000000000000007FF80000000000009C
:100DE00000000000000000003FF8000000000000CC
:100DF00000000000000000001FF0000000000000E4
:100E000000000000000000000FE0000000000000F3
:100E1000000000000000000007C00000000000000B
:100E2000000000000000000003800000000000003F
:100E300000000000000000000100000000000000B1
:100E400000000000000000000000000000000000A2
:100E50000000000000000000000000000000000092
:100E60000000000000000000000000000000000082
:100E7000001FFFFFFFFFFFFF600000000001FF40B9
:100E80000000000000FF8000000000007F83CF0012
:100E9000000C303F87FF80000C301F867980000CEB
:100EA000000F8C30C7838C30E78C30CFC7CC31F348
:100EB0008C30DCECEC33B98C30D86C6C33198C3062
:100EC000D06C0C33198C30D86C0C33198C30DC6C32
:100ED0000E3B198C30CF7C079F198C30C77C038F59
:100EE0001940000000000002600000000000061F22
:100EF000FFFFFFFFFFF82020506C616E6E657242AD
:100F0000756666657242797465733A200020467290
:100F10006565204D656D6F72793A2000436F6D7085
:100F2000696C65643A204465632032322032303285
:100F3000300A00207C20417574686F723A20285472
:100F4000483344290A0000204C61737420557064B2
:100F5000617465643A2000544833442055312E5260
:100F6000322E42330A004D61726C696E0020536F5D
:100F70006674776172652052657365740A00205744
:100F800061746368646F672052657365740A00203A
:100F900042726F776E206F75742052657365740AA4
:100FA000002045787465726E616C205265736574BB
:100FB0000A00506F77657255700A0073746172741D
:100FC0000A006175746F25692E67006572726F7211
:100FD0002077726974696E6720746F2066696C652A
:100FE0000A004275746565732025632025632025FA
:100FF0006320256300205A3A0020593A0020583ACD
:1010000000656E6473746F7073206869743A2000B1
:10101000446F6E6520736176696E672066696C65E2
:101020002E0A004D32390000060900FE0701920326
:1010300021207FFF07FF07FF0000000600000107D7
:101040000706020080808080800080030202060183
:1010500005A0A00507070600005050F850F85050B2
:101060000507070600002078A07028F02005070774
:10107000060000C0C81020409818050707060000A9
:101080006090A040A89068020303060104C040805D
:1010900003070706010020408080804020030707E7
:1010A0000601008040202020408005050506000143
:1010B00020A870A8200505050600012020F82020A2
:1010C0000203030602FFC04080050101060003F889
:1010D000020202060200C0C0050505060001081054
:1010E000204080050707060000708888888888707F
:1010F00003070706010040C040404040E0050707E5
:10110000060000708808708080F805070706000058
:10111000F81020100808F0050707060000103050EE
:1011200090F81010050707060000F880F0080888FE
:1011300070050707060000708080F088887005073A
:1011400007060000F80810202020200507070600E9
:10115000007088887088887005070706000070880E
:101160008878080870020505060200C0C000C0C0EB
:101170000206060602FFC0C000C040800407070642
:10118000000010204080402010050303060002F8F4
:1011900000F8040707060100804020102040800569
:1011A00007070600007088081020002005070706C2
:1011B000000070880868A8A870050707060000707E
:1011C0008888F8888888050707060000F08888F076
:1011D0008888F00507070600007088808080887086
:1011E000050707060000F08888888888F00507074B
:1011F000060000F88080F08080F8050707060000F0
:10120000F88080F0808080050707060000708880E5
:10121000B8888870050707060000888888F88888DD
:101220008801070706020080808080808080050793
:101230000706000038101010109060050707060020
:10124000008890A0C0A09088050707060000808055
:1012500080808080F805070706000088D8A8888865
:1012600088880507070600008888C8A89888880528
:1012700007070600007088888888887005070706B9
:101280000000F08888F08080800507070600007065
:10129000888888A89068050707060000F08888F00D
:1012A000A09088050707060000788080700808F085
:1012B000050707060000F82020202020200507074A
:1012C000060000888888888888700507070600005F
:1012D0008888888888502005070706000088888845
:1012E0008888A85005070706000088885020508885
:1012F00088050707060000888888502020200507F9
:1013000007060000F80810204080F80307070601D0
:1013100000E08080808080E00505050600018040B7
:10132000201008030707060100E02020202020E00D
:10133000050303060004205088050101060000F89B
:10134000020202060205804005050506000070083D
:101350007888780507070600008080B0C88888F084
:1013600005050506000070808088700507070600E7
:1013700000080868988888780505050600007088C8
:10138000F880700507070600003048E04040404004
:101390000506060600FF70888878087005070706AE
:1013A00000008080B0C88888880107070602008096
:1013B0000080808080800308080601FF2000202034
:1013C0002020A040040707060000808090A0C0A055
:1013D00090030707060100C04040404040E005057B
:1013E00005060000D0A8A8A8A8050505060000B0BD
:1013F000C8888888050505060000708888887005FB
:1014000006060600FFF08888F080800506060600C4
:10141000FF788888780808050505060000B0C880B0
:10142000808005050506000070807008F00407073D
:101430000600004040E04040403005050506000041
:1014400088888898680505050600008888885020E7
:101450000505050600008888A8A8500505050600B2
:101460000088502050880506060600FF8888887886
:101470000870050505060000F8102040F80307076E
:10148000060100204040804040200107070602007E
:1014900080808080808080030707060100804040B4
:1014A000204040800502020600026890000000060D
:1014B00000007C3C3E5E2B3D3F2F5B5D3B2C2A2297
:1014C0005C004572726F722077726974696E672072
:1014D000746F20454550524F4D210A0020746F6FA4
:1014E000206C6F6E6720657874727573696F6E20FB
:1014F00070726576656E7465640A0020636F6C6453
:1015000020657874727573696F6E20707265766588
:101510006E7465640A0043686172676572206D6D60
:101520000043686172676572206D6D004368617287
:10153000676572206D6D00446563686172676572EE
:10154000206D6D00446563686172676572206D6D22
:1015500000446563686172676572206D6D00436F5A
:101560006E74726F6C65720043616E6E6F7420658D
:101570006E746572207375626469723A2000022E7F
:101580002E000141637475616C69736572004D656D
:101590006E75207072696E636970616C0054656D60
:1015A00070204D61783A203132300054656D7020E2
:1015B0004D696E3A203500544265643A41544320E7
:1015C00031303447542D320054656D70204D6178B0
:1015D0003A203239300054656D70204D696E3A20E2
:1015E000350054303A20505431303020556C7469F5
:1015F0004D4200416C696D656E746174696F6E3A3D
:101600002047656E657269630050726F746F636F17
:101610006C653A20312E3000426175643A203131D8
:10162000353230300043522D313053004E697665EB
:1016300061752062696C696E6561697265004578E3
:1016400074727564657572733A203100544833447E
:1016500053747564696F2E636F6D00496D707269A4
:101660006D616E74650000544833442055312E522C
:10167000322E4233004D61726C696E00546865729F
:101680006D6F636F75706C657300496E666F732064
:10169000636172746500496E666F7320696D707264
:1016A000696D616E7465004D656E75207072696E4E
:1016B000636970616C004D36303020423020542513
:1016C00064004D37303120542564004D37303220CE
:1016D0003B2564004D373032205425640044656357
:1016E0006861726765722066696C2E004465636884
:1016F00061726765722066696C2E004D373032006A
:101700004D37303100436861726765722066696CDD
:101710002E004D363030204230004368616E6765E0
:10172000722066696C616D656E74005072657061DF
:1017300072657200494D50522E205041555345005C
:101740004445434841524745522046494C0043488E
:1017500041524745522046494C00507572676572A8
:1017600020706C75730052657072656E64726520CE
:10177000696D70722E004F5054494F4E53205245A0
:1017800050524953453A0057726974696E67207424
:101790006F2066696C653A20006F70656E20666127
:1017A000696C65642C2046696C653A20006F706531
:1017B0006E206661696C65642C2046696C653A2010
:1017C0000046696C652073656C65637465640A0026
:1017D0002053697A653A200046696C65206F706510
:1017E0006E65643A20002066696C653A2000646F7B
:1017F000696E67006672657368004E6F77200045FA
:101800004E4420535542524F5554494E450A0022EA
:1018100020706F73002220706172656E743A22002E
:10182000535542524F5554494E452043414C4C204C
:101830007461726765743A22004D4F52542E0074E1
:101840007279696E6720746F2063616C6C207375A8
:10185000622D67636F64652066696C6573207769C4
:10186000746820746F6F206D616E79206C65766589
:101870006C732E204D4158206C6576656C20697321
:101880003A004572726F723A006F70656E20666141
:10189000696C65642C2046696C653A200043616E72
:1018A0006E6F74206F70656E20737562646972204C
:1018B000006563686F3A0056206465706C2E206D79
:1018C000696E0056206465706C2E206D696E00563E
:1018D000206465706C2E206D696E00566D696E20F7
:1018E00000566D696E2000566D696E2000566D6160
:1018F00078204500566D6178204500566D6178204E
:101900004500566D6178205A00566D6178205A0066
:10191000566D6178205A00566D6178205900566DD9
:101920006178205900566D6178205900566D6178B4
:10193000205800566D6178205800566D6178205807
:10194000004D6F7576656D656E7400416D61782030
:101950004500416D6178204500416D6178205A0055
:10196000416D6178205A00416D6178205900416DC8
:101970006178205900416D6178205800416D61788F
:1019800020580041204465706C2E00412044657051
:101990006C2E00412072657472616974004120727E
:1019A00065747261697400416363656C657261742A
:1019B000696F6E00416363656C65726174696F6E17
:1019C000004D6F7576656D656E74005665206A65AD
:1019D000726B005665206A65726B005665206A65F9
:1019E000726B00567A206A65726B00567A206A65BF
:1019F000726B005679206A65726B005679206A65B1
:101A0000726B005679206A65726B005678206A65A1
:101A1000726B005678206A65726B005678206A6592
:101A2000726B004D6F7576656D656E740045207044
:101A300061732F6D6D0045207061732F6D6D005ABD
:101A4000207061732F6D6D005A207061732F6D6D62
:101A50000059207061732F6D6D0059207061732FD4
:101A60006D6D0058207061732F6D6D00582070618E
:101A7000732F6D6D004D6F7576656D656E740050DA
:101A800061732F6D6D004A65726B00416363656C15
:101A900065726174696F6E0056656C6F6369746519
:101AA00000446563616C616765205A00436F6E7422
:101AB000726F6C65720024F4D43050C38E20C2A2C1
:101AC0004017828B7011127A910D816CD90AA8612E
:101AD000E108C7586607615143061E4B5D05C145C5
:101AE000A7041A411104093D9803713931034036A6
:101AF000DB0265339102D4305402802E1D02632C28
:101B0000EE01752AC501B028A001102781018F259B
:101B100064012B244B01E0223401AC211F018D20F4
:101B20000D01801FFC00841EED00971DDF00B81C16
:101B3000D200E61BC600201BBC00641AB200B2191A
:101B4000A8000A19A0006A189900D117910040173F
:101B50008B00B516840031167E00B31579003A1556
:101B60007300C7146F0058146A00EE1366008813E0
:101B7000630025135E00C7125B006C12570015123C
:101B80005400C111510070114F0021114B00D610AB
:101B900049008D1047004610440002104200C00F5B
:101BA0004000800F3E00420F3C00060F3B00CB0E72
:101BB0003800930E37005C0E3500270E3400F30D0D
:101BC0003200C10D3100900D3000600D2E00320D3D
:101BD0002D00050D2C00D90C2B00AE0C2900850C16
:101BE00029005C0C2700350C27000E0C2600E80BA2
:101BF0002400C40B2400A00B23007D0B23005A0BF0
:101C00002100390B2100180B2000F80A1F00D90A07
:101C10001E00BB0A1E009D0A1D00800A1D00630AEB
:101C20001C00470A1B002C0A1B00110A1A00F709A6
:101C30001A00DD091900C4091900AB09190092093D
:101C400017007B091800630917004C0916003609B4
:101C50001600200916000A091500F5081500E0080D
:101C60001400CC081400B8081400A408140090084C
:101C700013007D0812006B08130058081200460874
:101C80001200340811002308110012081100010885
:101C90001100F0071000E0071000D0071000C00787
:101CA0001000B0070F00A107100091070E00830776
:101CB0000F0074070F0065070E0057070E00490755
:101CC0000E003B070D002E070E0020070D00130726
:101CD0000D0006070D00F9060C00ED060D00E006EC
:101CE0000C00D4060C00C8060C00BC060C00B006A4
:101CF0000C00A4060B0099060C008D060B00820652
:101D00000B0077060B006C060B0061060A005706F5
:101D10000B004C060A0042060A0038060A002E068E
:101D20000A0024060A001A060A001006090007061F
:101D30000A00FD050900F4050900EB050900E205AC
:101D40000900D9050900D0050900C7050900BE052D
:101D50000900B5050800AD050800A50509009C05AA
:101D60000800940508008C050800840508007C051F
:101D70000800740508006C050700650508005D058E
:101D80000700560508004E050700470507004005F7
:101D9000080038050700310507002A05070023055C
:101DA00007001C050600160507000F0507000805BB
:101DB000060002050700FB040600F5040700EE0418
:101DC0000600E8040600E2040700DB040600D50470
:101DD0000600CF040600C9040600C3040600BD04C3
:101DE0000600B7040600B1040500AC040600A60412
:101DF0000600A00405009B0406009504050090045D
:101E000006008A04050085040500800406007A04A3
:101E1000050075040500700405006B0405006604E8
:101E20000500610405005C04050057040500520428
:101E300005004D04050048040500430405003E0468
:101E400004003A04050035040500300404002C04A5
:101E5000050027040400230405001E0404001A04DE
:101E6000040016040500110404000D040400090414
:101E700005000404040000040400FC030400F8034B
:101E80000400F4030400F0030400EC030400E8037E
:101E90000400E4030400E0030400DC030400D803AE
:101EA0000400D4030400D0030400CC030400C803DE
:101EB0000300C503030024F404D9201BC40C5C0EEA
:101EC0009804C4095F0265077101F405F900FB0479
:101ED000B30048048700C103690058035500030399
:101EE0004500BE023A008402310053022A00290252
:101EF000250004022000E4011C00C8011900AF0104
:101F00001700980114008401130071011000610191
:101F1000100051010E0043010D0036010B002B0192
:101F20000B0020010B00150109000C010900030141
:101F30000800FB000800F3000800EB000700E400C5
:101F40000600DE000600D8000600D2000600CC0025
:101F50000500C7000500C2000500BD000400B9006F
:101F60000400B5000400B1000400AD000400A900A5
:101F70000400A5000300A20003009F0004009B00D2
:101F800003009800030095000200930003009000F6
:101F900003008D0002008B00030088000200860011
:101FA000020084000300810002007F0002007D0027
:101FB00002007B0002007900020077000100760039
:101FC00002007400020072000100710002006F0044
:101FD00002006D0001006C0002006A00010069004F
:101FE0000200670001006600010065000100640056
:101FF00002006200010061000100600001005F005A
:1020000002005D0001005C0001005B0001005A005D
:10201000010059000100580001005700010056005E
:10202000010055000100540001005300000053005E
:1020300001005200010051000100500001004F005A
:1020400001004E0000004E0001004D0001004C0058
:1020500001004B0000004B0001004A000100490054
:102060000100480000004800010047000100460050
:10207000000046000100450000004500010044004A
:102080000100430000004300010042000000420044
:1020900001004100000041000100400001003F003C
:1020A00000003F0001003E0000003E0001003D0036
:1020B00000003D0001003C0000003C0000003C002E
:1020C00001003B0000003B0001003A0000003A0024
:1020D000010039000000390001003800000038001C
:1020E0000000380001003700000037000100360012
:1020F0000000360000003600010035000000350009
:1021000000003500010034000000340000003400FD
:1021100001003300000033000000330001003200F2
:1021200000003200000032000100310000003100E8
:1021300000003100010030000000300000003000DD
:1021400001002F0000002F0000002F0000002F00D2
:1021500001002E0000002E0000002E0001002D00C6
:1021600000002D0000002D0000002D0001002C00BB
:1021700000002C0000002C0000002C0001002B00AF
:1021800000002B0000002B0000002B0001002A00A3
:1021900000002A0000002A0000002A000100290097
:1021A000000029000000290000002900000029008B
:1021B000010028000000280000002800000028007E
:1021C0000000280001002700000027000000270071
:1021D0000000270000002700010026000000260064
:1021E0000000260000002600000026000100250057
:1021F000000025000000250000002500000025004B
:10220000000025000100240000002400000024003C
:10221000000024000000240001002300000023002F
:102220000000230000002300000023000000230022
:102230000000230001002200000022000000220014
:102240000000220000002200000022000100210006
:1022500000002100000021000000210000002100FA
:1022600000002100000021000100200000002000EB
:1022700000002000000020000000200000002000DE
:10228000000020000000200001001F0000001F00CF
:1022900000001F0000001F0000001F0000001F00C2
:1022A00000001F0001001E0000001E0000001E00B4
:1022B00000001E000000043700001E290000511B12
:1022C00000005810000010090000CC040000780243
:1022D0000000410100006265640A002C20737973DC
:1022E00074656D2073746F7070656421204865613A
:1022F0007465725F49443A20003A0A0020286D6DE7
:10230000290020204D36303320002055004C004657
:10231000696C616D656E74206C6F61642F756E6C95
:102320006F6164206C656E677468733A0A002020E0
:102330004D383531205A005A2D50726F6265204F4A
:1023400066667365740020440020490020204D33E8
:10235000303420500020440020490020204D3330EC
:10236000312050005049442073657474696E67735E
:102370003A0A0020460020420020480020204D312B
:1023800034352053004D6174657269616C20686555
:102390006174757020706172616D65746572733AF5
:1023A0000A00205A00204A002020473239205720B6
:1023B0004900205A0020204D34323020530041750E
:1023C000746F20426564204C6576656C696E673A6F
:1023D0000A00205A0020590020204D323036205863
:1023E00000486F6D65206F66667365743A0A002059
:1023F0004500205A00205900205800205400205346
:102400000020204D32303520510020453C6D617850
:102410005F655F6A65726B3E0020583C6D61785F56
:10242000785F6A65726B3E20593C6D61785F795FB9
:102430006A65726B3E205A3C6D61785F7A5F6A65AF
:10244000726B3E00416476616E6365643A20513C74
:102450006D696E5F7365676D656E745F74696D65D8
:102460005F75733E20533C6D696E5F66656564728F
:102470006174653E20543C6D696E5F74726176656F
:102480006C5F66656564726174653E00205400206F
:10249000520020204D323034205000416363656C7F
:1024A00065726174696F6E2028756E6974732F731D
:1024B00032293A20503C7072696E745F61636365C3
:1024C0006C3E20523C726574726163745F61636339
:1024D000656C3E20543C74726176656C5F61636329
:1024E000656C3E0A00204500205A0020590020203B
:1024F0004D3230312058004D6178696D756D204145
:102500006363656C65726174696F6E2028756E69AE
:1025100074732F7332293A0A00204500205A002094
:10252000590020204D3230332058004D6178696DBC
:10253000756D206665656472617465732028756EBB
:102540006974732F73293A0A00204500205A00202D
:10255000590020204D393220580053746570732083
:1025600070657220756E69743A0A0020204D31340E
:10257000392043203B20556E69747320696E2043D7
:10258000656C736975730A00202047323120202062
:10259000203B004563686563206F726967696E65FB
:1025A00000545249474745524544006F70656E00DC
:1025B0003A200066696C616D656E74007A5F6D69C2
:1025C0006E00795F6D696E00785F6D696E005265AF
:1025D000706F7274696E6720656E6473746F7020BB
:1025E0007374617475730A00486F74656E64207447
:1025F0006F6F20636F6C640A004D3630303A2054A0
:10260000726F702066726F696400486F74656E64E3
:1026100020746F6F20636F6C640A00456E642066DF
:10262000696C65206C6973740A00426567696E2085
:1026300066696C65206C6973740A00286E6F206689
:10264000696C65290043757272656E742066696CE9
:10265000653A200046696C652064656C6574656444
:102660003A0044656C6574696F6E206661696C65DB
:10267000642C2046696C653A20004D343820526540
:1026800073756C743A202573005374616E646172C3
:102690006420446576696174696F6E3A2000205247
:1026A000616E67653A2000204D61783A2000204D28
:1026B000696E3A20004D65616E3A200046696E6988
:1026C00073686564210A002072616E67653A2000B4
:1026D000206D61783A2000206D696E3A20002073E9
:1026E00069676D613A2000206D65616E3A20003A9D
:1026F000207A3A2000206F662000506F7369746959
:102700006F6E696E67207468652070726F62652EE7
:102710002E2E0A003F2028582C5929206F7574202E
:102720006F6620626F756E64732E0A003F53616D91
:10273000706C652073697A65206E6F7420706C61AF
:10274000757369626C652028342D3530292E0A0096
:102750004D343820546573742052756E6E696E67FF
:102760002E2E2E0A003F2856296572626F7365204F
:102770006C6576656C20697320696D706C6175732A
:1027800069626C652028302D34292E0A0025753A9F
:102790002530327500253032753A253032750025E6
:1027A000756420253032753A25303275005A00594B
:1027B0000058000920000000000000000000000098
:1027C00000003FFFF00000000000000000000000DB
:1027D0000038007000000000000000000000000051
:1027E00030FC30000000000000000000000000206D
:1027F000FC10000000000000000000000000207835
:102800001000000000000000000000000020301058
:102810000000000000000000000000002C00D03F7D
:10282000C0000000000000002082002E31D07FE0B8
:10283000000000000000001041002F7BD07FE0006E
:102840000000000000001041002F7BD07FE000005E
:1028500000000000002082002E31D03FC0000000A8
:10286000000000004104002C00D03FC00000000028
:102870000000008208002030107FE000000000000F
:1028800000008208002078107FE0000000000000B7
:102890000041040020FC107FE00000000000000068
:1028A00020820030FC301F8000000000000000008B
:1028B00000003800700F0000000000000000FFFF63
:1028C000C03FFFF0060000000000000000FFFFC056
:1028D0000000000000000000000000000000003FB9
:1028E000FFF00000000000000000000000003800C1
:1028F0007000000000000000000000000031863081
:10290000000000000000000000000000238710000D
:102910000000000000000000000000278790000079
:10292000000000000000000000002F87D000000021
:102930000000000000000000002F03D03FC0000096
:1029400000000000002082002030107FE000000026
:10295000000000001041002078107FE0000000001F
:102960000000001041002078107FE000000000000F
:1029700000002082002030103FC000000000000056
:10298000004104002F03D03FC00000000000000001
:102990008208002F87D07FE0000000000000008246
:1029A00008002787907FE00000000000000041043D
:1029B000002387107FE0000000000000002082005C
:1029C0003186301F80000000000000000000003849
:1029D00000700F0000000000000000FFFFC03FFF7C
:1029E000F0060000000000000000FFFFC000000033
:1029F00000060900FE000000000001090008FE00BA
:102A00000005080806000040F0C88888987810057E
:102A10000808060000C0F88888888888F805050539
:102A20000600012030F8302005080806000020705C
:102A3000F820202020E00509090600FF2070A8A842
:102A4000B8888870200509090600FFE080C0B0A89A
:102A5000283028280509090600FFF8A888888888F2
:102A600088A8F8050A0A0600FE205050505088A891
:102A7000A8887003030306000340A04050726563FA
:102A8000686175666661676520504C4120627573A8
:102A9000650050726563682E20504C41206C69744B
:102AA0000050726563686175666661676520504CA9
:102AB00041005072657061726572005072656368A2
:102AC0006175666661676520414253206275736572
:102AD0000050726563682E20414253206C69740077
:102AE000507265636861756666616765204142532F
:102AF000005072657061726572004D343238004D5D
:102B00003238302050302053313630004175746FE8
:102B10007465737420424C546F756368004D32388D
:102B2000302050302053313230005072656368617C
:102B3000756666616765204142530050726563683F
:102B40006175666661676520504C4100526566722A
:102B50006F696469720052615A20424C546F756308
:102B600068004368616E6765722066696C616D65B7
:102B70006E740041727265746572206D6F74657554
:102B80007273004D3834005265676C2E20646563A3
:102B9000616C2E206F726967696E6500486175749B
:102BA000657572206C69737365650048617574653D
:102BB0007572206C6973736565004172726574008B
:102BC0004D6172636865005265676C2E204E6976B0
:102BD0002E206C6974005265676C2E204E69762E2B
:102BE000206C6974004732380A4732390052756EDA
:102BF000204D34382054657374004732380A4D3400
:102C00003820503130004F726967696E65205A2054
:102C10004175746F2E00473238205A004F72696731
:102C2000696E652059204175746F2E004732382037
:102C300059004F726967696E652058204175746F3D
:102C40002E004732382058004F726967696E652040
:102C50006175746F2E00473238004465706C616393
:102C6000657220756E20617865004D656E75207007
:102C700072696E636970616C004D3234004D32339D
:102C800020257300556E6B6E6F776E20636F6D6DD0
:102C9000616E643A202200496E7365727420666921
:102CA0006C616D656E7420616E6420707265737303
:102CB00020627574746F6E20286F72204D31303829
:102CC000290A00456368656320736F6E64650A00B6
:102CD000456368656320736F6E646500205A3A200F
:102CE0000020593A200042656420583A200053449D
:102CF0002063617264206F6B0A006F70656E526FA3
:102D00006F74206661696C65640A00766F6C756D1E
:102D1000652E696E6974206661696C65640A00538A
:102D20004420696E6974206661696C0A00000000C5
:102D300000300E0100C00E0A00500F1400D00F1E0C
:102D40000060102800E010320070113C00F01146C5
:102D5000007012500000135A008013640000146EBB
:102D600000901478001015820090158C00101696B3
:102D7000009016A0001017AA009017B4001018BEFB
:102D8000009018C8001019D2009019DC00101AE643
:102D900000801AF000001BFA00801B0401F01B0EDB
:102DA00001701C1801F01C2201601D2C01E01D3671
:102DB00001501E4001D01E4A01401F5401B01F5E49
:102DC0000130206801A020720110217C0190218631
:102DD00001002290016026F401902A5802802EBC46
:102DE0000250322003E03584035039E803803C4C24
:102DF00004202F002042403A0020403A004D31325A
:102E000035004D323400496D70722E20616E6E7542
:102E10006C656500496E69742E206C612063617277
:102E20007465205344004D32310050617320646555
:102E3000206361727465004368616E676572206427
:102E400065206361727465004D323100496D7072A6
:102E50002E20646570756973205344004172726559
:102E600074657220696D70722E0052657072656EA5
:102E700064726520696D70722E00496E746572729D
:102E80006F6D70726520696D70722E0041207072D6
:102E90006F706F7320696D70722E00436F6E747265
:102EA0006F6C657200507265706172657200526578
:102EB000676C657200496E666F73000E000E000E3F
:102EC000000E000E000E000E000E007FC03F801F9F
:102ED000000E00040004000E001F003F807FC00EA3
:102EE000000E000E000E000E000E000E000E00037D
:102EF000F8000FFE001E0F00380700380380700333
:102F000080700FE07007C0700380700100700000D7
:102F10003800003807001E0F000FFE0003F8000005
:102F2000FE0003FF800783C00E01C00E00E01C00FE
:102F3000E07F00E03E00E01C00E00800E00000E070
:102F40000001C00E01C00F078007FF0001FC00FF59
:102F5000FFFF7F80FFC0FFC0FFC07F807F80FFC07A
:102F6000FFC0FFC03F001E000C00446563616C6140
:102F70006765205A004368616E6765722066696CF8
:102F8000616D656E7400446563616C616765205AAC
:102F900000466C757800466C7578005669746573E8
:102FA00073652076656E74696C2E0056697465735E
:102FB00073652076656E74696C2E004C6974004CE4
:102FC00069740042757365004275736500486175E8
:102FD00074657572206C69737365650048617574FA
:102FE000657572206C6973736565005669746573E5
:102FF00073650056697465737365004D656E752061
:103000007072696E636970616C006F6B0020746F21
:103010006F206C6F6E6720657874727573696F6E60
:103020002070726576656E7465640A0020636F6C4B
:103030006420657874727573696F6E20707265763E
:10304000656E7465640A00627573793A2070617503
:1030500073656420666F7220696E7075740A006211
:103060007573793A2070617573656420666F72209C
:10307000757365720A00627573793A2070726F63B6
:10308000657373696E670A004D4F52542E004B49A9
:103090004C4C20636175736564206279204B494C08
:1030A0004C20627574746F6E2F70696E0A004D4FFC
:1030B00052542E004B494C4C20636175736564205B
:1030C000627920746F6F206D75636820696E61632B
:1030D000746976652074696D65202D206375727240
:1030E000656E7420636F6D6D616E643A20004D36BD
:1030F00030300000002100240027002A002D00307D
:1031000000330001010000040107010A0100002250
:1031100000250028002B002E0031003400020100A1
:1031200000050108010B01000020002300260029F2
:10313000002C002F003200000100000301060109ED
:103140000105050505070508080808020202020A2C
:103150000A0808040404040101010101010101033A
:1031600003030303030303040707070C0C0C0C0CF5
:103170000C0C0C0202020206060606060606060BE8
:103180000B0B0B0B0B0B0B0102102020080810205F
:1031900040102040800201020108040201010204E3
:1031A00008102040808040201008040201800402A2
:1031B00001804020100804020108040201010204F9
:1031C0000810204080010204081020408000000AFE
:1031D0000B02090C0D0E080703040100000000009B
:1031E00000000000000000000000000000000000DF
:1031F000000000000000000000121110000000009C
:1032000000000000000000000000000000000000BE
:1032100000000042696C696E656172204C657665DC
:103220006C696E6720477269643A0A00202844522C
:103230005952554E2900473239204175746F20424A
:103240006564204C6576656C696E67003F20284C8C
:103250002C522C462C4229206F7574206F662062F8
:103260006F756E64732E0A003F2856296572626F6F
:103270007365206C6576656C20697320696D706C70
:1032800061757369626C652028302D34292E0A001F
:10329000426164205A2076616C75650A004E6F2089
:1032A00062696C696E65617220677269640A0020E8
:1032B0005A3A200020593A200042656420583A20AA
:1032C00000205A3A0020593A0020436F756E74204E
:1032D000583A0020453A00205A3A0020593A0058FE
:1032E0003A003A004361703A0020540020520041F5
:1032F0006363656C65726174696F6E3A2050005744
:1033000041524E494E4721204C6F77205A204A6542
:10331000726B206D6179206C65616420746F20751B
:103320006E77616E746564207061757365732E0AC3
:1033300000205A00205900580020204D61783A2082
:1033400000205A00205900580020204D696E3A2074
:10335000004D617263686500417272657400536F5D
:10336000667420656E6473746F70733A2000204633
:103370006C6F773A200050726F74656374656420D7
:1033800050696E0A00000136372603FFFFFF353C07
:103390003D380EFFFFFF312E303E12FFFFFFFF28AA
:1033A000FF0C0809FFFFFF1A1C18FFFF2A08440A38
:1033B000FF4224221E2C206F7574206F66207261DC
:1033C0006E67650A00536572766F20003A20002010
:1033D000536572766F200050726F6265205A204FDD
:1033E00066667365743A200052615A2E2053565017
:1033F00000494D50522E2053544F505045450050D7
:1034000072696E7465722068616C7465642E206BDD
:10341000696C6C28292063616C6C6564210A006505
:103420006E7175657565696E672022000000204227
:103430000000204200008040000000005761726ED2
:10344000696E673A20486F6D696E672042756D70CE
:103450002044697669736F72203C20310A000202B1
:10346000040000A0400000A04000000040000096C2
:1034700043000096430000C843FFFFFF00002110F7
:10348000422063308440A550C660E77008812991CE
:103490004AA16BB18CC1ADD1CEE1EFF13112100276
:1034A00073325222B5529442F772D662399318831E
:1034B0007BB35AA3BDD39CC3FFF3DEE36224433442
:1034C00020040114E664C774A44485546AA54BB56E
:1034D00028850995EEE5CFF5ACC58DD55336722616
:1034E00011163006D776F6669556B4465BB77AA7BE
:1034F00019973887DFF7FEE79DD7BCC7C448E55862
:103500008668A7784008611802282338CCC9EDD90D
:103510008EE9AFF9488969990AA92BB9F55AD44AB5
:10352000B77A966A711A500A333A122AFDDBDCCB5D
:10353000BFFB9EEB799B588B3BBB1AABA66C877C81
:10354000E44CC55C222C033C600C411CAEED8FFDAD
:10355000ECCDCDDD2AAD0BBD688D499D977EB66E55
:10356000D55EF44E133E322E511E700E9FFFBEEFFD
:10357000DDDFFCCF1BBF3AAF599F788F8891A981BF
:10358000CAB1EBA10CD12DC14EF16FE18010A100A9
:10359000C230E3200450254046706760B983989399
:1035A000FBA3DAB33DC31CD37FE35EF3B1029012F9
:1035B000F322D2323542145277625672EAB5CBA565
:1035C000A89589856EF54FE52CD50DC5E234C32449
:1035D000A01481046674476424540544DBA7FAB739
:1035E0009987B8975FE77EF71DC73CD7D326F23699
:1035F0009106B01657667676154634564CD96DC985
:103600000EF92FE9C899E9898AB9ABA944586548E8
:1036100006782768C018E1088238A3287DCB5CDBD8
:103620003FEB1EFBF98BD89BBBAB9ABB754A545A38
:10363000376A167AF10AD01AB32A923A2EFD0FEDA4
:103640006CDD4DCDAABD8BADE89DC98D267C076C88
:10365000645C454CA23C832CE01CC10C1FEF3EFF78
:103660005DCF7CDF9BAFBABFD98FF89F176E367ED8
:10367000554E745E932EB23ED10EF01E2020427540
:1036800073653A200064652066696C616D656E74CF
:10369000006475206368616E67656D656E740041D6
:1036A0007474656E74652064656D617272616765BE
:1036B000002020427573653A20002000646563682D
:1036C00061726765722066696C616D656E74004138
:1036D0007474656E7465206465002020427573659E
:1036E0003A2000200050617469656E74657A205339
:1036F00056502E2E2E004275736520656E2063682D
:103700006175666665002020427573653A20002069
:10371000005072206368617566666572206C612076
:10372000627573650050726573736572206C6520F5
:10373000626F75746F6E2E2E2E0020204275736599
:103740003A2000706F757220636F6E74696E7565D4
:10375000722E2E2E00657420636C696320626F7573
:10376000746F6E00496E73657265722066696C6174
:103770006D656E74002020427573653A200020004C
:103780006368617267656D656E742066696C616DF2
:10379000656E7400417474656E7465206465002004
:1037A00020427573653A200020005075726765727B
:1037B0002066696C616D656E7400417474656E7429
:1037C0006500706F75722072657072656E647265E7
:1037D00000417474656E746520696D7072657373F1
:1037E000696F6E0020643A0020693A0020703A0048
:1037F000496E76616C69642065787472756465726F
:103800000A0020643A0020693A0020703A004329F7
:103810000A0061626C656420286D696E2074656DB4
:10382000702000436F6C64206578747275646573F2
:103830002061726520004B64200023646566696E18
:10384000652044454641554C545F004B6920002398
:10385000646566696E652044454641554C545F0079
:103860004B70200023646566696E652044454641BF
:10387000554C545F00504944204175746F74756E07
:10388000652066696E6973686564212050757420CF
:10389000746865206C617374204B702C204B692018
:1038A000616E64204B6420636F6E7374616E747319
:1038B0002066726F6D2062656C6F7720696E746F21
:1038C00020436F6E66696775726174696F6E2E68EA
:1038D0000A00504944204175746F74756E65206606
:1038E00061696C6564212074696D656F75740A0087
:1038F000453120454D42414C4C454D454E54205498
:103900004845524D2E0042454420544845524D41B1
:103910004C2052554E4157415900546865726D61B3
:103920006C2052756E617761790045312045727265
:10393000657572206465206368617566666500421E
:1039400065642068656174696E67206661696C658D
:10395000640048656174696E67206661696C6564BE
:1039600000504944204175746F74756E652066611E
:10397000696C6564212054656D706572617475723F
:103980006520746F6F20686967680A00204B643A8D
:103990002000204B693A2000204B703A20000A207A
:1039A000436C617373696320504944200A002054BA
:1039B000753A2000204B753A2000206D61783A203E
:1039C00000206D696E3A200020643A200020626970
:1039D00061733A2000504944204175746F74756ECC
:1039E00065206661696C6564212054656D7065723F
:1039F000617475726520746F6F20686967680A006A
:103A0000504944204175746F74756E6520737461FC
:103A100072740A00504944204175746F74756E6564
:103A2000206661696C656421204261642065787458
:103A30007275646572206E756D6265720A000000B1
:103A400000000000000000000000446563616C613C
:103A5000676573206170706C69717565730045727C
:103A6000723A20546F6F206661722100546F6F208C
:103A70006661722066726F6D207265666572656E32
:103A8000636520706F696E740A0042656420686522
:103A90006174696E67206661696C65640048656180
:103AA00074696E67206661696C6564004531204504
:103AB00072726575722064652063686175666665FB
:103AC0000048656174696E67206661696C656400B1
:103AD0004D4F52542E001000C90210012C0140011C
:103AE000220170011801B0010E01F0010401500221
:103AF000FA00B002F0003003E600D003DC009004CE
:103B0000D2007005C800A006BE000008B400B009CD
:103B1000AA00D00BA000600E960060118C0000156A
:103B2000820020197800C01D6E00A0226400B0271A
:103B30005A00902C500000314600E0343C00103810
:103B40003200903A2800603C1E00A03D1400803EE8
:103B50000A00203F0000453120454D42414C4C4574
:103B60004D454E5420544845524D2E004245442068
:103B7000544845524D414C2052554E4157415900F1
:103B8000546865726D616C2052756E617761790061
:103B90004531204572723A2054454D502E204D41FA
:103BA00058004572723A2054454D502E204D4158D0
:103BB000204C4954004D415854454D502074726971
:103BC000676765726564004531204572723A20541A
:103BD000454D502E204D494E004572723A205445B5
:103BE0004D502E204D494E204C4954004D494E54C5
:103BF000454D5020747269676765726564004D3881
:103C000034205820592045004465706C2E205800FF
:103C10004465706C2E2059004465706C2E205A004B
:103C2000457874727564657572004465706C2E20F9
:103C3000302E316D6D004465706C2E20316D6D003D
:103C40004465706C2E2031306D6D004465706C6180
:103C500063657220756E20617865004578747275B1
:103C600064657572004465706C2E205A004465705E
:103C70006C2E2059004465706C2E205800457874D5
:103C8000727564657572004465706C2E205A00442C
:103C900065706C2E2059004465706C2E20580050C1
:103CA0007265706172657200496E697469616C69F0
:103CB00073657220454550524F4D00436F6E7472CC
:103CC0006F6C657200496E697469616C69736572C5
:103CD00020454550524F4D00536175766572206303
:103CE0006F6E66696700424C546F75636800466981
:103CF0006C616D656E74004D6F7576656D656E7483
:103D00000054656D7065726174757265004D656E05
:103D100075207072696E636970616C004D33303369
:103D20002055312045256920532569005265676C6F
:103D30002E2070726563682E2041425300526567E1
:103D40006C2E2070726563682E20504C41005049E3
:103D500044204175746F74756E650050494420416C
:103D600075746F74756E65005049442D4400504958
:103D7000442D44005049442D49005049442D4900E8
:103D80005049442D50005049442D500056697465E7
:103D90007373652076656E74696C2E005669746560
:103DA0007373652076656E74696C2E004C697400BF
:103DB0004C69740042757365004275736500436F0A
:103DC0006E74726F6C6572005361757665722063F4
:103DD0006F6E666967004C6974004C6974004275C7
:103DE0007365004275736500566974657373652069
:103DF00076656E74696C2E00566974657373652000
:103E000076656E74696C2E0054656D7065726174B0
:103E1000757265004F726967696E65202573257339
:103E20002573205072656D69657200205072656D52
:103E30006965720A005A00590058004F7269676933
:103E40006E6520006C617374205344206279746540
:103E500020616674657220706175736520004E6F15
:103E600074205344207072696E74696E670A00533F
:103E700044207072696E74696E672062797465207F
:103E8000004368616E6765722066696C616D656E7E
:103E900074004465636861726765722066696C2EA0
:103EA00000436861726765722066696C2E0050720B
:103EB00065636861756666616765204142530050BD
:103EC000726563686175666661676520504C410084
:103ED0004368616E6765722066696C616D656E74BA
:103EE00000526573656E643A2000496D7072696DA9
:103EF000616E74652070726574652E005072696E13
:103F000074696E672E2E2E00496D70722E20656EBC
:103F100020706175736500436D643A2053572D4DD1
:103F20006F64650052616E67657220424C546F7514
:103F30006368004465706C6F79657220424C546F01
:103F4000756368004175746F7465737420424C54D6
:103F50006F7563680052615A20424C546F756368F4
:103F6000004D656E75207072696E636970616C00DA
:103F7000E800F20011241FBECFEFD1E2DEBFCDBFBB
:103F800000E00CBF13E0A0E0B2E0E4E4F8E602E0F9
:103F90000BBF02C007900D92AC38B107D9F729E1E9
:103FA000ACE8B3E001C01D92A738B207E1F71FE10A
:103FB000C9EBDFE100E006C021970109802FFE0177
:103FC0000F948633C83BD10780E00807A9F70F9408
:103FD0006C1A0D9411340C9400002F923F924F9262
:103FE0005F926F927F928F929F92AF92BF92CF9289
:103FF000DF92EF92FF920F931F93CF93DF93CDB792
:10400000DEB7C956D1090FB6F894DEBF0FBECDBFDB
:1040100021E020933E148091FE188D3411F40C940D
:10402000152A843511F40C947638873411F00C94E9
:10403000C2388091FC189091FD188C31910509F4DB
:104040007BC6BCF4843091055CF482309105BCF5EC
:1040500097FF02C00C94112A0E9408E40C94C43803
:104060008430910509F401C64B9709F43DC60C94C0
:10407000112A8A32910511F40C9486286CF48D3142
:10408000910511F40C9482284E9711F00C94112A8A
:104090000E9489E20C94C4388B35910511F40C947C
:1040A00062298C35910511F40C9466298A359105A5
:1040B00011F00C94112A10929C030C94C438209196
:1040C0001402222311F40C94C43811E0029709F071
:1040D00010E00E9483E382E50E94DA46882309F417
:1040E0005DC10E9460466B017C01209151143091AA
:1040F000521440915314509154142AAB3BAB4CAB27
:104100005DAB4090551450905614609057147090C9
:1041100058148091121490911314A0911414B0911A
:1041200015148EAB9FABA8AFB9AF20911614309188
:10413000171440911814509119142AAF3BAF4CAF8B
:104140005DAF20E030E0A901C701B6010F94E82976
:10415000882309F470C52AA93BA94CA95DA96EA9B9
:104160007FA988AD99AD0F94E82981110BC0A301F7
:1041700092016AAD7BAD8CAD9DAD0F94E82988238B
:1041800009F459C520E030E0A901C701B6010F9438
:10419000E829881F8827881F18130BC080E090E04B
:1041A000A0E8BFE32E968CAF9DAFAEAFBFAF2E970A
:1041B0000AC020E030E040E85FEB2E962CAF3DAF28
:1041C0004EAF5FAF2E972AA93BA94CA95DA96EA956
:1041D0007FA988AD99AD0F94853022966CAF7DAFE5
:1041E0008EAF9FAF2297A30192016AAD7BAD8CADDC
:1041F0009DAD0F94853026966CAF7DAF8EAF9FAF8F
:10420000269722962CAD3DAD4EAD5FAD2297CA01EB
:10421000B9010F944D2A4B015C0126962CAD3DADA2
:104220004EAD5FAD2697CA01B9010F944D2A9B018F
:10423000AC01C501B4010F9486300F94F2322A9676
:104240006CAF7DAF8EAF9FAF2A9720E030E040E0AB
:104250005FE30F944D2A4B015C019B01AC01C70148
:10426000B6010F9485306A966CAF7DAF8EAF9FAF6D
:104270006A97A5019401C701B6010F9486309B018E
:10428000AC016A966CAD7DAD8EAD9FAD6A970F9413
:104290004D2A6B017C0120E030E0A9010F94AC3283
:1042A00087FD07C0C701B6010F94F2329B01AC0134
:1042B00003C020E030E0A9012E966CAD7DAD8EAD3F
:1042C0009FAD2E970F944D2A4B015C012EA93FA95B
:1042D00048AD59AD6AA97BA98CA99DA90F948630D8
:1042E00020E030E040E05FE30F944D2A6B017C0159
:1042F00026966CAD7DAD8EAD9FAD269790582A96D3
:104300002CAD3DAD4EAD5FAD2A970F9462319B0150
:10431000AC01C501B4010F944D2A9B01AC01C7014A
:10432000B6010F9486302AA93BA94CA95DA90F9428
:1043300085306B017C012AAD3BAD4CAD5DADC30159
:10434000B2010F94863020E030E040E05FE30F944C
:104350004D2A6AAB7BAB8CAB9DAB2A962CAD3DADA9
:104360004EAD5FAD2A9722966CAD7DAD8EAD9FAD03
:1043700022970F9462319B01AC01C501B4010F94E7
:104380004D2A9B01AC016AA97BA98CA99DA90F9418
:104390008630A30192010F94853014C089E40E94F5
:1043A000DA46882329F00E9460466B017C0103C035
:1043B000C12CD12C76018AE40E94DA468823D9F0F8
:1043C0000E9460466AAF7BAF8CAF9DAF20E030E0CB
:1043D000A901C701B6010F94E82981111AC020E094
:1043E00030E0A9016AAD7BAD8CAD9DAD0F94E8299D
:1043F00081110FC020C420E030E0A901C701B6013F
:104400000F94E829882309F416C41AAE1BAE1CAE1B
:104410001DAED701C601B0588AAB9BABACABBDABF0
:104420002AAD3BAD4CAD5DAD50582EAB3FAB48AF68
:1044300059AF9C01AD01BC01CD010F944D2A4B0138
:104440005C012EA93FA948AD59ADCA01B9010F942D
:104450004D2A9B01AC01C501B4010F9486300F9425
:10446000F2326E966CAF7DAF8EAF9FAF6E9780913C
:10447000511490915214A0915314B0915414229657
:104480008CAF9DAFAEAFBFAF2297A7019601BC0125
:10449000CD010F9486302E966CAF7DAF8EAF9FAF5F
:1044A0002E972091551430915614409157145091E5
:1044B000581426962CAF3DAF4EAF5FAF26972AAD6E
:1044C0003BAD4CAD5DAD26966CAD7DAD8EAD9FAD7B
:1044D00026970F9486306A966CAF7DAF8EAF9FAFF4
:1044E0006A978091121490911314A0911414B091B2
:1044F00015142A968CAF9DAFAEAFBFAF2A972E96FC
:104500002CAD3DAD4EAD5FAD2E97BC01CD010F94EE
:1045100085306B017C012091161430911714409165
:1045200018145091191462962CAF3DAF4EAF5FAF87
:1045300062976A962CAD3DAD4EAD5FAD6A976296BF
:104540006CAD7DAD8EAD9FAD62970F9485304B0104
:104550005C018091591490915A14A0915B14B09110
:104560005C1466968CAF9DAFAEAFBFAF66979C01F3
:10457000AD0160911A1470911B1480911C149091DC
:104580001D140F9485302B013C0120911E14309195
:104590001F144091201450912114A6962CAF3DAFCA
:1045A0004EAF5FAFA69780915D1490915E14A0917D
:1045B0005F14B0916014A2968CAF9DAFAEAFBFAF49
:1045C000A297A70196016AA97BA98CA99DA90F941E
:1045D0004D2AAA966CAF7DAF8EAF9FAFAA97A5016B
:1045E00094016EA97FA988AD99AD0F944D2A9B01C6
:1045F000AC01AA966CAD7DAD8EAD9FADAA970F9420
:104600008630AA966CAF7DAF8EAF9FAFAA97A501FB
:1046100094016AA97BA98CA99DA90F944D2A4B01ED
:104620005C01A70196016EA97FA988AD99AD0F9491
:104630004D2A9B01AC01C501B4010F948530AA96A7
:104640002CAD3DAD4EAD5FADAA970F94F9306B0127
:104650007C0120E030E0A9010F94E82987FF0AC01F
:104660002BED3FE049EC50E4C701B6010F948630D2
:104670006B017C01112351F02BED3FE049EC50E43C
:10468000C701B6010F9485306B017C0120E030E05A
:10469000A901C701B6010F94E829811128C02A9603
:1046A0002CAD3DAD4EAD5FAD2A9722966CAD7DAD84
:1046B0008EAD9FAD22970F94E829811118C06296A4
:1046C0002CAD3DAD4EAD5FAD629726966CAD7DAD28
:1046D0008EAD9FAD26970F94E829811108C06BED30
:1046E000C62E6FE0D62E69ECE62E60E4F62EA7010A
:1046F00096016E966CAD7DAD8EAD9FAD6E970F94AD
:104700004D2A4B015C0120E030E0A901C301B20158
:104710000F94E8298823C9F0A5019401C501B401CB
:104720000F944D2A4B015C01A3019201C301B20118
:104730000F944D2A9B01AC01C501B4010F94863042
:104740000F94F2324B015C010DC020E030E0A90172
:10475000C501B4010F94AC3287FF04C0B7FAB0941E
:10476000B7F8B0942FE632E143E85AE3C501B4014B
:104770000F94E82987FF02C00C94C438C501B40126
:104780000F94FB310F94CF311B01672B19F42224B6
:104790002394312CB10180E090E00F94EC294B017F
:1047A0005C019B01AC01C701B6010F9462312296F6
:1047B0006CAF7DAF8EAF9FAF2297A5019401C3016F
:1047C000B2010F9462316E966CAF7DAF8EAF9FAF2A
:1047D0006E97A2962CAD3DAD4EAD5FADA297A6965D
:1047E0006CAD7DAD8EAD9FADA6970F948530A501C4
:1047F00094010F946231A6966CAF7DAF8EAF9FAFE0
:10480000A69722962CAD3DAD4EAD5FAD2297CA0165
:10481000B9010F944D2A20E030E040E05FE30F94AF
:104820004D2A9B01AC0160E070E080E89FE30F94AB
:10483000853062966CAF7DAF8EAF9FAF6297669604
:104840002CAD3DAD4EAD5FAD669729873A874B875E
:104850005C87A2968CAD9DADAEADBFADA2978D87A6
:104860009E87AF87B88B6091420270914302072EFA
:10487000000C880B990B0F94EE2920912A0230919D
:104880002B0240912C0250912D020F944D2A2AE0C8
:1048900037ED43E25CE30F944D2A6AA77BA78CA710
:1048A0009DA70E94D9DE9B01AC0128533F4F4F4F7B
:1048B0005F4F66962CAF3DAF4EAF5FAF66974AA88D
:1048C0005BA86CA87DA841E050E028965FAF4EAF92
:1048D000289759E123965FAF239728962EAD3FADD9
:1048E00028972215330509F44BC10F9482080E94C2
:1048F000D9DEDC01CB0166962CAD3DAD4EAD5FAD92
:104900006697821B930BA40BB50BB7FD11C00E94D9
:10491000D9DE9B01AC0128533F4F4F4F5F4F669646
:104920002CAF3DAF4EAF5FAF669780E00E9464D47E
:1049300023963FAD2397315023963FAF23973323E0
:1049400009F445C062962CAD3DAD4EAD5FAD6297AA
:104950006EA97FA988AD99AD0F944D2A6B017C019A
:1049600022962CAD3DAD4EAD5FAD2297B201C30195
:104970000F944D2AA70196010F9486307B018C017C
:1049800062962CAD3DAD4EAD5FAD6297B201C301F5
:104990000F944D2A4B015C0122962CAD3DAD4EADDE
:1049A0005FAD22976EA97FA988AD99AD0F944D2A6E
:1049B0009B01AC01C501B4010F9485302B013C0172
:1049C000C701D8018EAB9FABA8AFB9AF57C028962F
:1049D0004EAD5FAD2897BA0180E090E00F94EC29CE
:1049E00022962CAD3DAD4EAD5FAD22970F944D2A72
:1049F0004B015C010F945F316B017C01C501B40177
:104A00000F94E8324B015C01A70196016AA97BA9CA
:104A10008CA99DA90F944D2A2B013C01A50194015D
:104A20006AAD7BAD8CAD9DAD0F944D2A9B01AC0161
:104A3000C301B2010F9486302B013C01A501940102
:104A40006AA97BA98CA99DA90F944D2A4B015C01F1
:104A5000A70196016AAD7BAD8CAD9DAD0F944D2A3B
:104A60009B01AC01C501B4010F9485306EAB7FABE7
:104A700088AF99AF59E123965FAF23979201A301C5
:104A80002E966CAD7DAD8EAD9FAD2E970F9486307A
:104A900069837A838B839C832EA93FA948AD59AD46
:104AA0006A966CAD7DAD8EAD9FAD6A970F948630E2
:104AB0006D837E838F8398876E962CAD3DAD4EAD12
:104AC0005FAD6E9769857A858B859C850F9486305E
:104AD00069877A878B879C87A6962CAD3DAD4EADB6
:104AE0005FADA6976D857E858F8598890F948630FA
:104AF0006D877E878F87988B80912102882321F094
:104B0000CE0101960E94C3F3E0903F141AA21BA2AB
:104B10001CA21DA289819A81AB81BC818E8B9F8B47
:104B2000A88FB98F8D819E81AF81B8858A8F9B8F29
:104B3000AC8FBD8F89859A85AB85BC858E8F9F8F05
:104B4000A8A3B9A3AE01425E5F4FBE01665E7F4F70
:104B5000CE0146960E9444A4CE0182966C018E013D
:104B6000065D1F4F9E01235F3F4FAE01425E5F4FC8
:104B7000BE01665E7F4F0C970E941470811151C078
:104B8000E0903F141EA21FA218A619A6809112142D
:104B900090911314A0911414B09115148E8B9F8BC7
:104BA000A88FB98F8091161490911714A0911814A2
:104BB000B09119148A8F9B8FAC8FBD8F80911A147E
:104BC00090911B14A0911C14B0911D148E8F9F8F77
:104BD000A8A3B9A3AE01425E5F4FBE01665E7F4FE0
:104BE000CE0146960E9444A4DE0196966D018E0188
:104BF000065D1F4F2EE134E1AE01425E5F4FBE0104
:104C0000665E7F4FCE0146960E94147080E1E2E11D
:104C1000F4E1A1E5B4E101900D928A95E1F70C94DD
:104C2000C4382896EEADFFAD289731962896FFAF91
:104C3000EEAF289752CEE2E8F8E184918F010F5F42
:104C40001F4F882321F00E947747F801F6CFE3E653
:104C5000F3E084918F010F5F1F4F882311F40C94B0
:104C6000C4380E947747F801F4CF80E50E94DA4605
:104C7000882329F00E9420466B017C0103C0C12CCF
:104C8000D12C760183E50E94DA46882361F00E94E8
:104C9000604620E030E04AE754E40F944D2A0F9438
:104CA000CF316B017C010E94BDA3809173188111EB
:104CB00005C060E089E793E00E94C95F0E94D9DEE9
:104CC000C60ED71EE81EF91E0E94D9DEDC01CB01FC
:104CD0008C199D09AE09BF09B7FD02C00C94C438F8
:104CE00080E00E9464D4F0CF0F94EF1281110C94F5
:104CF000C43880E090E0A0E2B1E489839A83AB837A
:104D0000BC838D839E83AF83B88789879A87AB875F
:104D1000BC8780E50E94DA46882319F00E9430465D
:104D200001C060E06E8BBE016F5F7F4FCE01469683
:104D30000E94A7A60C94C4388091401487708730D5
:104D400071F48FE40E94DA46882319F00E945146DC
:104D500003C08FE40E94934681110C94C4380E94D2
:104D6000BDA380E00E94D84484EF91E0A0E0B0E0D1
:104D700089839A83AB83BC83BE016F5F7F4F80EAD8
:104D80000E942E410E944E410E94B84111E01093B2
:104D90004F0488E50E949346282E89E50E94934699
:104DA000382E8AE50E9493468AAF211004C0311044
:104DB00004C0182705C0311002C010E001C01AADB0
:104DC0000E94634782E50E94DA46882399F10E9497
:104DD00060466B017C0120E030E0A9010F94E829D6
:104DE000882341F1111105C0211003C0332009F4BB
:104DF00018C1C0921A14D0921B14E0921C14F092A5
:104E00001D142091591430915A1440915B14509103
:104E10005C14C701B6010F94AC3218165CF4198209
:104E20001A821B821C82BE016F5F7F4F8AE194E170
:104E30000E94D54211110DC0211003C03110ECC0E9
:104E4000F0C0311006C080E00E943FF41123B1F39E
:104E5000E3C01092551410925614109257141092E9
:104E6000581410925114109252141092531410921C
:104E700054140E949144E9E7F4E3349127963FAF3C
:104E80002797EDE6F4E385909590A590B490E1E73F
:104E9000F4E3C590D590E590F490A7019601C50183
:104EA000B4010F94AC3218162CF4A5019401C7017B
:104EB000B60104C0A7019601C501B4010F94623187
:104EC0002B013C01E0E3F4E385919591A591B49128
:104ED0008AAB9BABACABBDABECE2F4E32591359177
:104EE000459154912EAB3FAB48AF59AF9C01AD01FA
:104EF0006EA97FA988AD99AD0F94E82987FD0AC0F6
:104F00000AA93BA93EAF4CA923964FAF23975DA9B1
:104F10005AAB09C00EA98FA98EAF98AD23969FAF4B
:104F20002397A9ADAAABA3019201C301B2010F94CB
:104F30004D2A20E030E040E85FE30F9486300F9484
:104F4000F2329B01AC01602F7EAD23968FAD23978B
:104F50009AA90F944D2A6AA37BA38CA39DA3EAE789
:104F6000F4E3049120E030E040EC5FE3C701B601D8
:104F70000F944D2A6B017C01602F000F770B880B7B
:104F8000990B0F94EE299B01AC01C701B6010F9458
:104F90004D2A69837A838B839C8320E030E040EC48
:104FA0005FE3C501B4010F944D2A6B017C01279684
:104FB000BFAD27976B2FBB0F770B880B990B0F9407
:104FC000EE299B01AC01C701B6010F944D2A6E8BEF
:104FD0007F8B888F998FAE014E5D5F4FBE016F5FF3
:104FE0007F4FCE0146960E94B4420E94EDA71092D8
:104FF000551410925614109257141092581410927F
:1050000051141092521410925314109254141111FE
:105010001ACF211018CF12CF81E00E943FF4111156
:1050200004C0EAADEE2309F45EC0809140148370A1
:105030008330E9F060E087E993E00E94C95FE1EB2B
:10504000F8E184918F010F5F1F4F882321F00E94A8
:105050007747F801F6CFE3E8F3E084918F010F5F23
:105060001F4F8823F1F10E947747F801F6CF0E9485
:1050700091448091591490915A14A0915B14B0916D
:105080005C1480931A1490931B14A0931C14B09377
:105090001D1480E090E0ADE2B3E48093121490938D
:1050A0001314A0931414B093151480E090E0AFE2B1
:1050B000B3E48093161490931714A0931814B0932C
:1050C000191419821A821B821C82AE014F5F5F4F36
:1050D00066E174E182E194E10E94B44282E00E94C0
:1050E0003FF40E9441E20E94914480914E048093DB
:1050F0004F040E949F4183E0809358020E94B5EFC5
:105100000C94C4380E94D4E50C94C43880911402E5
:10511000882311F40C94C43889E40E94DA46182FCD
:10512000882321F00E943046E62E01C0E12C8AE45B
:105130000E94DA46082F882331F00E943046F62E6E
:10514000111104C00BC0F12C1123C1F0F4E0FE15C5
:1051500010F00C94D03CEAEAF3E004C024E02F15F0
:10516000D0F30CC084918F010F5F1F4F882311F47F
:105170000C94C4380E947747F801F4CF0E9463472B
:105180001123F1F02091E4133091E5134E2D4203E9
:10519000B001439F700D112480912804909129043F
:1051A000680F791F072E000C880B990B0F94EE29BE
:1051B0006093121470931314809314149093151425
:1051C0000023F1F02091E6133091E7135F2D520395
:1051D000B001539F700D112420912A0430912B04AB
:1051E000620F731F072E000C880B990B0F94EE298A
:1051F00060931614709317148093181490931914D5
:1052000080E50E94DA468823E9F00E94514688230F
:10521000A9F11123D9F020E030E048EB51E460918E
:1052200012147091131480911414909115140F940A
:105230008630609312147093131480931414909317
:10524000151404C080E50E949346E1CF0023B1F01D
:1052500020E030E048EC51E460911614709117148E
:1052600080911814909119140F948630609316143D
:1052700070931714809318149093191486E40E9465
:10528000DA468823D9F00E9460466B017C0120E059
:1052900030E0A9010F94AC32181684F420E030E01D
:1052A00040E752E4C701B6010F94623160932A02CD
:1052B00070932B0280932C0290932D020E9411D7A1
:1052C0000C94C43820939C030C94C43888E40E9446
:1052D000DA46882381F00E945146882361F182E0FA
:1052E0000E94D04388E40E94DA46811108C060E041
:1052F00070E0CB0106C088E40E949346EECF0E9486
:1053000060466093591470935A1480935B14909381
:105310005C140E9491448091591490915A14A09168
:105320005B14B0915C1480931A1490931B14A09397
:105330001C14B0931D1430E6232E32E0332E4CE8BB
:10534000C42E43E0D42EE12CF12C00E010E0D1017A
:105350008D911D010E94DA46882309F44EC00E94F7
:1053600060462B013C01133059F0F701EF5BFB4E17
:1053700020813181428153810F9485302B013C0182
:10538000F701EF5AFB4E2081318142815381C301E5
:10539000B2010F9485304B015C012DEB37E346E8F9
:1053A00055EB0F94AC3287FD0AC02DEB37E346E88E
:1053B00055E3C501B4010F94E8291816F4F413302D
:1053C00051F440925D1450925E1460925F1470929A
:1053D000601401E012C0A5019401F60160817181A1
:1053E000828193810F948630D6016D937D938D9346
:1053F0009C931397812F0E9490431F5FB4E0CB0EC4
:10540000D11CE4E0EE0EF11C143009F0A0CF002313
:1054100021F08DE594E10F9414140E94B5EF0C94E3
:10542000C4380E94FAC70C94C4388091FC1890913B
:10543000FD188837910509F41CC70CF000C18D34A4
:10544000910509F406C40CF078C08A31910509F47D
:10545000E7C2ECF58431910509F49AC27CF48131FC
:10546000910509F485C22CF4029708F407C20C9444
:105470007338429709F478C50C94733887319105D5
:1054800009F48EC274F48531910509F485C24697FA
:1054900011F00C9473381092BF0A1092C00A0C9449
:1054A000C4388831910509F491C2499711F00C94E0
:1054B00073381092BF0A0E94BA9A8EEE93E09093CE
:1054C0000814809307140E9432440C94C4388F311E
:1054D000910509F407C39CF48C31910509F4B2C21B
:1054E0000CF4ACC28D31910511F40C94C4384E9774
:1054F00011F00C9473380E94BBB00C94C4388934FA
:10550000910509F495C364F48032910509F49EC2B3
:10551000C09711F00C9473380E9454AD0C94C438A9
:105520008B34910509F491C38C34910511F00C94DE
:1055300073380E94BA9A0C94C4388C36910511F4D1
:105540000C94C4380CF047C08535910509F410C59A
:105550004CF58235910509F4FEC4D4F481359105EA
:1055600011F00C9473380F9490070E94CEA3109200
:10557000FE131092FD1368EE73E080E090E00E944D
:10558000FA5E60E081EA94E00E94C95F0C94C4383E
:105590008335910509F4E3C48435910509F4E4C425
:1055A0000C9473388936910509F442C454F48C354F
:1055B000910509F4E1C48836910509F44EC30C94B1
:1055C00073388A36910509F4ACC48B36910509F419
:1055D000ACC40C9473388137910509F4FDC38CF485
:1055E0008E36910509F474C30CF464C48F369105AA
:1055F00009F481C38037910511F40C94C4380C94DC
:1056000073388537910509F4D9C564F4823791055B
:1056100009F43BC58337910511F00C947338E8E920
:10562000F5E071C58637910509F4D7C5873791052F
:1056300011F00C9473380E94BCA70C94C4388033CA
:10564000F1E09F0709F4AFC60CF086C08E3C9105CF
:1056500009F491C6F4F58B39910509F404C4D4F426
:105660008D37910509F473C45CF48937910511F005
:105670000C94733810924F0410924E040C94C4385A
:105680008C38910509F432C48139910509F4F6C5C5
:105690000C9473388B3C910509F467C66CF48E3B0F
:1056A000910509F427C4893C910511F00C947338D5
:1056B0000E94B4EE0C94C4388C3C910509F458C691
:1056C0008D3C910511F00C9473380E949AED0C9466
:1056D000C438883131E0930709F459C6DCF48C3DB5
:1056E000910509F44EC64CF4833D910511F00C94DC
:1056F00073380E94BCEC0C94C4388D3D910509F4BC
:1057000043C6823E910511F00C9473380E94D7EB8A
:105710000C94C4388D3251E0950709F43EC674F4F8
:105720008232B1E09B0709F435C68C32914011F00A
:105730000C9473380F94CC030C94C4388E32F1E07F
:105740009F0709F42DC68F32914011F00C947338E5
:105750000E9485FC0C94C438863F31E0930709F41D
:10576000EFC70CF047C08A3951E0950711F40C944B
:10577000C4380CF58039B1E09B0709F42EC644F417
:105780008336914011F00C947338E2E8F8E10EC6CC
:10579000813921E0920709F423C68239914011F042
:1057A0000C94733880E00E94F3420E9441E20E9410
:1057B000B5EF0C94C4388C3A41E0940709F4DEC587
:1057C0005CF4843AA1E09A0709F410C6853A914046
:1057D00009F41BC70C947338843FE1E09E0709F479
:1057E000ACC7853F914011F00C9473380E942A5346
:1057F0000C94C4388D3B22E0920711F40C942436AB
:10580000ECF48C3042E0940709F4C3C75CF4873FA2
:10581000A1E09A0709F497C7883F914009F496C719
:105820000C9473388835E2E09E0709F4BBC78B35CA
:10583000924011F40C949B350C9473388B3823E010
:10584000920711F40C94C4386CF48E3B42E0940738
:1058500011F40C942F378335934011F40C94F837DE
:105860000C947338803AA3E09A0709F42EC1873E5E
:10587000934011F40C945E380C947338A090FA188D
:10588000B090FB1880E50E94DA46882359F00E9408
:1058900020466B017C0111E0672B682B692B31F4EA
:1058A00010E004C010E0C12CD12C760183E50E94E9
:1058B000DA46882311F40C94C9380E94604620E02F
:1058C00030E04AE754E40F944D2A0F94CF316B0136
:1058D0007C0111110BC0672B682B692B39F4A114C3
:1058E000B10421F0F5018081811102C010E001C0F6
:1058F00011E00E94BDA3112329F061E0C5010E94BF
:10590000056005C060E089EC93E00E94C95F83E018
:1059100080933E1481E080933D14C114D104E104CE
:10592000F104F1F00E94D9DEC60ED71EE81EF91E62
:105930000E94D9DEDC01CB018C199D09AE09BF099B
:10594000B7FD06C00F944B1A10923D140C94C43846
:1059500080913D148823B1F380E00E9464D4E8CFA5
:1059600080913D14882371F380E00E9464D4F8CFC5
:1059700060E08DED93E00E94C95F5F988A98809106
:105980000801817080930601479812980C94C438DE
:105990000E94CCB10C94C4380E946FC20C94C438DD
:1059A000E091FA18F091FB188081882329F0803269
:1059B00009F410823196F8CF40E061E08091FA1846
:1059C0009091FB180E94108C0C94C43880E090E0F9
:1059D000A8E4B2E489839A83AB83BC831E8A1F8ABE
:1059E000188E198E1AA21BA21CA21DA28091C50995
:1059F000882359F020E0AE014F5F5F4FBE016A5E21
:105A00007F4FCE0182960E942EC78091C00A8823C4
:105A100019F081E08093BF0A0E94819A0C94C438E7
:105A20008091C00A882311F40C94C43883E50E9445
:105A3000DA4681110C94CE380C94C4380E9475B1AA
:105A40000C94C4380E946DB10C94C4388091BF0A84
:105A500081110E94BDA38091C00A882311F40C9487
:105A6000C43880E50E94DA46882319F00E94514626
:105A700003C080E50E949346182F482F61E0809173
:105A8000FA189091FB180E94108C83E50E94DA4668
:105A9000882381F00E943046AB01BC0140938A0DFF
:105AA00050938B0D60938C0D70938D0D89ED9CE060
:105AB0000E9478678091C00A882319F081E0809362
:105AC000BF0A11110C94C438A7CF8091FA18909195
:105AD000FB1821E02093BE0A40E060E00E94108C99
