:100000000C94911F0C94C21F0C94C21F0C94C21F1D
:100010000C94C21F0C94C21F0C94C21F0C94C21FDC
:100020000C94C21F0C94C21F0C94C21F0C94C21FCC
:100030000C94C21F0C94FC7C0C94C21F0C94C21F25
:100040000C94C21F0D94C90C0C94C21F0C94C21FB7
:100050000C94C21F0C94C21F0D9443010C941FE317
:100060000C94C21F0C94994A0C94C21F0C94C21F8A
:100070000C94C21F0C94C21F0C94C21F0C94C21F7C
:100080000D94960E0C94C21F0C94C21F0C94C21FA8
:100090000C94C21F0C94C21F0C94C21F0C94C21F5C
:1000A0000C94C21F0C94C21F0D94690E0C94C21FB5
:1000B0000C94C21F0C94C21F0C94C21F0D943C0ED2
:1000C0000C94C21F0C94C21F0C94C21F0C94C21F2C
:1000D0000C94C21F0C94C21F0C94C21F0C94C21F1C
:1000E0000C94C21F3B9C409C459C4F9C599CD29CAD
:1000F000639C6B9C739C7D9C879C919CA09CAA9C00
:10010000D29CB49CBE9CC89C11C2F7C1FAC1FDC16F
:1001100000C20CC203C21DC206C209C260E163E193
:1001200052E156E15CE19AE167E16BE171E175E171
:1001300079E17FE183E187E19AE18DE191E195E168
:10014000084AD73B3BCE016E84BCBFFDC12F3D6C3E
:1001500074319ABD56833DDA3D00C77F11BED9E4A4
:10016000BB4C3E916BAAAABE000000803F05A84C84
:10017000CDB2D44EB93836A9020C50B99186880850
:100180003CA6AAAA2ABE000000803F000D943D14A0
:100190000D94D4120D9490230D9460230D944D1161
:1001A0000D9412110D94D8120D9441140D94081150
:1001B0000D9439140D940D110D94D0120D948508E1
:1001C0000D947C174E414E494E495459494E46CDE7
:1001D000CCCC3D0AD7233C17B7D13877CC2B3295FE
:1001E00095E6241FB14F0A000020410000C84200DC
:1001F000401C4620BCBE4CCA1B0E5AAEC59D7400A6
:10020000407A10F35A00A0724E18090010A5D4E8E5
:100210000000E87648170000E40B54020000CA9A78
:100220003B000000E1F505000080969800000040CA
:10023000420F000000A0860100000010270000000F
:1002400000E803000000006400000000000A000055
:100250000000000100000000002C76D888DC674F09
:100260000823DFC1DFAE59E1B1B796E5E3E453C639
:100270003AE651997696E8E6C28426EB898C9B6231
:10028000ED407C6FFCEFBC9C9F40F2BAA56FA5F4DB
:1002900090055A2AF75C936B6CF9676DC11BFCE003
:1002A000E40D47FEF520E6B500D0ED902E03009456
:1002B0003577050080841E080000204E0A000000EB
:1002C000C80C333333330F986E12831141EF8D21F5
:1002D00014893BE65516CFFEE6DB18D1844B381B5C
:1002E000F77C1D901DA4BBE424203284725E228121
:1002F00000C9F124ECA1E53D27434F4D4D554E4932
:10030000434154494F4E0044525952554E004552B4
:10031000524F525300494E464F004543484F004705
:10032000322F47332062616420706172616D6574A1
:100330006572730A005665696C6C652E2E2E004F2F
:10034000726967696E65205859205072656D6965DC
:10035000720A004F726967696E65205859205072A1
:10036000656D69657200205A3A200020593A2000D4
:1003700042656420583A20004D65736820706F69AB
:100380006E742063616E6E6F742062652072657397
:100390006F6C7665640A004D6F74657572732062C8
:1003A0006C6F717565732E004D31323500286E6F9C
:1003B0002066696C65290043757272656E742066EB
:1003C000696C653A20002569730025696D202569EF
:1003D00073002569682025696D20256973002569EA
:1003E00064202569682025696D20256973002569C9
:1003F0007920256964202569682025696D20256993
:1004000073005072696E742074696D653A20004DF6
:10041000343820526573756C743A20257300537418
:10042000616E6461726420446576696174696F6E9F
:100430003A20002052616E67653A2000204D6178B5
:100440003A2000204D696E3A20004D65616E3A20D9
:100450000046696E6973686564210A002072616EE6
:1004600067653A2000206D61783A2000206D696E42
:100470003A2000207369676D613A2000206D656144
:100480006E3A20003A207A3A2000206F6620005011
:100490006F736974696F6E696E6720746865207028
:1004A000726F62652E2E2E0A003F2028582C592983
:1004B000206F7574206F6620626F756E64732E0AEC
:1004C000003F53616D706C652073697A65206E6FB3
:1004D0007420706C61757369626C652028342D35E9
:1004E00030292E0A004D343820546573742052751B
:1004F0006E6E696E672E2E2E0A003F285629657291
:10050000626F7365206C6576656C20697320696D18
:10051000706C61757369626C652028302D34292EEA
:100520000A001A0315030E030703F9026F6666003B
:1005300044454255473A004D4F52542E006F6B00D0
:100540002F2F20004D31343520533C696E6465787F
:100550003E206F7574206F662072616E676520287B
:10056000302D31290A002054002052004163636578
:100570006C65726174696F6E3A2050005741524E3B
:10058000494E4721204C6F77205A204A65726B20D4
:100590006D6179206C65616420746F20756E776180
:1005A0006E746564207061757365732E0A000000B7
:1005B00000000000000000000000446563616C6101
:1005C000676573206170706C697175657300457241
:1005D000723A20546F6F206661722100546F6F2051
:1005E0006661722066726F6D207265666572656EF7
:1005F000636520706F696E740A00205A00205900EC
:10060000580020204D61783A2000205A00205900DF
:10061000580020204D696E3A20004D617263686574
:1006200000417272657400536F667420656E647366
:10063000746F70733A200050726F6265205A204FB9
:1006400066667365743A2000496E76616C69642051
:1006500065787472756465720A0020643A002069D6
:100660003A0020703A00496E736572742066696CB6
:10067000616D656E7420616E6420707265737320A5
:10068000627574746F6E0A005072657373206275C0
:1006900074746F6E20746F2068656174206E6F7A59
:1006A0007A6C650A00496E736572742066696C61C4
:1006B0006D656E7420616E64207072657373206264
:1006C0007574746F6E20286F72204D313038290A8E
:1006D000004163746976652045787472756465724B
:1006E0003A2000496E76616C696420657874727591
:1006F0006465720A004E6F20436865636B73756DA5
:100700002077697468206C696E65206E756D62650E
:10071000722C204C617374204C696E653A20004D38
:100720004F52542E0053544F5050452E0050726972
:100730006E7465722073746F707065642064756583
:1007400020746F206572726F72732E204669782054
:10075000746865206572726F7220616E64207573B3
:1007600065204D39393920746F2072657374617258
:10077000742E202854656D706572617475726520E1
:1007800069732072657365742E20536574206974D3
:100790002061667465722072657374617274696E2B
:1007A00067290A004E6F20436865636B73756D207F
:1007B00077697468206C696E65206E756D6265720C
:1007C0002C204C617374204C696E653A200063687C
:1007D00065636B73756D206D69736D617463682CEF
:1007E000204C617374204C696E653A20004C696E30
:1007F00065204E756D626572206973206E6F74207E
:100800004C617374204C696E65204E756D62657223
:100810002B312C204C617374204C696E653A20009A
:100820004D313130004D33310053442072656164E5
:10083000206572726F720A00446F6E652070726973
:100840006E74696E672066696C650A0020496E7671
:10085000616C69642065787472756465722000004B
:1008600000000000000000000000000000964300AF
:100870000096430000C8434572726F722077726918
:1008800074696E6720746F20454550524F4D210AA0
:1008900000454550524F4D206461746173697A651B
:1008A000206572726F722E0A00290A002062797424
:1008B00065733B20637263200053657474696E67CF
:1008C000732053746F726564202800290A00206227
:1008D000797465733B2063726320002073746F72B8
:1008E00065642073657474696E67732072657472D1
:1008F0006965766564202800202863616C63756CE7
:100900006174656429210A0020213D20004545507D
:10091000524F4D20435243206D69736D617463687B
:10092000202D202873746F7265642920002053697C
:100930007A653A2000496E6465783A2000204D615E
:10094000726C696E3D563536290A0028454550526D
:100950004F4D3D00454550524F4D207665727369AD
:100960006F6E206D69736D61746368200020643A56
:100970000020693A0020703A0000002110422063F4
:10098000308440A550C660E770088129914AA16B68
:10099000B18CC1ADD1CEE1EFF13112100273325200
:1009A00022B5529442F772D662399318837BB35AB8
:1009B000A3BDD39CC3FFF3DEE362244334200401D0
:1009C00014E664C774A44485546AA54BB528850908
:1009D00095EEE5CFF5ACC58DD553367226111630A0
:1009E00006D776F6669556B4465BB77AA719973858
:1009F00087DFF7FEE79DD7BCC7C448E5588668A7E0
:100A0000784008611802282338CCC9EDD98EE9AFA7
:100A1000F9488969990AA92BB9F55AD44AB77A963F
:100A20006A711A500A333A122AFDDBDCCBBFFB9EF7
:100A3000EB799B588B3BBB1AABA66C877CE44CC50F
:100A40005C222C033C600C411CAEED8FFDECCDCD47
:100A5000DD2AAD0BBD688D499D977EB66ED55EF4DF
:100A60004E133E322E511E700E9FFFBEEFDDDFFC97
:100A7000CF1BBF3AAF599F788F8891A981CAB1EB3C
:100A8000A10CD12DC14EF16FE18010A100C230E365
:100A9000200450254046706760B9839893FBA3DA21
:100AA000B33DC31CD37FE35EF3B1029012F322D2B5
:100AB000323542145277625672EAB5CBA5A89589B1
:100AC000856EF54FE52CD50DC5E234C324A0148105
:100AD000046674476424540544DBA7FAB79987B8C1
:100AE000975FE77EF71DC73CD7D326F2369106B055
:100AF0001657667676154634564CD96DC90EF92FC1
:100B0000E9C899E9898AB9ABA944586548067827A4
:100B100068C018E1088238A3287DCB5CDB3FEB1E60
:100B2000FBF98BD89BBBAB9ABB754A545A376A16F4
:100B30007AF10AD01AB32A923A2EFD0FED6CDD4DF0
:100B4000CDAABD8BADE89DC98D267C076C645C4544
:100B50004CA23C832CE01CC10C1FEF3EFF5DCF7C00
:100B6000DF9BAFBABFD98FF89F176E367E554E7494
:100B70005E932EB23ED10EF01E7C3C3E5E2B3D3F7E
:100B80002F5B5D3B2C2A225C0042696C696E6561BB
:100B900072204C6576656C696E6720477269643AAD
:100BA0000A00202844525952554E29004732392014
:100BB0004175746F20426564204C6576656C696E82
:100BC00067003F20284C2C522C462C4229206F7560
:100BD00074206F6620626F756E64732E0A003F2862
:100BE00056296572626F7365206C6576656C206945
:100BF0007320696D706C61757369626C6520283053
:100C00002D34292E0A00426164205A2076616C75C9
:100C1000650A004E6F2062696C696E6561722067BB
:100C20007269640A00436C696320706F7572207288
:100C3000657072656E64726500486F74656E6420DD
:100C4000746F6F20636F6C640A004D3630303A2049
:100C500054726F702066726F696400486F74656EBD
:100C60006420746F6F20636F6C640A00456E6420AB
:100C700066696C65206C6973740A00426567696E09
:100C80002066696C65206C6973740A0046696C653E
:100C90002064656C657465643A0044656C657469CC
:100CA0006F6E206661696C65642C2046696C653ADC
:100CB000200020466C6F773A200050726F74656395
:100CC0007465642050696E0A00000136372603FF00
:100CD000FFFF353C3D380EFFFFFF312E303E12FF47
:100CE000FFFFFF28FF0C0809FFFFFF1A1C18FFFF7A
:100CF0002A08440AFF4224221E2C206F7574206F9C
:100D0000662072616E67650A00536572766F200017
:100D10003A200020536572766F200043290A006153
:100D2000626C656420286D696E2074656D702000AA
:100D3000436F6C64206578747275646573206172AA
:100D40006520004B64200023646566696E6520445D
:100D5000454641554C545F004B692000236465664D
:100D6000696E652044454641554C545F004B7020E8
:100D70000023646566696E652044454641554C54C0
:100D80005F00504944204175746F74756E6520662C
:100D9000696E697368656421205075742074686594
:100DA000206C617374204B702C204B6920616E6441
:100DB000204B6420636F6E7374616E74732066726F
:100DC0006F6D2062656C6F7720696E746F20436F62
:100DD0006E66696775726174696F6E2E680A00507D
:100DE0004944204175746F74756E65206661696C45
:100DF0006564212074696D656F75740A0045312042
:100E0000454D42414C4C454D454E54205448455269
:100E10004D2E0042454420544845524D414C2052ED
:100E2000554E4157415900546865726D616C2052AE
:100E3000756E617761790045312045727265757212
:100E4000206465206368617566666500426564209C
:100E500068656174696E67206661696C65640048E5
:100E6000656174696E67206661696C6564005049EC
:100E700044204175746F74756E65206661696C6598
:100E800064212054656D706572617475726520749B
:100E90006F6F20686967680A00204B643A20002061
:100EA0004B693A2000204B703A20000A20436C61C5
:100EB0007373696320504944200A002054753A2016
:100EC00000204B753A2000206D61783A2000206D9B
:100ED000696E3A200020643A200020626961733A0A
:100EE0002000504944204175746F74756E6520660A
:100EF00061696C6564212054656D706572617475FB
:100F0000726520746F6F20686967680A00504944F1
:100F1000204175746F74756E652073746172740A04
:100F200000504944204175746F74756E6520666188
:100F3000696C65642120426164206578747275640F
:100F40006572206E756D6265720A00417272657419
:100F50000A0046616465204865696768742000423C
:100F60006564204C6576656C696E67200046616932
:100F70006C656420746F20656E61626C65204265EB
:100F800064204C6576656C696E670A004D65736810
:100F900020706F696E742063616E6E6F742062657D
:100FA000207265736F6C7665640A004D34323120AF
:100FB000696E636F727265637420706172616D65D2
:100FC0007465722075736167650A00454550524F1C
:100FD0004D204F4B0A003A200050726F6265205A34
:100FE000204F6666736574003F5A206F7574206FDA
:100FF000662072616E676520282D3520746F203160
:10100000290A004E6F2063617365206C69676874FC
:101010000A00024D4F52542E00202D20496E766159
:101020006C6964206578747275646572206E756D84
:1010300062657220210A000000000000000000002C
:1010400000000000000000000000000000000000A0
:10105000000000000000000000000000000400008C
:101060004000000000000000000000000007000138
:10107000C000000000000000000000000007C007E2
:10108000C000000000000000000000000007E00FAA
:10109000C000000000000000000000000007F01F7A
:1010A000C000000000000000000000000007F01F6A
:1010B000C000000000000000000000000007F01F5A
:1010C000C000000000000000000000000007F01F4A
:1010D000C000000000000000000000000003F01F3E
:1010E000C000000000000000000000000003F01F2E
:1010F000C000000000000000000000000003F01F1E
:101100008000000000000000000000000003F01F4D
:101110008000000000000000000000000003F01F3D
:101120008000000000000000000000000003F01F2D
:101130008000000000000000000000000003F01F1D
:101140008000000000000000000018000003F01FF5
:10115000800000300000000000000C000001F01FC3
:10116000000000600000000000000F000001F01F00
:10117000000001C000000000000007800001F01F17
:101180000000038000000000000003E00001F01FE9
:1011900000000F8000000000000003F00001F01FBD
:1011A00000001F0000000000000001FC0001F01F13
:1011B00000007E0000000000000000FE0001F01FA3
:1011C0000000FC00000000000000007F8001F01F14
:1011D0000003F800000000000000007FC000F01FC6
:1011E0000007F800000000000000003FF000F01EC3
:1011F000001FF000000000000000001FFC18F01E9F
:10120000303FE000000000000000000FF838701CC4
:10121000383FC0000000000000000007F0FC30185C
:101220007E1F80000000000000000003E1FE10109F
:10123000FF0F80000000000000000001C3FF00015C
:10124000FF870000000000000000000087FF800111
:10125000FFC2000000000000000000000FFF80033C
:10126000FFE0000000000000000000001FE7C007D2
:10127000CFF0000000000000000000003FC1E00FC0
:1012800083F8000000000000000000001FC0700E86
:1012900007F0000000000000000000001FE0100840
:1012A0000FE0000000000000000000000FF0000050
:1012B0001FE00000000000000000000007F8000030
:1012C0001FC00000000000000000000003FC000040
:1012D0003F800000000000000000000001FC000052
:1012E0007F000000000000000000000000FE000081
:1012F000FE0000000000000000000000007F000170
:10130000FC0000000000000000000000007F8003DF
:10131000F80000000000000000000000003FC007CF
:10132000F00000000000000000000000001FE007C7
:10133000F00000000000000000000000000FF00FAF
:10134000E000000000000000000000000007F01FA7
:10135000C000000000000000000000000003F83F93
:101360008000000000000000000000000001FC7F81
:101370000000000000000000000000000000FE7EF1
:1013800000000000000000000000000000007FFCE2
:1013900000000000000000000000000000007FF8D6
:1013A00000000000000000000000000000003FF806
:1013B00000000000000000000000000000001FF01E
:1013C00000000000000000000000000000000FE02E
:1013D000000000000000000000000000000007C046
:1013E000000000000000000000000000000003807A
:1013F00000000000000000000000000000000100EC
:1014000000000000000000000000000000000000DC
:1014100000000000000000000000000000000000CC
:1014200000000000000000000000000000000000BC
:10143000000000000000001FFFFFFFFFFFFF600033
:1014400000000001FF400000000000FF80000000DD
:1014500000007F83CF00000C303F87FF80000C30FE
:101460001F867980000C000F8C30C7838C30E78C8E
:1014700030CFC7CC31F38C30DCECEC33B98C30D8C6
:101480006C6C33198C30D06C0C33198C30D86C0CDC
:1014900033198C30DC6C0E3B198C30CF7C079F19D4
:1014A0008C30C77C038F19400000000000026000F0
:1014B00000000000061FFFFFFFFFFFF82020506C18
:1014C000616E6E65724275666665724279746573A7
:1014D0003A20002046726565204D656D6F72793A3D
:1014E0002000436F6D70696C65643A204465632029
:1014F000323220323032300A00207C20417574684C
:101500006F723A202854483344290A0000204C6165
:10151000737420557064617465643A2000544833D4
:10152000442055312E52322E42330A004D61726CE6
:10153000696E0020536F667477617265205265731F
:1015400065740A00205761746368646F6720526590
:101550007365740A002042726F776E206F75742075
:1015600052657365740A002045787465726E616C0B
:101570002052657365740A00506F77657255700A62
:101580000073746172740A006175746F25692E6747
:10159000006572726F722077726974696E67207469
:1015A0006F2066696C650A00427574656573202555
:1015B0006320256320256320256300205A3A0020FC
:1015C000593A0020583A00656E6473746F70732046
:1015D0006869743A2000446F6E6520736176696EA5
:1015E000672066696C652E0A004D3239004D313234
:1015F00035004D323400496D70722E20616E6E756B
:101600006C656500496E69742E206C61206361729F
:101610007465205344004D3231005061732064657D
:10162000206361727465004368616E67657220644F
:1016300065206361727465004D323100496D7072CE
:101640002E20646570756973205344004172726581
:1016500074657220696D70722E0052657072656ECD
:1016600064726520696D70722E00496E74657272C5
:101670006F6D70726520696D70722E0041207072FE
:101680006F706F7320696D70722E00436F6E74728D
:101690006F6C6572005072657061726572005265A0
:1016A000676C657200496E666F73000E000E000E67
:1016B000000E000E000E000E000E007FC03F801FC7
:1016C000000E00040004000E001F003F807FC00ECB
:1016D000000E000E000E000E000E000E000E0003A5
:1016E000F8000FFE001E0F0038070038038070035B
:1016F00080700FE07007C070038070010070000000
:101700003800003807001E0F000FFE0003F800002D
:10171000FE0003FF800783C00E01C00E00E01C0026
:10172000E07F00E03E00E01C00E00800E00000E098
:101730000001C00E01C00F078007FF0001FC00FF81
:10174000FFFF7F80FFC0FFC0FFC07F807F80FFC0A2
:10175000FFC0FFC03F001E000C00446563616C6168
:101760006765205A004368616E6765722066696C20
:10177000616D656E7400446563616C616765205AD4
:1017800000466C757800466C757800566974657310
:1017900073652076656E74696C2E00566974657386
:1017A00073652076656E74696C2E004C6974004C0C
:1017B0006974004275736500427573650048617510
:1017C00074657572206C6973736565004861757422
:1017D000657572206C69737365650056697465730D
:1017E00073650056697465737365004D656E752089
:1017F0007072696E636970616C00507265636861D4
:1018000075666661676520504C412062757365009E
:1018100050726563682E20504C41206C69740050F2
:10182000726563686175666661676520504C41004A
:10183000507265706172657200507265636861759F
:10184000666661676520414253206275736500508A
:10185000726563682E20414253206C697400507297
:101860006563686175666661676520414253005033
:1018700072657061726572004D3234004D323320F2
:10188000257300556E6B6E6F776E20636F6D6D61A3
:101890006E643A202200496E736572742066696C2A
:1018A000616D656E7420616E642070726573732063
:1018B000627574746F6E20286F72204D3130382934
:1018C0000A00456368656320736F6E64650A0045AE
:1018D0006368656320736F6E646500205A3A200068
:1018E00020593A200042656420583A200053442091
:1018F00063617264206F6B0A006F70656E526F6F68
:1019000074206661696C65640A00766F6C756D653C
:101910002E696E6974206661696C65640A005344BF
:1019200020696E6974206661696C0A00000609000E
:10193000FE0701920321207FFF07FF07FF00000041
:10194000060000010707060200808080808000807A
:10195000030202060105A0A005070706000050507B
:10196000F850F850500507070600002078A07028AE
:10197000F020050707060000C0C810204098180591
:1019800007070600006090A040A8906802030306C5
:101990000104C040800307070601002040808080CA
:1019A00040200307070601008040202020408005DA
:1019B000050506000120A870A82005050506000100
:1019C0002020F820200203030602FFC0408005010A
:1019D00001060003F8020202060200C0C005050568
:1019E00006000108102040800507070600007088E7
:1019F000888888887003070706010040C04040407F
:101A000040E0050707060000708808708080F80530
:101A10000707060000F81020100808F00507070661
:101A2000000010305090F81010050707060000F86D
:101A300080F008088870050707060000708080F0B5
:101A4000888870050707060000F80810202020206D
:101A500005070706000070888870888870050707EA
:101A600006000070888878080870020505060200E4
:101A7000C0C000C0C00206060602FFC0C000C040D1
:101A80008004070706000010204080402010050356
:101A900003060002F800F804070706010080402052
:101AA00010204080050707060000708808102000FD
:101AB0002005070706000070880868A8A8700507B9
:101AC00007060000708888F88888880507070600E0
:101AD00000F08888F08888F0050707060000708805
:101AE0008080808870050707060000F08888888855
:101AF00088F0050707060000F88080F08080F80570
:101B00000707060000F88080F08080800507070640
:101B10000000708880B88888700507070600008874
:101B20008888F888888801070706020080808080FE
:101B300080808005070706000038101010109060A4
:101B40000507070600008890A0C0A0908805070739
:101B5000060000808080808080F80507070600006E
:101B600088D8A8888888880507070600008888C85C
:101B7000A8988888050707060000708888888888E4
:101B800070050707060000F08888F0808080050750
:101B90000706000070888888A89068050707060077
:101BA00000F08888F0A0908805070706000078807C
:101BB00080700808F0050707060000F820202020A4
:101BC0002020050707060000888888888888700517
:101BD00007070600008888888888502005070706C0
:101BE00000008888888888A85005070706000088B4
:101BF000885020508888050707060000888888508C
:101C0000202020050707060000F80810204080F873
:101C1000030707060100E08080808080E00505055D
:101C20000600018040201008030707060100E0209D
:101C300020202020E0050303060004205088050131
:101C400001060000F80202020602058040050505B3
:101C50000600007008788878050707060000808075
:101C6000B0C88888F005050506000070808088707F
:101C700005070706000008086898888878050505A4
:101C80000600007088F880700507070600003048DD
:101C9000E0404040400506060600FF70888878084E
:101CA000700507070600008080B0C8888888010793
:101CB00007060200800080808080800308080601FB
:101CC000FF200020202020A04004070706000080FD
:101CD0008090A0C0A090030707060100C0404040CC
:101CE0004040E0050505060000D0A8A8A8A8050505
:101CF00005060000B0C88888880505050600007044
:101D0000888888700506060600FFF08888F08080C5
:101D10000506060600FF7888887808080505050688
:101D20000000B0C880808005050506000070807046
:101D300008F00407070600004040E040404030053E
:101D400005050600008888889868050505060000D6
:101D500088888850200505050600008888A8A850B6
:101D60000505050600008850205088050606060077
:101D7000FF888888780870050505060000F810209F
:101D800040F8030707060100204040804040200142
:101D90000707060200808080808080800307070696
:101DA0000100804040204040800502020600026899
:101DB000900000000600006F6B0020746F6F206CB5
:101DC0006F6E6720657874727573696F6E207072BC
:101DD0006576656E7465640A0020636F6C642065C7
:101DE0007874727573696F6E2070726576656E7443
:101DF00065640A00627573793A2070617573656471
:101E000020666F7220696E7075740A00627573794E
:101E10003A2070617573656420666F722075736512
:101E2000720A00627573793A2070726F636573731A
:101E3000696E670A004D4F52542E004B494C4C209E
:101E4000636175736564206279204B494C4C206254
:101E50007574746F6E2F70696E0A004D4F52542E58
:101E6000004B494C4C206361757365642062792096
:101E7000746F6F206D75636820696E616374697635
:101E8000652074696D65202D2063757272656E74AE
:101E900020636F6D6D616E643A20004D3630300006
:101EA00052615A2E2053565000494D50522E205305
:101EB000544F50504545005072696E7465722068E9
:101EC000616C7465642E206B696C6C2829206361D9
:101ED0006C6C6564210A00656E7175657565696E67
:101EE00067202200000020420000204200008040C5
:101EF000000000005761726E696E673A20486F6D8E
:101F0000696E672042756D702044697669736F72DF
:101F1000203C20310A000202040000A0400000A082
:101F2000400000004000009643000096430000C8B7
:101F300043FFFFFF5665206A65726B005665206A95
:101F400065726B005665206A65726B00567A206A6E
:101F500065726B00567A206A65726B005679206A4A
:101F600065726B005679206A65726B005679206A3B
:101F700065726B005678206A65726B005678206A2D
:101F800065726B005678206A65726B004D6F7576CE
:101F9000656D656E740045207061732F6D6D004531
:101FA000207061732F6D6D005A207061732F6D6DFD
:101FB000005A207061732F6D6D0059207061732F6E
:101FC0006D6D0059207061732F6D6D005820706128
:101FD000732F6D6D0058207061732F6D6D004D6F04
:101FE0007576656D656E74005061732F6D6D004A76
:101FF00065726B00416363656C65726174696F6ED5
:102000000056656C6F6369746500446563616C615B
:102010006765205A00436F6E74726F6C657200437F
:10202000686172676572206D6D00436861726765F3
:1020300072206D6D0043686172676572206D6D007E
:10204000446563686172676572206D6D0044656305
:10205000686172676572206D6D00446563686172C6
:10206000676572206D6D00436F6E74726F6C657280
:102070000043616E6E6F7420656E746572207375B7
:10208000626469723A2000022E2E00014163747569
:10209000616C69736572004D656E75207072696E52
:1020A000636970616C0054656D70204D61783A20F1
:1020B0003132300054656D70204D696E3A20350024
:1020C000544265643A4154432031303447542D32F0
:1020D0000054656D70204D61783A203239300054DB
:1020E000656D70204D696E3A20350054303A2050AD
:1020F0005431303020556C74694D4200416C696D2B
:10210000656E746174696F6E3A2047656E657269B9
:10211000630050726F746F636F6C653A20312E30BC
:1021200000426175643A203131353230300043521B
:102130002D313053004E69766561752062696C6996
:102140006E65616972650045787472756465757253
:10215000733A2031005448334453747564696F2EC8
:10216000636F6D00496D7072696D616E746500001A
:10217000544833442055312E52322E4233004D61A3
:10218000726C696E0020746F6F206C6F6E672065D3
:102190007874727573696F6E2070726576656E748F
:1021A00065640A0020636F6C6420657874727573CF
:1021B000696F6E2070726576656E7465640A00548E
:1021C0006865726D6F636F75706C657300496E66DC
:1021D0006F7320636172746500496E666F73206966
:1021E0006D7072696D616E7465004D656E752070FD
:1021F00072696E636970616C004D36303020423018
:1022000020542564004D37303120542564004D376B
:102210003032203B2564004D373032205425640095
:102220004465636861726765722066696C2E00445C
:1022300065636861726765722066696C2E004D3750
:102240003032004D3730310043686172676572206B
:1022500066696C2E004D3630302042300043686194
:102260006E6765722066696C616D656E7400507290
:1022700065706172657200494D50522E2050415573
:102280005345004445434841524745522046494C36
:1022900000434841524745522046494C0050757210
:1022A00067657220706C75730052657072656E643C
:1022B000726520696D70722E004F5054494F4E5315
:1022C00020524550524953453A00202042757365CB
:1022D0003A200064652066696C616D656E74006407
:1022E00075206368616E67656D656E740041747416
:1022F000656E74652064656D61727261676500204A
:1023000020427573653A200020006465636861723D
:102310006765722066696C616D656E7400417474E6
:10232000656E7465206465002020427573653A20EF
:1023300000200050617469656E74657A20535650B0
:102340002E2E2E004275736520656E2063686175C0
:10235000666665002020427573653A2000200050B3
:1023600072206368617566666572206C61206275B3
:1023700073650050726573736572206C6520626FBF
:1023800075746F6E2E2E2E002020427573653A20D4
:1023900000706F757220636F6E74696E7565722E52
:1023A0002E2E00657420636C696320626F75746FF4
:1023B0006E00496E73657265722066696C616D6549
:1023C0006E74002020427573653A20002000636817
:1023D000617267656D656E742066696C616D656EAE
:1023E0007400417474656E74652064650020204239
:1023F0007573653A2000200050757267657220661B
:10240000696C616D656E7400417474656E7465000D
:10241000706F75722072657072656E6472650041CE
:102420007474656E746520696D7072657373696F1D
:102430006E0024F4D43050C38E20C2A24017828B89
:102440007011127A910D816CD90AA861E108C75800
:102450006607615143061E4B5D05C145A7041A413D
:102460001104093D9803713931034036DB026533AD
:102470009102D4305402802E1D02632CEE01752A85
:10248000C501B028A001102781018F2564012B24EC
:102490004B01E0223401AC211F018D200D01801F72
:1024A000FC00841EED00971DDF00B81CD200E61B67
:1024B000C600201BBC00641AB200B219A8000A1999
:1024C000A0006A189900D117910040178B00B5162B
:1024D000840031167E00B31579003A157300C714D5
:1024E0006F0058146A00EE1366008813630025130A
:1024F0005E00C7125B006C12570015125400C11128
:10250000510070114F0021114B00D61049008D1061
:1025100047004610440002104200C00F4000800FE8
:102520003E00420F3C00060F3B00CB0E3800930EDE
:1025300037005C0E3500270E3400F30D3200C10D5C
:102540003100900D3000600D2E00320D2D00050D74
:102550002C00D90C2B00AE0C2900850C29005C0C3A
:102560002700350C27000E0C2600E80B2400C40BB6
:102570002400A00B23007D0B23005A0B2100390BF4
:102580002100180B2000F80A1F00D90A1E00BB0A00
:102590001E009D0A1D00800A1D00630A1C00470AD8
:1025A0001B002C0A1B00110A1A00F7091A00DD098A
:1025B0001900C4091900AB091900920917007B0919
:1025C0001800630917004C09160036091600200987
:1025D00016000A091500F5081500E0081400CC08DB
:1025E0001400B8081400A4081400900813007D0813
:1025F00012006B0813005808120046081200340835
:102600001100230811001208110001081100F00741
:102610001000E0071000D0071000C0071000B0073E
:102620000F00A107100091070E0083070F00740729
:102630000F0065070E0057070E0049070E003B0705
:102640000D002E070E0020070D0013070D000607D2
:102650000D00F9060C00ED060D00E0060C00D40696
:102660000C00C8060C00BC060C00B0060C00A4064A
:102670000B0099060C008D060B0082060B007706F6
:102680000B006C060B0061060A0057060B004C0697
:102690000A0042060A0038060A002E060A0024062E
:1026A0000A001A060A001006090007060A00FD05BE
:1026B0000900F4050900EB050900E2050900D90548
:1026C0000900D0050900C7050900BE050900B505C8
:1026D0000800AD050800A50509009C050800940543
:1026E00008008C050800840508007C0508007405B6
:1026F00008006C050700650508005D050700560524
:1027000008004E050700470507004005080038058A
:102710000700310507002A050700230507001C05EF
:102720000600160507000F0507000805060002054C
:102730000700FB040600F5040700EE040600E804A9
:102740000600E2040700DB040600D5040600CF04FF
:102750000600C9040600C3040600BD040600B70451
:102760000600B1040500AC040600A6040600A0049F
:1027700005009B04060095040500900406008A04E9
:10278000050085040500800406007A040500750430
:102790000500700405006B04050066040500610473
:1027A00005005C04050057040500520405004D04B3
:1027B000050048040500430405003E0404003A04F3
:1027C000050035040500300404002C04050027042E
:1027D0000400230405001E0404001A040400160467
:1027E0000500110404000D0404000904050004049C
:1027F000040000040400FC030400F8030400F403D4
:102800000400F0030400EC030400E8030400E40304
:102810000400E0030400DC030400D8030400D40334
:102820000400D0030400CC030400C8030300C50364
:10283000030024F404D9201BC40C5C0E9804C409C2
:102840005F0265077101F405F900FB04B300480459
:102850008700C10369005803550003034500BE0209
:102860003A008402310053022A00290225000402A2
:102870002000E4011C00C8011900AF0117009801F5
:102880001400840113007101100061011000510156
:102890000E0043010D0036010B002B010B0020013F
:1028A0000B00150109000C01090003010800FB00E1
:1028B0000800F3000800EB000700E4000600DE005B
:1028C0000600D8000600D2000600CC000500C700B4
:1028D0000500C2000500BD000400B9000400B500F9
:1028E0000400B1000400AD000400A9000400A5002C
:1028F0000300A20003009F0004009B000300980057
:1029000003009500020093000300900003008D0077
:1029100002008B0003008800020086000200840091
:102920000300810002007F0002007D0002007B00A6
:1029300002007900020077000100760002007400B6
:10294000020072000100710002006F0002006D00C1
:1029500001006C0002006A000100690002006700CB
:1029600001006600010065000100640002006200D1
:10297000010061000100600001005F0002005D00D5
:1029800001005C0001005B0001005A0001005900D9
:1029900001005800010057000100560001005500D9
:1029A00001005400010053000000530001005200D8
:1029B000010051000100500001004F0001004E00D5
:1029C00000004E0001004D0001004C0001004B00D2
:1029D00000004B0001004A000100490001004800CE
:1029E00000004800010047000100460000004600CA
:1029F00001004500000045000100440001004300C3
:102A000000004300010042000000420001004100BC
:102A1000000041000100400001003F0000003F00B5
:102A200001003E0000003E0001003D0000003D00AE
:102A300001003C0000003C0000003C0001003B00A5
:102A400000003B0001003A0000003A00010039009C
:102A50000000390001003800000038000000380094
:102A6000010037000000370001003600000036008A
:102A70000000360001003500000035000000350080
:102A80000100340000003400000034000100330075
:102A9000000033000000330001003200000032006B
:102AA0000000320001003100000031000000310060
:102AB00001003000000030000000300001002F0055
:102AC00000002F0000002F0000002F0001002E004A
:102AD00000002E0000002E0001002D0000002D003F
:102AE00000002D0000002D0001002C0000002C0033
:102AF00000002C0000002C0001002B0000002B0027
:102B000000002B0000002B0001002A0000002A001A
:102B100000002A0000002A0001002900000029000E
:102B20000000290000002900000029000100280001
:102B300000002800000028000000280000002800F5
:102B400001002700000027000000270000002700E8
:102B500000002700010026000000260000002600DB
:102B600000002600000026000100250000002500CE
:102B700000002500000025000000250000002500C1
:102B800001002400000024000000240000002400B4
:102B900000002400010023000000230000002300A7
:102BA0000000230000002300000023000000230099
:102BB000010022000000220000002200000022008C
:102BC000000022000000220001002100000021007E
:102BD0000000210000002100000021000000210071
:102BE0000000210001002000000020000000200063
:102BF0000000200000002000000020000000200055
:102C00000000200001001F0000001F0000001F0046
:102C100000001F0000001F0000001F0000001F0038
:102C200001001E0000001E0000001E0000001E002B
:102C30000000043700001E290000511B000058103E
:102C4000000010090000CC040000780200004101DF
:102C500000006265640A002C2073797374656D202E
:102C600073746F7070656421204865617465725F6C
:102C700049443A20004265642068656174696E6762
:102C8000206661696C65640048656174696E6720DF
:102C90006661696C656400453120457272657572C4
:102CA00020646520636861756666650048656174C7
:102CB000696E67206661696C6564001000C9021066
:102CC000012C014001220170011801B0010E01F038
:102CD0000104015002FA00B002F0003003E600D017
:102CE00003DC009004D2007005C800A006BE0000FE
:102CF00008B400B009AA00D00BA000600E960060D6
:102D0000118C000015820020197800C01D6E00A0F3
:102D1000226400B0275A00902C500000314600E099
:102D2000343C0010383200903A2800603C1E00A06D
:102D30003D1400803E0A00203F000025753A2530F2
:102D4000327500253032753A2530327500257564AC
:102D500020253032753A25303275005A0059005816
:102D6000000920000000000000000000000000003A
:102D70003FFFF000000000000000000000000038ED
:102D8000007000000000000000000000000030FCA7
:102D90003000000000000000000000000020FC10D7
:102DA000000000000000000000000000207810007B
:102DB00000000000000000000000002030100000B3
:102DC000000000000000000000002C00D03FC00008
:102DD0000000000000002082002E31D07FE00000C3
:102DE00000000000001041002F7BD07FE0000000B9
:102DF000000000001041002F7BD07FE000000000A9
:102E00000000002082002E31D03FC00000000000F2
:102E100000004104002C00D03FC000000000000072
:102E2000008208002030107FE00000000000000059
:102E30008208002078107FE00000000000000041C0
:102E4000040020FC107FE000000000000000208251
:102E50000030FC301F800000000000000000000077
:102E60003800700F0000000000000000FFFFC03FAE
:102E7000FFF0060000000000000000FFFFC000009F
:102E8000000000000000000000000000003FFFF014
:102E9000000000000000000000000000380070008A
:102EA000000000000000000000000031863000003B
:102EB0000000000000000000000023871000000058
:102EC00000000000000000000027879000000000C4
:102ED00000000000000000002F87D000000000006C
:102EE000000000000000002F03D03FC000000000E1
:102EF0000000002082002030107FE0000000000071
:102F000000001041002078107FE000000000000069
:102F1000001041002078107FE00000000000000059
:102F20002082002030103FC000000000000000415F
:102F300004002F03D03FC000000000000000820802
:102F4000002F87D07FE00000000000000082080012
:102F50002787907FE000000000000000410400236C
:102F600087107FE000000000000000208200318612
:102F7000301F8000000000000000000000380070DA
:102F80000F0000000000000000FFFFC03FFFF00640
:102F90000000000000000000FFFFC000000000066D
:102FA0000900FE000000000001090008FE00000505
:102FB000080806000040F0C88888987810050808BE
:102FC000060000C0F88888888888F805050506008E
:102FD000012030F830200508080600002070F82095
:102FE000202020E00509090600FF2070A8A8B88865
:102FF0008870200509090600FFE080C0B0A82830CD
:1030000028280509090600FFF8A88888888888A864
:10301000F8050A0A0600FE205050505088A8A888DB
:103020007003030306000340A0406F70656E2066C6
:1030300061696C65642C2046696C653A20004361C7
:103040006E6E6F74206F70656E2073756264697246
:1030500020006563686F3A006C61737420534420EC
:10306000627974652061667465722070617573653C
:1030700020004E6F74205344207072696E74696E24
:10308000670A005344207072696E74696E6720622B
:1030900079746520004578747275646575720044B2
:1030A00065706C2E205A004465706C2E20590044C7
:1030B00065706C2E205800507265706172657200E8
:1030C000496E697469616C69736572204545505237
:1030D0004F4D00436F6E74726F6C657200496E697C
:1030E0007469616C6973657220454550524F4D009B
:1030F00053617576657220636F6E66696700424C36
:10310000546F7563680046696C616D656E74004D3F
:103110006F7576656D656E740054656D706572616E
:1031200074757265004D656E75207072696E6369A5
:1031300070616C004D3330332055312045256920B6
:10314000532569005265676C2E2070726563682E86
:1031500020414253005265676C2E2070726563688F
:103160002E20504C4100504944204175746F7475B5
:103170006E6500504944204175746F74756E65002A
:103180005049442D44005049442D44005049442D99
:1031900049005049442D49005049442D50005049A0
:1031A000442D5000566974657373652076656E749E
:1031B000696C2E00566974657373652076656E744C
:1031C000696C2E004C6974004C697400427573651B
:1031D000004275736500436F6E74726F6C657200A8
:1031E00053617576657220636F6E666967004C691E
:1031F00074004C6974004275736500427573650014
:10320000566974657373652076656E74696C2E00FB
:10321000566974657373652076656E74696C2E00EB
:1032200054656D70657261747572650000002100EF
:10323000240027002A002D00300033000101000087
:10324000040107010A0100002200250028002B00CC
:103250002E003100340002010000050108010B01BD
:10326000000020002300260029002C002F0032003F
:103270000001000003010601090105050505070518
:1032800008080808020202020A0A080804040404E2
:10329000010101010101010103030303030303030E
:1032A000040707070C0C0C0C0C0C0C0C020202029D
:1032B00006060606060606060B0B0B0B0B0B0B0B86
:1032C0000102102020080810204010204080020138
:1032D000020108040201010204081020408080401D
:1032E000201008040201800402018040201008041C
:1032F00002010804020101020408102040800102BA
:1033000004081020408000000A0B02090C0D0E0872
:10331000070304010000000000000000000000009E
:10332000000000000000000000000000000000009D
:10333000000012111000000000000000000000005A
:1033400000000000000000000000000020573A00CC
:103350004520436F6F6C696E672E2E2E0045204509
:103360006E20636861756666652E2E2E0020573AC2
:103370000042656420636F6F6C696E672E2E2E00AD
:103380004C697420656E20636861756666652E2ED3
:103390002E004D313133205300496D7072696D61DB
:1033A0006E74652041727265742E00205A3A0020B6
:1033B000593A0020436F756E7420583A0020453A00
:1033C00000205A3A0020593A00583A002C20002C8C
:1033D00020003A004361703A00544845524D414C38
:1033E0005F50524F54454354494F4E004155544F3E
:1033F0005245504F52545F53445F535441545553B8
:1034000000454D455247454E43595F504152534543
:103410005200434153455F4C494748545F4252492B
:103420004748544E45535300544F47474C455F4C13
:10343000494748545300534F4654574152455F50F3
:103440004F574552004255494C445F504552434501
:103450004E54004C4556454C494E475F44415441FB
:10346000005A5F50524F4245004155544F4C45560B
:10347000454C005052494E545F4A4F420050524F03
:103480004752455353004155544F5245504F5254A3
:103490005F54454D5000564F4C554D45545249438D
:1034A00000454550524F4D0053455249414C5F58DD
:1034B0004F4E5F584F4646004649524D5741524580
:1034C0005F4E414D453A4D61726C696E20544833F0
:1034D000442055312E52322E423320534F55524301
:1034E000455F434F44455F55524C3A2050524F542C
:1034F0004F434F4C5F56455253494F4E3A312E3051
:10350000204D414348494E455F545950453A496D15
:103510007072696D616E746520455854525544450A
:10352000525F434F554E543A3120555549443A0A5B
:103530000048617264636F64656420446566617508
:103540006C742053657474696E6773204C6F61648A
:1035500065640A00F4010000F4010000F4010000B9
:10356000881300000000FA430000FA430000704195
:10357000000048420000A0420000A0420000C843F2
:103580000080CF433A0A0020286D6D290020204D8D
:1035900036303320002055004C0046696C616D6563
:1035A0006E74206C6F61642F756E6C6F6164206C3B
:1035B000656E677468733A0A0020204D38353120F3
:1035C0005A005A2D50726F6265204F66667365749B
:1035D0000020440020490020204D3330342050008A
:1035E00020440020490020204D333031205000502D
:1035F00049442073657474696E67733A0A00204603
:103600000020420020480020204D31343520530056
:103610004D6174657269616C2068656174757020B4
:10362000706172616D65746572733A0A00205A00A8
:10363000204A0020204732392057204900205A00D4
:1036400020204D3432302053004175746F20426584
:1036500064204C6576656C696E673A0A00205A00F2
:1036600020590020204D323036205800486F6D65BB
:10367000206F66667365743A0A00204500205A0080
:1036800020590020580020540020530020204D32A3
:10369000303520510020453C6D61785F655F6A657B
:1036A000726B3E0020583C6D61785F785F6A65728E
:1036B0006B3E20593C6D61785F795F6A65726B3E45
:1036C000205A3C6D61785F7A5F6A65726B3E00419B
:1036D0006476616E6365643A20513C6D696E5F7318
:1036E00065676D656E745F74696D655F75733E20A7
:1036F000533C6D696E5F66656564726174653E20FA
:10370000543C6D696E5F74726176656C5F66656569
:1037100064726174653E0020540020520020204DE8
:10372000323034205000416363656C6572617469A6
:103730006F6E2028756E6974732F7332293A20508A
:103740003C7072696E745F616363656C3E20523CCD
:10375000726574726163745F616363656C3E20546B
:103760003C74726176656C5F616363656C3E0A00F0
:10377000204500205A0020590020204D32303120B1
:1037800058004D6178696D756D20416363656C65A6
:10379000726174696F6E2028756E6974732F73324D
:1037A000293A0A00204500205A0020590020204DC7
:1037B0003230332058004D6178696D756D20666533
:1037C000656472617465732028756E6974732F73F4
:1037D000293A0A00204500205A0020590020204D97
:1037E00039322058005374657073207065722075EB
:1037F0006E69743A0A0020204D3134392043203B51
:1038000020556E69747320696E2043656C73697509
:10381000730A002020473231202020203B00562010
:103820006465706C2E206D696E0056206465706C46
:103830002E206D696E0056206465706C2E206D69B7
:103840006E00566D696E2000566D696E2000566DD3
:10385000696E2000566D6178204500566D617820B4
:103860004500566D6178204500566D6178205A00FC
:10387000566D6178205A00566D6178205A00566D59
:103880006178205900566D6178205900566D617835
:10389000205900566D6178205800566D6178205887
:1038A00000566D61782058004D6F7576656D656EB8
:1038B0007400416D6178204500416D6178204500BC
:1038C000416D6178205A00416D6178205A00416D48
:1038D0006178205900416D6178205900416D61780F
:1038E000205800416D617820580041204465706C7B
:1038F0002E0041204465706C2E0041207265747268
:103900006169740041207265747261697400416379
:1039100063656C65726174696F6E00416363656CA9
:1039200065726174696F6E004D6F7576656D656E59
:10393000740000000000300E0100C00E0A00500F9D
:103940001400D00F1E0060102800E010320070112B
:103950003C00F01146007012500000135A00801312
:10396000640000146E009014780010158200901509
:103970008C00101696009016A0001017AA00901741
:10398000B4001018BE009018C8001019D200901989
:10399000DC00101AE600801AF000001BFA00801B01
:1039A0000401F01B0E01701C1801F01C2201601DA7
:1039B0002C01E01D3601501E4001D01E4A01401F5F
:1039C0005401B01F5E0130206801A0207201102157
:1039D0007C0190218601002290016026F401902A4A
:1039E0005802802EBC0250322003E0358403503947
:1039F000E803803C4C04453120454D42414C4C4548
:103A00004D454E5420544845524D2E0042454420C9
:103A1000544845524D414C2052554E415741590052
:103A2000546865726D616C2052756E6177617900C2
:103A30004531204572723A2054454D502E204D415B
:103A400058004572723A2054454D502E204D415831
:103A5000204C4954004D415854454D5020747269D2
:103A6000676765726564004531204572723A20547B
:103A7000454D502E204D494E004572723A20544516
:103A80004D502E204D494E204C4954004D494E5426
:103A9000454D5020747269676765726564004D38E2
:103AA0003420582059204500202F002042403A0061
:103AB00020403A004F726967696E6520257325734F
:103AC0002573205072656D69657200205072656DB6
:103AD0006965720A005A00590058004F7269676997
:103AE0006E65200057726974696E6720746F206676
:103AF000696C653A20006F70656E206661696C655F
:103B0000642C2046696C653A20006F70656E2066F3
:103B100061696C65642C2046696C653A20004669D1
:103B20006C652073656C65637465640A0020536975
:103B30007A653A200046696C65206F70656E656431
:103B40003A20002066696C653A2000646F696E67F0
:103B5000006672657368004E6F772000454E442002
:103B6000535542524F5554494E450A002220706F1A
:103B700073002220706172656E743A2200535542C0
:103B8000524F5554494E452043414C4C207461726C
:103B90006765743A22004D4F52542E007472796951
:103BA0006E6720746F2063616C6C207375622D6783
:103BB000636F64652066696C65732077697468203B
:103BC000746F6F206D616E79206C6576656C732EF5
:103BD000204D4158206C6576656C2069733A00452C
:103BE00072726F723A004D343238004D32383020E4
:103BF00050302053313630004175746F74657374E2
:103C000020424C546F756368004D3238302050307C
:103C100020533132300050726563686175666661A9
:103C2000676520414253005072656368617566663E
:103C300061676520504C4100526566726F69646926
:103C4000720052615A20424C546F75636800436899
:103C5000616E6765722066696C616D656E740041A6
:103C6000727265746572206D6F7465757273004D44
:103C70003834005265676C2E20646563616C2E20B9
:103C80006F726967696E6500486175746575722049
:103C90006C69737365650048617574657572206C35
:103CA0006973736565004172726574004D6172637A
:103CB0006865005265676C2E204E69762E206C690F
:103CC00074005265676C2E204E69762E206C6974E4
:103CD000004732380A4732390052756E204D343869
:103CE0002054657374004732380A4D3438205031FF
:103CF00030004F726967696E65205A204175746F94
:103D00002E00473238205A004F726967696E65206D
:103D100059204175746F2E004732382059004F7278
:103D20006967696E652058204175746F2E004732AF
:103D3000382058004F726967696E65206175746F2D
:103D40002E00473238004465706C616365722075DF
:103D50006E20617865004D656E75207072696E63C6
:103D60006970616C004465706C2E20580044657069
:103D70006C2E2059004465706C2E205A00457874D2
:103D8000727564657572004465706C2E20302E313A
:103D90006D6D004465706C2E20316D6D0044657052
:103DA0006C2E2031306D6D004465706C61636572FE
:103DB00020756E206178650045787472756465754C
:103DC00072004465706C2E205A004465706C2E2081
:103DD00059004465706C2E205800526573656E64FE
:103DE0003A20004563686563206F726967696E6594
:103DF00000545249474745524544006F70656E0074
:103E00003A200066696C616D656E74007A5F6D6959
:103E10006E00795F6D696E00785F6D696E00526546
:103E2000706F7274696E6720656E6473746F702052
:103E30007374617475730A00496D7072696D616E97
:103E400074652070726574652E005072696E7469B5
:103E50006E672E2E2E00496D70722E20656E2070BA
:103E6000617573650052616E67657220424C546FD4
:103E7000756368004465706C6F79657220424C54BC
:103E80006F756368004175746F7465737420424C7C
:103E9000546F7563680052615A20424C546F7563C9
:103EA0006800436D643A2053572D4D6F6465004D93
:103EB000656E75207072696E636970616C0043682D
:103EC000616E6765722066696C616D656E74004431
:103ED00065636861726765722066696C2E0043686D
:103EE00061726765722066696C2E00507265636846
:103EF0006175666661676520414253005072656373
:103F0000686175666661676520504C410043686171
:103F10006E6765722066696C616D656E7400CA00BB
:103F2000CC0011241FBECFEFD1E2DEBFCDBF00E039
:103F30000CBF13E0A0E0B2E0E6E5F8E602E00BBF5C
:103F400002C007900D92AA39B107D9F729E1AAE971
:103F5000B3E001C01D92A339B207E1F71FE1C0E948
:103F6000DFE100E006C021970109802FFE010F94D8
:103F70008F33CF38D10780E00807A9F70F94F31BE0
:103F80000D941A340C9400002F923F924F925F923E
:103F90006F927F928F929F92AF92BF92CF92DF9259
:103FA000EF92FF920F931F93CF93DF93CDB7DEB7BE
:103FB000CB57D1090FB6F894DEBF0FBECDBF2DB7DA
:103FC0003EB7E1963FAF2EAFE19721E02093F30992
:103FD0008091FC188D3411F40C94C92A843511F4A5
:103FE0000C94283B873411F00C94743B8091FA18A0
:103FF0009091FB188C31910509F478C69CF48430BB
:1040000091053CF482309105C4F597FF2FC00C94C4
:10401000C52A8430910509F402C64B9709F43EC6BF
:104020000C94C52A8A32910511F40C943A295CF457
:104030008D31910511F40C945D284E9711F40C9478
:1040400061280C94C52A8B35910511F40C94162A1D
:104050008C35910511F40C941A2A8A35910511F0CA
:104060000C94C52A1092AA030C94763B80913902D5
:1040700081110C947B3B0C94763B209139022223D6
:1040800011F40C94763B11E0029709F010E00E94C5
:104090008A6882E50E942946882309F45DC10E944E
:1040A000AF456B017C018091060A9091070AA091AF
:1040B000080AB091090A8AAB9BABACABBDAB409090
:1040C0000A0A50900B0A60900C0A70900D0A209119
:1040D000C7093091C8094091C9095091CA092EAB4E
:1040E0003FAB48AF59AF8091CB099091CC09A091DB
:1040F000CD09B091CE098AAF9BAFACAFBDAF20E088
:1041000030E0A901C701B6010F94F129882309F411
:104110006CC52AA93BA94CA95DA96EA97FA988AD48
:1041200099AD0F94F12981110BC0A30192016AADE1
:104130007BAD8CAD9DAD0F94F129882309F455C555
:1041400020E030E0A901C701B6010F94F129881FD2
:104150008827881F18130BC020E030E040E85FE399
:104160002E962CAF3DAF4EAF5FAF2E970AC080E0CA
:1041700090E0A0E8BFEB2E968CAF9DAFAEAFBFAF87
:104180002E972AA93BA94CA95DA96EA97FA988AD44
:1041900099AD0F948E3022966CAF7DAF8EAF9FAFEE
:1041A0002297A30192016AAD7BAD8CAD9DAD0F94BA
:1041B0008E3026966CAF7DAF8EAF9FAF269722963E
:1041C0002CAD3DAD4EAD5FAD2297CA01B9010F9444
:1041D000562A4B015C0126962CAD3DAD4EAD5FAD30
:1041E0002697CA01B9010F94562A9B01AC01C5015B
:1041F000B4010F948F300F94FB322A966CAF7DAFD1
:104200008EAF9FAF2A9720E030E040E05FE30F944D
:10421000562A4B015C019B01AC01C701B6010F940A
:104220008E306A966CAF7DAF8EAF9FAF6A97A50157
:104230009401C701B6010F948F309B01AC016A96BF
:104240006CAD7DAD8EAD9FAD6A970F94562A6B0114
:104250007C0120E030E0A9010F94B53287FD07C052
:10426000C701B6010F94FB329B01AC0103C020E0F3
:1042700030E0A9012E966CAD7DAD8EAD9FAD2E9731
:104280000F94562A4B015C012EA93FA948AD59ADA8
:104290006AA97BA98CA99DA90F948F3020E030E0FA
:1042A00040E05FE30F94562A6B017C0126966CADCB
:1042B0007DAD8EAD9FAD269790582A962CAD3DAD25
:1042C0004EAD5FAD2A970F946B319B01AC01C501D8
:1042D000B4010F94562A9B01AC01C701B6010F949B
:1042E0008F302AA93BA94CA95DA90F948E306B0190
:1042F0007C012AAD3BAD4CAD5DADC301B2010F9465
:104300008F3020E030E040E05FE30F94562A6AAB44
:104310007BAB8CAB9DAB2A962CAD3DAD4EAD5FAD6E
:104320002A9722966CAD7DAD8EAD9FAD22970F94EE
:104330006B319B01AC01C501B4010F94562A9B015E
:10434000AC016AA97BA98CA99DA90F948F30A30108
:1043500092010F948E3014C089E40E94294688236C
:1043600029F00E94AF456B017C0103C0C12CD12C08
:1043700076018AE40E9429468823D9F00E94AF453D
:104380006AAF7BAF8CAF9DAF20E030E0A901C701E1
:10439000B6010F94F12981111AC020E030E0A90183
:1043A0006AAD7BAD8CAD9DAD0F94F12981110FC02D
:1043B0001CC420E030E0A901C701B6010F94F12927
:1043C000882309F412C41AAE1BAE1CAE1DAEA701A1
:1043D000960150582AAB3BAB4CAB5DAB8AAD9BAD65
:1043E000ACADBDADB0588EAB9FABA8AFB9AFCA01F5
:1043F000B9010F94562A4B015C012EA93FA948AD83
:1044000059ADCA01B9010F94562A9B01AC01C501EF
:10441000B4010F948F300F94FB32A2966CAF7DAF36
:104420008EAF9FAFA2972091060A3091070A409164
:10443000080A5091090A22962CAF3DAF4EAF5FAFEC
:104440002297A701960122966CAD7DAD8EAD9FADF2
:1044500022970F948F302E966CAF7DAF8EAF9FAFAB
:104460002E9780910A0A90910B0AA0910C0AB091A4
:104470000D0A26968CAF9DAFAEAFBFAF26972AAD83
:104480003BAD4CAD5DADBC01CD010F948F306A9654
:104490006CAF7DAF8EAF9FAF6A972091C709309107
:1044A000C8094091C9095091CA092A962CAF3DAF5D
:1044B0004EAF5FAF2A972E962CAD3DAD4EAD5FADA2
:1044C0002E972A966CAD7DAD8EAD9FAD2A970F9439
:1044D0008E306B017C018091CB099091CC09A09129
:1044E000CD09B091CE0962968CAF9DAFAEAFBFAF94
:1044F00062976A962CAD3DAD4EAD5FAD6A97BC013B
:10450000CD010F948E304B015C0120910E0A309149
:104510000F0A4091100A5091110A66962CAF3DAFD8
:104520004EAF5FAF66976091CF097091D0098091CF
:10453000D1099091D2090F948E302B013C018091CA
:10454000D3099091D409A091D509B091D609A69626
:104550008CAF9DAFAEAFBFAFA6972091120A30913E
:10456000130A4091140A5091150A6E962CAF3DAF74
:104570004EAF5FAF6E97A70196016AA97BA98CA980
:104580009DA90F94562AAA966CAF7DAF8EAF9FAFB0
:10459000AA97A50194016EA97FA988AD99AD0F9442
:1045A000562A9B01AC01AA966CAD7DAD8EAD9FAD38
:1045B000AA970F948F30AA966CAF7DAF8EAF9FAF46
:1045C000AA97A50194016AA97BA98CA99DA90F941A
:1045D000562A4B015C01A70196016EA97FA988ADFF
:1045E00099AD0F94562A9B01AC01C501B4010F94FB
:1045F0008E30AA962CAD3DAD4EAD5FADAA970F940F
:1046000002316B017C0120E030E0A9010F94F12917
:1046100087FF0AC02BED3FE049EC50E4C701B6012B
:104620000F948F306B017C01112351F02BED3FE093
:1046300049EC50E4C701B6010F948E306B017C0148
:1046400020E030E0A901C701B6010F94F1298111E2
:1046500028C02A962CAD3DAD4EAD5FAD2A9722966F
:104660006CAD7DAD8EAD9FAD22970F94F129811178
:1046700018C062962CAD3DAD4EAD5FAD62972696EB
:104680006CAD7DAD8EAD9FAD26970F94F129811154
:1046900008C01BEDC12E1FE0D12E19ECE12E10E455
:1046A000F12EA7019601A2966CAD7DAD8EAD9FADAA
:1046B000A2970F94562A4B015C0120E030E0A9013B
:1046C000C301B2010F94F1298823C9F0A501940117
:1046D000C501B4010F94562A4B015C01A30192015C
:1046E000C301B2010F94562A9B01AC01C501B4016C
:1046F0000F948F300F94FB324B015C010DC020E012
:1047000030E0A901C501B4010F94B53287FF04C0A0
:10471000B7FAB094B7F8B0942FE632E143E85AE321
:10472000C501B4010F94F12987FF02C00C94763BB8
:10473000C501B4010F9404320F94D8311B01672BCB
:1047400019F422242394312CB10180E090E00F94DD
:10475000F5294B015C019B01AC01C701B6010F9427
:104760006B3122966CAF7DAF8EAF9FAF2297A501C4
:104770009401C301B2010F946B31A2966CAF7DAF6F
:104780008EAF9FAFA2976E962CAD3DAD4EAD5FAD97
:104790006E97A6966CAD7DAD8EAD9FADA6970F942E
:1047A0008E30A50194010F946B31A6966CAF7DAF4E
:1047B0008EAF9FAFA69722962CAD3DAD4EAD5FADAF
:1047C0002297CA01B9010F94562A20E030E040E058
:1047D0005FE30F94562A9B01AC0160E070E080E833
:1047E0009FE30F948E3062966CAF7DAF8EAF9FAF1C
:1047F000629766968CAD9DADAEADBFAD669789876D
:104800009A87AB87BC876E962CAD3DAD4EAD5FAD44
:104810006E972D873E874F87588B6091100270915D
:104820001102072E000C880B990B0F94F729209189
:104830001C0230911D0240911E0250911F020F94E4
:10484000562A2AE037ED43E25CE30F94562A6AA722
:104850007BA78CA79DA70E9413E39B01AC01285363
:104860003F4F4F4F5F4F66962CAF3DAF4EAF5FAFA0
:1048700066974AA85BA86CA87DA841E050E02896FE
:104880005FAF4EAF289759E123965FAF23972896E5
:104890002EAD3FAD28972215330509F44BC10E9478
:1048A000E1C50E9413E3DC01CB0166962CAD3DAD62
:1048B0004EAD5FAD6697821B930BA40BB50BB7FD96
:1048C00011C00E9413E39B01AC0128533F4F4F4F8F
:1048D0005F4F66962CAF3DAF4EAF5FAF669780E0FF
:1048E0000E94989A23963FAD2397315023963FAF6D
:1048F0002397332309F445C062962CAD3DAD4EADF0
:104900005FAD62976EA97FA988AD99AD0F94562AC5
:104910006B017C0122962CAD3DAD4EAD5FAD229773
:10492000B201C3010F94562AA70196010F948F304C
:104930007B018C0162962CAD3DAD4EAD5FAD6297B3
:10494000B201C3010F94562A4B015C0122962CAD93
:104950003DAD4EAD5FAD22976EA97FA988AD99ADF3
:104960000F94562A9B01AC01C501B4010F948E30FF
:104970002B013C01C701D8018EAB9FABA8AFB9AFEB
:1049800057C028964EAD5FAD2897BA0180E090E001
:104990000F94F52922962CAD3DAD4EAD5FAD22971B
:1049A0000F94562A4B015C010F9468316B017C0116
:1049B000C501B4010F94F1324B015C01A7019601CE
:1049C0006AA97BA98CA99DA90F94562A2B013C01A9
:1049D000A50194016AAD7BAD8CAD9DAD0F94562AB7
:1049E0009B01AC01C301B2010F948F302B013C013C
:1049F000A50194016AA97BA98CA99DA90F94562AA7
:104A00004B015C01A70196016AAD7BAD8CAD9DADFC
:104A10000F94562A9B01AC01C501B4010F948E304E
:104A20006EAB7FAB88AF99AF59E123965FAF239709
:104A30009201A3012E966CAD7DAD8EAD9FAD2E97EC
:104A40000F948F3069837A838B839C832EA93FA92F
:104A500048AD59AD6A966CAD7DAD8EAD9FAD6A9790
:104A60000F948F306D837E838F839887A2962CADB1
:104A70003DAD4EAD5FADA29769857A858B859C85EE
:104A80000F948F3069877A878B879C87A6962CAD89
:104A90003DAD4EAD5FADA6976D857E858F859889BE
:104AA0000F948F306D877E878F87988B80915A0205
:104AB000882321F0CE0101960E94C962E090F4099A
:104AC0001AA21BA21CA21DA289819A81AB81BC8162
:104AD0008E8B9F8BA88FB98F8D819E81AF81B8857A
:104AE0008A8F9B8FAC8FBD8F89859A85AB85BC855E
:104AF0008E8F9F8FA8A3B9A3AE01425E5F4FBE0108
:104B0000665E7F4FCE0146960E9416BBCE0182960E
:104B10006C018E01065D1F4F9E01235F3F4FAE016A
:104B2000425E5F4FBE01665E7F4F0C970E94D5AC20
:104B3000811151C0E090F4091EA21FA218A619A667
:104B40008091C7099091C809A091C909B091CA097B
:104B50008E8B9F8BA88FB98F8091CB099091CC09B8
:104B6000A091CD09B091CE098A8F9B8FAC8FBD8F5C
:104B70008091CF099091D009A091D109B091D2092B
:104B80008E8F9F8FA8A3B9A3AE01425E5F4FBE0177
:104B9000665E7F4FCE0146960E9416BBDE0196965A
:104BA0006D018E01065D1F4F23ED39E0AE01425EBF
:104BB0005F4FBE01665E7F4FCE0146960E94D5AC28
:104BC00080E1E7ECF9E0A6E0BAE001900D928A9569
:104BD000E1F70C94763B2896EEADFFAD2897319621
:104BE0002896FFAFEEAF289752CEEFEDFBE384910E
:104BF0008F010F5F1F4F882321F00E94C646F801E6
:104C0000F6CFEFE1F3E084918F010F5F1F4F882310
:104C100011F40C94763B0E94C646F801F4CF80E56F
:104C20000E942946882329F00E946F456B017C0170
:104C300003C0C12CD12C760183E50E94294688232C
:104C400061F00E94AF4520E030E04AE754E40F9461
:104C5000562A0F94D8316B017C010E948FBA809143
:104C60008E13811105C060E085E393E00E947A9481
:104C70000E9413E3C60ED71EE81EF91E0E9413E31E
:104C8000DC01CB018C199D09AE09BF09B7FD02C03B
:104C90000C94763B80E00E94989AF0CF0F94B50573
:104CA00081110C94763B80E090E0A0E2B1E489832E
:104CB0009A83AB83BC838D839E83AF83B8878987B8
:104CC0009A87AB87BC8780E50E942946882319F024
:104CD0000E947F4501C060E06E8BBE016F5F7F4F19
:104CE000CE0146960F942B160C94763B8091F509D5
:104CF0008770873071F48FE40E942946882319F069
:104D00000E94A04503C08FE40E94E24581110C94EB
:104D1000763B0E948FBA80E00E94274484EF91E0A6
:104D2000A0E0B0E089839A83AB83BC83BE016F5F50
:104D30007F4F80EA0E947D400E949D400E94074173
:104D400011E010935C0488E50E94E245382E89E565
:104D50000E94E245082F8AE50E94E2458AAF3110A1
:104D600005C0011105C0282E212605C0011102C071
:104D7000212C01C02AAC0E94B24682E50E9429463D
:104D8000882399F10E94AF456B017C0120E030E05F
:104D9000A9010F94F129882341F1211005C0311098
:104DA00003C0002309F418C1C092CF09D092D009E2
:104DB000E092D109F092D20920910E0A30910F0AA7
:104DC0004091100A5091110AC701B6010F94B532F3
:104DD00018165CF419821A821B821C82BE016F5F56
:104DE0007F4F8FEC99E00E94244221100DC03110BA
:104DF00003C00111ECC0F0C0011106C080E00E94A8
:104E000070982220B1F3E3C010920A0A10920B0AA4
:104E100010920C0A10920D0A1092060A1092070ABC
:104E20001092080A1092090A0E94E043E1E3FFE1B0
:104E3000349127963FAF2797E5E2FFE18590959063
:104E4000A590B490E9E2FFE1C590D590E590F4908B
:104E5000A7019601C501B4010F94B53218162CF4C0
:104E6000A5019401C701B60104C0A7019601C501BF
:104E7000B4010F946B312B013C01E8EEFEE185910A
:104E80009591A591B4918AAB9BABACABBDABE4EE75
:104E9000FEE125913591459154912EAB3FAB48AF42
:104EA00059AF9C01AD016EA97FA988AD99AD0F9452
:104EB000F12987FD0AC01AA93BA93EAF4CA9239648
:104EC0004FAF23975DA95AAB09C01EA98FA98EAF1A
:104ED00098AD23969FAF2397A9ADAAABA3019201EA
:104EE000C301B2010F94562A20E030E040E85FE3AE
:104EF0000F948F300F94FB329B01AC01612F7EAD7C
:104F000023968FAD23979AA90F94562A6AA37BA361
:104F10008CA39DA3E2E3FFE1149120E030E040EC9C
:104F20005FE3C701B6010F94562A6B017C01612F24
:104F3000110F770B880B990B0F94F7299B01AC018C
:104F4000C701B6010F94562A69837A838B839C83A9
:104F500020E030E040EC5FE3C501B4010F94562A35
:104F60006B017C012796BFAD27976B2FBB0F770B8B
:104F7000880B990B0F94F7299B01AC01C701B6016F
:104F80000F94562A6E8B7F8B888F998FAE014E5D62
:104F90005F4FBE016F5F7F4FCE0146960E94034276
:104FA0000F94711710920A0A10920B0A10920C0AB1
:104FB00010920D0A1092060A1092070A1092080A1F
:104FC0001092090A21101ACF311018CF12CF81E0A8
:104FD0000E947098211004C0EAADEE2309F45EC06F
:104FE0008091F50983708330E9F060E083E593E018
:104FF0000E947A94E2E5F0E384918F010F5F1F4FE6
:10500000882321F00E94C646F801F6CFEFE3F3E0D3
:1050100084918F010F5F1F4F8823F1F10E94C646D4
:10502000F801F6CF0E94E04380910E0A90910F0A9A
:10503000A091100AB091110A8093CF099093D009E2
:10504000A093D109B093D20980E090E0ADE2B3E43F
:105050008093C7099093C809A093C909B093CA095E
:1050600080E090E0AFE2B3E48093CB099093CC0969
:10507000A093CD09B093CE0919821A821B821C829B
:10508000AE014F5F5F4F6BEC79E087EC99E00E94D7
:10509000034282E00E9470980E9442680E94E043AE
:1050A00080915B0480935C040E94EE4083E08093D7
:1050B0004D020E948EE80C94763B0E94D36A0C94B9
:1050C000763BC090060AD090070AE090080AF0905C
:1050D000090A88E50E942946811109C020E030E0D4
:1050E00048EB51E4C701B6010F948E3002C00E9414
:1050F000AF456E8B7F8B888F998FC0900A0AD090B6
:105100000B0AE0900C0AF0900D0A89E50E942946EE
:10511000811109C020E030E048EC51E4C701B6013C
:105120000F948E3002C00E94AF459B01AC01698391
:105130007A838B839C836E897F89888D998D0E9469
:105140009499882311F40C94763B80E00E942744C4
:105150000E94074185E40E942946882321F00E948D
:10516000A045182F04C085E40E94E24511E086E5C1
:105170000E942946882321F00E947F45262F01C0E6
:1051800021E0412FBE016F5F7F4FCE0146960E9406
:105190008A866B017C019B01AC010F943D33811128
:1051A0005FC08E889F88A88CB98C20E030E0A90170
:1051B000C501B4010F94F12987FD05C027E137EB44
:1051C00041E558E304C027E137EB41E558EBC50161
:1051D000B4010F948F30AB01BC0180E793E00F94D2
:1051E000E00E89809A80AB80BC8020E030E0A9018D
:1051F000C501B4010F94F12987FD05C027E137EB04
:1052000041E558E304C027E137EB41E558EBC50120
:10521000B4010F948F30AB01BC018BE693E00F9487
:10522000E00E20E030E0A901C701B6010F94F1299A
:1052300087FD05C027E137EB41E558E304C027E1CE
:1052400037EB41E558EBC701B6010F948F30AB0146
:10525000BC0186E693E00F94E00E8AE00E94C64609
:105260000E94EE40113011F40E9442680E948EE8C4
:105270000C94763B80913902882311F40C94763B90
:1052800089E40E942946182F882321F00E947F4537
:10529000E62E01C0E12C8AE40E942946082F8823CB
:1052A00031F00E947F45F62E111104C00BC0F12C85
:1052B0001123C1F0F4E0FE1510F00C94163CE8E761
:1052C000F3E004C024E02F15D0F30CC084918F01CB
:1052D0000F5F1F4F882311F40C94763B0E94C64643
:1052E000F801F4CF0E94B2461123F1F02091D813B7
:1052F0003091D9134E2D4203B001439F700D1124FC
:105300008091350490913604680F791F072E000CA8
:10531000880B990B0F94F7296093C7097093C809FC
:105320008093C9099093CA090023F1F02091DA1300
:105330003091DB135F2D5203B001539F700D112488
:105340002091370430913804620F731F072E000C30
:10535000880B990B0F94F7296093CB097093CC09B4
:105360008093CD099093CE0980E50E942946882339
:10537000E9F00E94A0458823A9F11123D9F020E08B
:1053800030E048EB51E46091C7097091C809809101
:10539000C9099091CA090F948F306093C70970931F
:1053A000C8098093C9099093CA0904C080E50E9486
:1053B000E245E1CF0023B1F020E030E048EC51E4D9
:1053C0006091CB097091CC098091CD099091CE0963
:1053D0000F948F306093CB097093CC098093CD09E3
:1053E0009093CE0986E40E9429468823D9F00E9432
:1053F000AF456B017C0120E030E0A9010F94B5328C
:10540000181684F420E030E040E752E4C701B6010A
:105410000F946B3160931C0270931D0280931E02E7
:1054200090931F020E94299D0C94763B2093AA031F
:105430000C94763B88E40E942946882381F00E94E0
:10544000A045882361F182E00E941F4388E40E9406
:105450002946811108C060E070E0CB0106C088E4F5
:105460000E94E245EECF0E94AF4560930E0A709312
:105470000F0A8093100A9093110A0E94E0438091D2
:105480000E0A90910F0AA091100AB091110A809310
:10549000CF099093D009A093D109B093D209F0E637
:1054A0002F2EF2E03F2EAAE9CA2EA3E0DA2EE12C3D
:1054B000F12C00E010E0D1018D911D010E942946E0
:1054C000882309F44EC00E94AF452B013C011330E4
:1054D00059F0F701EA50F64F208131814281538122
:1054E0000F948E302B013C01F701EA5FF54F2081CC
:1054F000318142815381C301B2010F948E304B013F
:105500005C012DEB37E346E855EB0F94B53287FD90
:105510000AC02DEB37E346E855E3C501B4010F940B
:10552000F1291816F4F4133051F44092120A5092F3
:10553000130A6092140A7092150A01E012C0A501C4
:105540009401F60160817181828193810F948F3083
:10555000D6016D937D938D939C931397812F0E9419
:10556000DF421F5FB4E0CB0ED11CE4E0EE0EF11C75
:10557000143009F0A0CF002321F082E19AE00F94CB
:10558000DA060E948EE80C94763B0E94D08A0C9436
:10559000763B8091FA189091FB188837910511F4A9
:1055A0000C943E340CF001C18D34910509F4C2C74E
:1055B0000CF07AC08A31910509F458C20CF041C050
:1055C0008431910509F442C29CF48131910509F4BA
:1055D0002DC244F4029710F00C94253B0E94B6674C
:1055E0000C94763B429711F40C94D7330C94253BE2
:1055F0008731910509F432C274F48531910509F4BB
:1056000029C2469711F00C94253B1092930C1092EE
:10561000940C0C94763B8831910509F423C2499788
:1056200011F00C94253B1092930C0E9499C788EAC4
:1056300093E09093BD098093BC090E9481430C9430
:10564000763B8F31910509F4BDC29CF48C319105F4
:1056500009F45FC20CF418C28D31910511F40C9459
:10566000763B4E9711F00C94253B0E9461630C949D
:10567000763B8934910509F44CC74CF4803291058E
:1056800009F451C2C09709F460C30C94253B8B34D4
:10569000910509F44BC78C34910511F00C94253B0E
:1056A0000E9499C70C94763B8C36910511F40C94AA
:1056B0005D330CF03FC08535910511F40C94DA335D
:1056C000DCF48235910511F40C94D0334CF481351F
:1056D000910511F00C94253B0E94A9EA0C94763BAD
:1056E0008335910511F40C94D3338435910511F46D
:1056F0000C94D7330C94253B8936910509F4E9C7FE
:105700005CF48C35910511F40C94DD3388369105E9
:1057100009F414C70C94253B8A36910511F40C94B6
:10572000CA338B36910511F00C94253B0E9473EE21
:105730000C94763B8137910509F4C7C7A4F48E36E3
:10574000910509F436C714F40C94A9338F369105EA
:1057500009F442C78037910511F00C94253B87E38B
:1057600095E00E94379A8537910511F40C94E33344
:1057700074F48237910511F40C94E033833791056A
:1057800011F00C94253B0E943FE80C94763B863741
:10579000910511F40C94F2338737910511F00C94B4
:1057A000253B0F9440170C94763B8033F1E09F0724
:1057B00011F40C9432380CF094C08E3C910511F425
:1057C0000C94E5350CF046C08B39910509F49CC763
:1057D000DCF48D37910509F4E0C75CF48937910555
:1057E00011F00C94253B10925C0410925B040C9415
:1057F000763B8C38910509F4AFC78139910511F4D6
:105800000C9443340C94253B8B3C910511F40C947F
:10581000D334A4F48E3B910509F4B9C7893C9105B2
:1058200011F00C94253BBBE1EB2EB1E1FB2E00E621
:1058300012E084E0D82ED00E0C94BA348C3C910542
:1058400011F40C94F1348D3C910511F40C946635EF
:105850000C94253B883131E0930711F40C94D33735
:10586000ECF48C3D910511F40C94C3374CF4833D5A
:10587000910511F00C94253BE2E5F0E30C94E5363C
:105880008D3D910511F40C94D037823E910511F0B5
:105890000C94253B0E94F67B0C94763B8D3251E0B4
:1058A000950711F40C940A386CF48232B1E09B072E
:1058B00011F40C94D6378C32914011F40C94E137EA
:1058C0000C94253B8E32F1E09F0711F40C942F3895
:1058D0008F32914011F00C94253B0E9404750C947A
:1058E000763B863F31E0930711F40C94BE380CF000
:1058F0004FC08A3951E0950709F4E3C624F5803991
:10590000B1E09B0711F40C94AF384CF4833691400E
:1059100011F00C94253B0E948A6F0C94763B8139E0
:1059200021E0920711F40C94B2388239914011F0C1
:105930000C94253B80E00E9442420E9442680E94F3
:105940008EE80C94763B8C3A41E0940711F40C9469
:1059500008367CF4843AA1E09A0711F40C94B83824
:10596000853A914011F00C94253B0E9460720C9492
:10597000763B843FE1E09E0711F40C94BB38853FF1
:10598000914011F00C94253B0E94B0F80C94763BAA
:105990008D3B22E0920711F40C941F3B1CF58C30D8
:1059A00042E0940711F40C94C4387CF4873FA1E0E2
:1059B0009A0711F40C94C138883F914011F00C946F
:1059C000253B0E9431720C94763B8835E2E09E07BD
:1059D00011F40C94CD388B35924011F40C94963A16
:1059E0000C94253B8B3823E0920711F40C94763B02
:1059F0007CF48E3B42E0940711F40C94223B8335F7
:105A0000934011F00C94253B0E94BF710C94763B9F
:105A1000803AA3E09A0709F4C8C0873E934011F08A
:105A20000C94253B0E94756F0C94763B60E087E9EF
:105A300093E00E947A945F988A988091080181701F
:105A400080930601479812980C94763B0E946164FB
:105A50000C94763B0E9445850C94763B0E944D64E5
:105A60000C94763B0E9412640C94763B8091940CCB
:105A7000882311F40C94763B83E50E94294681111A
:105A80000C94803B0C94763B83E40E94E24588238F
:105A900089F1E7EBF3E084918F010F5F1F4F8823BB
:105AA00021F00E94C646F801F6CF8091B00E8823FF
:105AB00091F0BE016F5F7F4F8DEA9EE00E94D55A44
:105AC0008E010F5F1F4FF80181918F01882379F0BC
:105AD0000E94C646F8CFEDEAF3E084918F010F5F94
