:100000000C946C1F0C949D1F0C949D1F0C949D1FB1
:100010000C949D1F0C949D1F0C949D1F0C949D1F70
:100020000C949D1F0C949D1F0C949D1F0C949D1F60
:100030000C949D1F0C94846D0C949D1F0C949D1F1B
:100040000C949D1F0C948E900C949D1F0C949D1FDE
:100050000C949D1F0C949D1F0D94E3060C9440CDB1
:100060000C949D1F0C94B94A0C949D1F0C949D1FD9
:100070000C949D1F0C949D1F0C949D1F0C949D1F10
:100080000D94420F0C949D1F0C949D1F0C949D1F6A
:100090000C949D1F0C949D1F0C949D1F0C949D1FF0
:1000A0000C949D1F0C949D1F0D94150F0C949D1F77
:1000B0000C949D1F0C949D1F0C949D1F0D94E80E95
:1000C0000C949D1F0C949D1F0C949D1F0C949D1FC0
:1000D0000C949D1F0C949D1F0C949D1F0C949D1FB0
:1000E0000C949D1FEC4AF24A034B0E4B164B2B4BC4
:1000F0001A4B2B4B1E4B224B2B4B284BCE50D35025
:10010000D850E250EC506551F650FE500651105157
:100110001A51245133513D516551475151515B5151
:10012000ACAA92AA95AA98AA9BAAA7AA9EAAB7AA7D
:10013000A1AAA4AA81CB84CB73CB77CB7DCBBBCB3D
:1001400088CB8CCB92CB96CB9ACBA0CBA4CBA8CB95
:10015000BBCBAECBB2CBB6CB084AD73B3BCE016EC6
:1001600084BCBFFDC12F3D6C74319ABD56833DDA0E
:100170003D00C77F11BED9E4BB4C3E916BAAAABE1D
:10018000000000803F05A84CCDB2D44EB93836A946
:10019000020C50B9918688083CA6AAAA2ABE000083
:1001A00000803F000D94BC1B0D9449164E414E49F2
:1001B0004E495459494E46CDCCCC3D0AD7233C1725
:1001C000B7D13877CC2B329595E6241FB14F0A0072
:1001D0000020410000C84200401C4620BCBE4CCA62
:1001E0001B0E5AAEC59D7400407A10F35A00A072DF
:1001F0004E18090010A5D4E80000E8764817000062
:10020000E40B54020000CA9A3B000000E1F505002F
:100210000080969800000040420F000000A0860178
:10022000000000102700000000E803000000006448
:1002300000000000000A00000000000100000000B3
:10024000002C76D888DC674F0823DFC1DFAE59E188
:10025000B1B796E5E3E453C63AE651997696E8E6F7
:10026000C28426EB898C9B62ED407C6FFCEFBC9CCA
:100270009F40F2BAA56FA5F490055A2AF75C936BDC
:100280006CF9676DC11BFCE0E40D47FEF520E6B597
:1002900000D0ED902E0300943577050080841E0871
:1002A0000000204E0A000000C80C333333330F988F
:1002B0006E12831141EF8D2114893BE65516CFFE56
:1002C000E6DB18D1844B381BF77C1D901DA4BBE4E2
:1002D00024203284725E228100C9F124ECA1E53D24
:1002E0002747322F47332062616420706172616D4D
:1002F00065746572730A005665696C6C652E2E2EE6
:10030000004F726967696E65205859205072656D9B
:100310006965720A004F726967696E6520585920D5
:100320005072656D69657200205A3A200020593A72
:10033000200042656420583A20004D6573682070A3
:100340006F696E742063616E6E6F742062652072D7
:1003500065736F6C7665640A00436C696320706F27
:1003600075722072657072656E647265004D6F748F
:100370006575727320626C6F717565732E004D31F7
:1003800032350020573A004520436F6F6C696E6725
:100390002E2E2E004520456E2063686175666665C9
:1003A0002E2E2E0020573A0042656420636F6F6C3A
:1003B000696E672E2E2E004C697420656E2063686E
:1003C00061756666652E2E2E002C20002C200054B0
:1003D0004845524D414C5F50524F54454354494F4C
:1003E0004E004155544F5245504F52545F53445F55
:1003F00053544154555300454D455247454E43597A
:100400005F50415253455200434153455F4C494769
:1004100048545F4252494748544E45535300544F45
:1004200047474C455F4C494748545300534F465447
:10043000574152455F504F574552004255494C4431
:100440005F50455243454E54004C4556454C494E2D
:10045000475F44415441005A5F50524F424500416A
:1004600055544F4C4556454C005052494E545F4AE6
:100470004F420050524F4752455353004155544F3D
:100480005245504F52545F54454D5000564F4C55B5
:100490004D455452494300454550524F4D00534538
:1004A0005249414C5F584F4E5F584F4646004649AF
:1004B000524D574152455F4E414D453A4D61726C28
:1004C000696E20544833442055312E52322E423327
:1004D00020534F555243455F434F44455F55524C5F
:1004E0003A2050524F544F434F4C5F564552534958
:1004F0004F4E3A312E30204D414348494E455F54CE
:100500005950453A496D7072696D616E7465204548
:10051000585452554445525F434F554E543A31203A
:10052000555549443A0A004D31343520533C696EE3
:100530006465783E206F7574206F662072616E6707
:10054000652028302D31290A002054002052004116
:100550006363656C65726174696F6E3A2050005711
:1005600041524E494E4721204C6F77205A204A6510
:10057000726B206D6179206C65616420746F2075E9
:100580006E77616E746564207061757365732E0A91
:10059000000000000000000000000000004465634F
:1005A000616C61676573206170706C6971756573EA
:1005B000004572723A20546F6F20666172210054B8
:1005C0006F6F206661722066726F6D20726566655E
:1005D00072656E636520706F696E740A00205A0040
:1005E000205900580020204D61783A2000205A0000
:1005F000205900580020204D696E3A20004D61724C
:1006000063686500417272657400536F667420659B
:100610006E6473746F70733A200020466C6F773A83
:10062000200050726F7465637465642050696E0AAF
:1006300000000136372603FFFFFF353C3D380EFF33
:10064000FFFF312E303E12FFFFFFFF28FF0C08098D
:10065000FFFFFF1A1C18FFFF2A08440AFF4224224A
:100660001E2C206F7574206F662072616E67650A9C
:1006700000536572766F20003A2000205365727631
:100680006F200050726F6265205A204F6666736556
:10069000743A200020643A0020693A0020703A0041
:1006A000496E76616C6964206578747275646572F0
:1006B0000A0043290A0061626C656420286D696E36
:1006C0002074656D702000436F6C642065787472CF
:1006D000756465732061726520004E6F20636173DD
:1006E00065206C696768740A0041727265740A005B
:1006F00046616465204865696768742000426564E6
:10070000204C6576656C696E6720004661696C6592
:100710006420746F20656E61626C652042656420A0
:100720004C6576656C696E670A004D65736820706C
:100730006F696E742063616E6E6F742062652072E3
:1007400065736F6C7665640A004D34323120696ED2
:10075000636F727265637420706172616D65746538
:10076000722075736167650A003A200050726F62EB
:1007700065205A204F6666736574003F5A206F7576
:1007800074206F662072616E676520282D35207495
:100790006F2031290A0041637469766520457874B9
:1007A00072756465723A2000496E76616C696420E6
:1007B00065787472756465720A004E6F20436865CF
:1007C000636B73756D2077697468206C696E652042
:1007D0006E756D6265722C204C617374204C696E6D
:1007E000653A200053544F5050452E005072696EA8
:1007F0007465722073746F70706564206475652011
:10080000746F206572726F72732E2046697820743F
:100810006865206572726F7220616E642075736501
:10082000204D39393920746F207265737461727488
:100830002E202854656D706572617475726520692B
:10084000732072657365742E20536574206974205B
:1008500061667465722072657374617274696E6723
:10086000290A004E6F20436865636B73756D2077AE
:10087000697468206C696E65206E756D6265722C96
:10088000204C617374204C696E653A200063686582
:10089000636B73756D206D69736D617463682C2073
:1008A0004C617374204C696E653A20004C696E652A
:1008B000204E756D626572206973206E6F74204CD6
:1008C000617374204C696E65204E756D6265722B84
:1008D000312C204C617374204C696E653A20004DB8
:1008E000313130004D333100534420726561642052
:1008F0006572726F720A00446F6E65207072696E65
:1009000074696E672066696C650A0020496E7661BD
:100910006C696420657874727564657220000000EB
:1009200000000000000000000000000096430000EE
:1009300096430000C84320746F6F206C6F6E672071
:10094000657874727573696F6E2070726576656E06
:100950007465640A0020636F6C6420657874727536
:1009600073696F6E2070726576656E7465640A00D7
:10097000627573793A2070617573656420666F7271
:1009800020696E7075740A00627573793A2070611F
:100990007573656420666F7220757365720A0062F4
:1009A0007573793A2070726F63657373696E670A45
:1009B000004D4F52542E004B494C4C2063617573CF
:1009C0006564206279204B494C4C20627574746FC9
:1009D0006E2F70696E0A004D4F52542E004B494CD9
:1009E0004C2063617573656420627920746F6F2099
:1009F0006D75636820696E616374697665207469DA
:100A00006D65202D2063757272656E7420636F6D45
:100A10006D616E643A20004D3630300052615A2EBE
:100A20002053565000494D50522E2053544F505091
:100A30004545005072696E7465722068616C74651A
:100A4000642E206B696C6C28292063616C6C656472
:100A5000210A00656E7175657565696E67202200F3
:100A60000000204200002042000080400000000002
:100A70005761726E696E673A20486F6D696E6720C4
:100A800042756D702044697669736F72203C203125
:100A90000A000202040000A0400000A04000000084
:100AA0004000009643000096430000C843FFFFFF4C
:100AB00000002110422063308440A550C660E770DA
:100AC000088129914AA16BB18CC1ADD1CEE1EFF182
:100AD0003112100273325222B5529442F772D6622A
:100AE000399318837BB35AA3BDD39CC3FFF3DEE3D2
:100AF0006224433420040114E664C774A44485547A
:100B00006AA54BB528850995EEE5CFF5ACC58DD521
:100B10005336722611163006D776F6669556B446C9
:100B20005BB77AA719973887DFF7FEE79DD7BCC771
:100B3000C448E5588668A778400861180228233819
:100B4000CCC9EDD98EE9AFF9488969990AA92BB9C1
:100B5000F55AD44AB77A966A711A500A333A122A69
:100B6000FDDBDCCBBFFB9EEB799B588B3BBB1AAB11
:100B7000A66C877CE44CC55C222C033C600C411CB9
:100B8000AEED8FFDECCDCDDD2AAD0BBD688D499D61
:100B9000977EB66ED55EF44E133E322E511E700E09
:100BA0009FFFBEEFDDDFFCCF1BBF3AAF599F788FB1
:100BB0008891A981CAB1EBA10CD12DC14EF16FE191
:100BC0008010A100C230E3200450254046706760C9
:100BD000B9839893FBA3DAB33DC31CD37FE35EF3E1
:100BE000B1029012F322D232354214527762567219
:100BF000EAB5CBA5A89589856EF54FE52CD50DC531
:100C0000E234C324A0148104667447642454054468
:100C1000DBA7FAB79987B8975FE77EF71DC73CD780
:100C2000D326F2369106B0165766767615463456B8
:100C30004CD96DC90EF92FE9C899E9898AB9ABA9D0
:100C40004458654806782768C018E1088238A32808
:100C50007DCB5CDB3FEB1EFBF98BD89BBBAB9ABB20
:100C6000754A545A376A167AF10AD01AB32A923A58
:100C70002EFD0FED6CDD4DCDAABD8BADE89DC98D70
:100C8000267C076C645C454CA23C832CE01CC10CA8
:100C90001FEF3EFF5DCF7CDF9BAFBABFD98FF89FC0
:100CA000176E367E554E745E932EB23ED10EF01EF8
:100CB0004572726F722077726974696E6720746F03
:100CC00020454550524F4D210A00454550524F4D49
:100CD000206461746173697A65206572726F722E27
:100CE0000A00290A002062797465733B20637263ED
:100CF000200053657474696E67732053746F726556
:100D000064202800496D7072696D616E74652041C0
:100D1000727265742E00205A3A0020593A0020431E
:100D20006F756E7420583A0020453A00205A3A00F8
:100D300020593A00583A003A004361703A002F2F88
:100D4000200020643A0020693A0020703A004B6489
:100D5000200023646566696E652044454641554C14
:100D6000545F004B69200023646566696E6520440A
:100D7000454641554C545F004B7020002364656626
:100D8000696E652044454641554C545F00504944C6
:100D9000204175746F74756E652066696E6973683D
:100DA0006564212050757420746865206C617374CB
:100DB000204B702C204B6920616E64204B642063B3
:100DC0006F6E7374616E74732066726F6D206265EE
:100DD0006C6F7720696E746F20436F6E66696775FC
:100DE000726174696F6E2E680A0050494420417523
:100DF000746F74756E65206661696C65642120741A
:100E0000696D656F75740A00453120454D42414C4E
:100E10004C454D454E5420544845524D2E004245B8
:100E20004420544845524D414C2052554E41574163
:100E30005900546865726D616C2052756E617761FE
:100E400079004531204572726575722064652063B2
:100E500068617566666500426564206865617469ED
:100E60006E67206661696C65640048656174696ECF
:100E700067206661696C656400504944204175745F
:100E80006F74756E65206661696C656421205465B8
:100E90006D706572617475726520746F6F2068691A
:100EA00067680A00204B643A2000204B693A200012
:100EB000204B703A20000A20436C617373696320F1
:100EC000504944200A002054753A2000204B753ABE
:100ED0002000206D61783A2000206D696E3A200074
:100EE00020643A200020626961733A20005049442E
:100EF000204175746F74756E65206661696C6564F8
:100F0000212054656D706572617475726520746F0F
:100F10006F20686967680A00504944204175746F02
:100F200074756E652073746172740A0050494420B0
:100F30004175746F74756E65206661696C656421B6
:100F400020426164206578747275646572206E75E4
:100F50006D6265720A00454550524F4D204F4B0A55
:100F600000496E736572742066696C616D656E749C
:100F700020616E6420707265737320627574746F83
:100F80006E20286F72204D313038290A005072656A
:100F9000737320627574746F6E20286F72204D31E8
:100FA00030382920746F2068656174206E6F7A7AFA
:100FB0006C650A00496E736572742066696C616DB8
:100FC000656E7420616E6420707265737320627543
:100FD00074746F6E20286F72204D313038290A00EA
:100FE000024D4F52542E00202D20496E76616C69BF
:100FF00064206578747275646572206E756D6265C3
:101000007220210A00000000000000000000000023
:1010100000000000000000000000000000000000D0
:10102000000000000000000000000004000040007C
:101030000000000000000000000000070001C000E8
:10104000000000000000000000000007C007C00012
:10105000000000000000000000000007E00FC000DA
:10106000000000000000000000000007F01FC000AA
:10107000000000000000000000000007F01FC0009A
:10108000000000000000000000000007F01FC0008A
:10109000000000000000000000000007F01FC0007A
:1010A000000000000000000000000003F01FC0006E
:1010B000000000000000000000000003F01FC0005E
:1010C000000000000000000000000003F01F80008E
:1010D000000000000000000000000003F01F80007E
:1010E000000000000000000000000003F01F80006E
:1010F000000000000000000000000003F01F80005E
:10110000000000000000000000000003F01F80004D
:10111000000000000000000018000003F01F800025
:1011200000300000000000000C000001F01F000073
:1011300000600000000000000F000001F01F000030
:1011400001C000000000000007800001F01F000047
:10115000038000000000000003E00001F01F000019
:101160000F8000000000000003F00001F01F0000ED
:101170001F0000000000000001FC0001F01F000043
:101180007E0000000000000000FE0001F01F0000D3
:10119000FC00000000000000007F8001F01F000341
:1011A000F800000000000000007FC000F01F0007F2
:1011B000F800000000000000003FF000F01E001FDB
:1011C000F000000000000000001FFC18F01E303F7F
:1011D000E000000000000000000FF838701C383FED
:1011E000C0000000000000000007F0FC30187E1F67
:1011F00080000000000000000003E1FE1010FF0F5F
:1012000080000000000000000001C3FF0001FF8714
:101210000000000000000000000087FF8001FFC206
:10122000000000000000000000000FFF8003FFE04E
:10123000000000000000000000001FE7C007CFF022
:10124000000000000000000000003FC1E00F83F834
:10125000000000000000000000001FC0700E07F03A
:10126000000000000000000000001FE010080FE078
:10127000000000000000000000000FF000001FE070
:101280000000000000000000000007F800001FC080
:101290000000000000000000000003FC00003F8090
:1012A0000000000000000000000001FC00007F00C2
:1012B0000000000000000000000000FE0000FE0032
:1012C00000000000000000000000007F0001FC00A2
:1012D00000000000000000000000007F8003F80014
:1012E00000000000000000000000003FC007F00008
:1012F00000000000000000000000001FE007F000F8
:1013000000000000000000000000000FF00FE000EF
:10131000000000000000000000000007F01FC000F7
:10132000000000000000000000000003F83F800003
:10133000000000000000000000000001FC7F000031
:10134000000000000000000000000000FE7E000021
:101350000000000000000000000000007FFC000012
:101360000000000000000000000000007FF8000006
:101370000000000000000000000000003FF8000036
:101380000000000000000000000000001FF000004E
:101390000000000000000000000000000FE000005E
:1013A00000000000000000000000000007C0000076
:1013B00000000000000000000000000003800000AA
:1013C000000000000000000000000000010000001C
:1013D000000000000000000000000000000000000D
:1013E00000000000000000000000000000000000FD
:1013F00000000000000000000000000000000000ED
:1014000000000000001FFFFFFFFFFFFF6000000063
:101410000001FF400000000000FF8000000000000D
:101420007F83CF00000C303F87FF80000C301F8689
:101430007980000C000F8C30C7838C30E78C30CF64
:10144000C7CC31F38C30DCECEC33B98C30D86C6C1D
:1014500033198C30D06C0C33198C30D86C0C331998
:101460008C30DC6C0E3B198C30CF7C079F198C3094
:10147000C77C038F194000000000000260000000DC
:101480000000061FFFFFFFFFFFF82020506C616E79
:101490006E657242756666657242797465733A204C
:1014A000002046726565204D656D6F72793A2000A7
:1014B000436F6D70696C65643A204A756E202039FF
:1014C00020323032310A00207C20417574686F72FE
:1014D0003A202854483344290A0000204C61737490
:1014E00020557064617465643A2000544833442088
:1014F00055312E52322E42330A004D61726C696EA4
:101500000020536F6674776172652052657365744D
:101510000A00205761746368646F672052657365C1
:10152000740A002042726F776E206F7574205265C6
:101530007365740A002045787465726E616C205280
:10154000657365740A00506F77657255700A007391
:10155000746172740A006175746F25692E67006585
:1015600072726F722077726974696E6720746F206F
:1015700066696C650A004275746565732025632091
:10158000256320256320256300205A3A0020593A1C
:101590000020583A00656E6473746F707320686938
:1015A000743A2000446F6E6520736176696E67201F
:1015B00066696C652E0A004D32390000060900FE8E
:1015C0000701920321207FFF07FF07FF00000006AD
:1015D00000000107070602008080808080008003F1
:1015E0000202060105A0A00507070600005050F8FA
:1015F00050F850500507070600002078A07028F02A
:1016000020050707060000C0C810204098180507ED
:10161000070600006090A040A8906802030306013E
:1016200004C04080030707060100204080808040FE
:101630002003070706010080402020204080050588
:101640000506000120A870A8200505050600012058
:1016500020F820200203030602FFC040800501019C
:10166000060003F8020202060200C0C005050506D6
:1016700000010810204080050707060000708888D8
:101680008888887003070706010040C0404040403A
:10169000E0050707060000708808708080F80507DD
:1016A00007060000F81020100808F00507070600DC
:1016B0000010305090F81010050707060000F88061
:1016C000F008088870050707060000708080F08821
:1016D0008870050707060000F80810202020200564
:1016E000070706000070888870888870050707065D
:1016F000000070888878080870020505060200C09E
:10170000C000C0C00206060602FFC0C000C0408084
:101710000407070600001020408040201005030346
:10172000060002F800F804070706010080402010B8
:101730002040800507070600007088081020002060
:1017400005070706000070880868A8A87005070745
:10175000060000708888F88888880507070600005A
:10176000F08888F08888F0050707060000708880F8
:1017700080808870050707060000F08888888888C0
:10178000F0050707060000F88080F08080F8050764
:1017900007060000F88080F08080800507070600BB
:1017A00000708880B8888870050707060000888860
:1017B00088F888888801070706020080808080807A
:1017C0008080050707060000381010101090600593
:1017D00007070600008890A0C0A0908805070706AC
:1017E0000000808080808080F80507070600008860
:1017F000D8A8888888880507070600008888C8A8B0
:10180000988888050707060000708888888888708F
:10181000050707060000F08888F08080800507072C
:1018200006000070888888A89068050707060000F1
:10183000F08888F0A090880507070600007880806F
:10184000700808F0050707060000F8202020202077
:1018500020050707060000888888888888700507A3
:10186000070600008888888888502005070706003A
:10187000008888888888A85005070706000088889F
:101880005020508888050707060000888888502067
:101890002020050707060000F80810204080F80304
:1018A0000707060100E08080808080E005050506CE
:1018B00000018040201008030707060100E02020F7
:1018C000202020E0050303060004205088050101C4
:1018D000060000F802020206020580400505050622
:1018E000000070087888780507070600008080B03F
:1018F000C88888F00505050600007080808870059E
:101900000707060000080868988888780505050616
:1019100000007088F880700507070600003048E076
:10192000404040400506060600FF70888878087031
:101930000507070600008080B0C88888880107076F
:10194000060200800080808080800308080601FF76
:10195000200020202020A0400407070600008080EF
:1019600090A0C0A090030707060100C0404040407F
:1019700040E0050505060000D0A8A8A8A8050505B3
:10198000060000B0C8888888050505060000708834
:101990008888700506060600FFF08888F0808005BC
:1019A00006060600FF788888780808050505060001
:1019B00000B0C880808005050506000070807008B2
:1019C000F00407070600004040E0404040300505B5
:1019D00005060000888888986805050506000088C7
:1019E000888850200505050600008888A8A85005AD
:1019F000050506000088502050880506060600FFF1
:101A0000888888780870050505060000F8102040D1
:101A1000F8030707060100204040804040200107EE
:101A2000070602008080808080808003070706010F
:101A3000008040402040408005020206000268907D
:101A400000000006000057726974696E6720746FA9
:101A50002066696C653A20006F70656E206661696A
:101A60006C65642C2046696C653A20006F70656E69
:101A7000206661696C65642C2046696C653A2000BB
:101A800046696C652073656C65637465640A002043
:101A900053697A653A200046696C65206F70656EFF
:101AA00065643A20002066696C653A2000646F69BD
:101AB0006E67006672657368004E6F772000454E52
:101AC0004420535542524F5554494E450A00222056
:101AD000706F73002220706172656E743A22005339
:101AE0005542524F5554494E452043414C4C207469
:101AF00061726765743A22004D4F52542E00747221
:101B000079696E6720746F2063616C6C20737562F5
:101B10002D67636F64652066696C657320776974EF
:101B20006820746F6F206D616E79206C6576656CCE
:101B3000732E204D4158206C6576656C2069733A90
:101B4000004572726F723A006F70656E206661694F
:101B50006C65642C2046696C653A200043616E6EAA
:101B60006F74206F70656E207375626469722000F7
:101B70006563686F3A003A0A0020286D6D290020DD
:101B8000204D36303320002055004C0046696C61F2
:101B90006D656E74206C6F61642F756E6C6F61641F
:101BA000206C656E677468733A0A0020204D3835E2
:101BB00031205A005A2D50726F6265204F6666734D
:101BC00065740020440020490020204D333034202B
:101BD000500020440020490020204D333031205057
:101BE000005049442073657474696E67733A0A0043
:101BF00020460020420020480020204D313435206E
:101C000053004D6174657269616C2068656174751B
:101C10007020706172616D65746572733A0A00209C
:101C20005A00204A002020473239205720490020FE
:101C30005A0020204D3432302053004175746F20FB
:101C4000426564204C6576656C696E673A0A0020CF
:101C50005A0020590020204D323036205800486F5D
:101C60006D65206F66667365743A0A002045002032
:101C70005A002059002058002054002053002020F2
:101C80004D32303520510020453C6D61785F655FF5
:101C90006A65726B3E0020583C6D61785F785F6AC0
:101CA00065726B3E20593C6D61785F795F6A657241
:101CB0006B3E205A3C6D61785F7A5F6A65726B3E5D
:101CC00000416476616E6365643A20513C6D696ED3
:101CD0005F7365676D656E745F74696D655F75735D
:101CE0003E20533C6D696E5F666565647261746524
:101CF0003E20543C6D696E5F74726176656C5F6600
:101D0000656564726174653E0020540020520020B5
:101D1000204D323034205000416363656C65726140
:101D200074696F6E2028756E6974732F7332293A47
:101D300020503C7072696E745F616363656C3E2015
:101D4000523C726574726163745F616363656C3E7B
:101D500020543C74726176656C5F616363656C3EB0
:101D60000A00204500205A0020590020204D323022
:101D7000312058004D6178696D756D204163636550
:101D80006C65726174696F6E2028756E6974732F4B
:101D90007332293A0A00204500205A0020590020B9
:101DA000204D3230332058004D6178696D756D20BB
:101DB0006665656472617465732028756E697473F5
:101DC0002F73293A0A00204500205A00205900208C
:101DD000204D39322058005374657073207065723D
:101DE00020756E69743A0A0020204D313439204341
:101DF000203B20556E69747320696E2043656C73B7
:101E00006975730A002020473231202020203B00D2
:101E10004563686563206F726967696E6500545237
:101E200049474745524544006F70656E003A2000AF
:101E300066696C616D656E74007A5F6D696E0079BC
:101E40005F6D696E00785F6D696E005265706F72CC
:101E500074696E6720656E6473746F70207374614B
:101E60007475730A0024F4D43050C38E20C2A2408B
:101E700017828B7011127A910D816CD90AA861E1D9
:101E800008C7586607615143061E4B5D05C145A74B
:101E9000041A411104093D9803713931034036DBBE
:101EA0000265339102D4305402802E1D02632CEE61
:101EB00001752AC501B028A001102781018F256472
:101EC000012B244B01E0223401AC211F018D200D98
:101ED00001801FFC00841EED00971DDF00B81CD29E
:101EE00000E61BC600201BBC00641AB200B219A891
:101EF000000A19A0006A189900D117910040178BA9
:101F000000B516840031167E00B31579003A1573BA
:101F100000C7146F0058146A00EE1366008813633C
:101F20000025135E00C7125B006C12570015125497
:101F300000C111510070114F0021114B00D6104902
:101F4000008D1047004610440002104200C00F40B0
:101F500000800F3E00420F3C00060F3B00CB0E38C6
:101F600000930E37005C0E3500270E3400F30D325F
:101F700000C10D3100900D3000600D2E00320D2D8E
:101F800000050D2C00D90C2B00AE0C2900850C2966
:101F9000005C0C2700350C27000E0C2600E80B24F3
:101FA00000C40B2400A00B23007D0B23005A0B213F
:101FB00000390B2100180B2000F80A1F00D90A1E57
:101FC00000BB0A1E009D0A1D00800A1D00630A1C3A
:101FD00000470A1B002C0A1B00110A1A00F7091AF5
:101FE00000DD091900C4091900AB0919009209178D
:101FF000007B091800630917004C09160036091602
:1020000000200916000A091500F5081500E008145B
:1020100000CC081400B8081400A408140090081399
:10202000007D0812006B08130058081200460812C1
:1020300000340811002308110012081100010811D2
:1020400000F0071000E0071000D0071000C00710D4
:1020500000B0070F00A107100091070E0083070FC3
:102060000074070F0065070E0057070E0049070EA2
:10207000003B070D002E070E0020070D0013070D73
:102080000006070D00F9060C00ED060D00E0060C39
:1020900000D4060C00C8060C00BC060C00B0060CF0
:1020A00000A4060B0099060C008D060B0082060B9F
:1020B0000077060B006C060B0061060A0057060B42
:1020C000004C060A0042060A0038060A002E060ADC
:1020D0000024060A001A060A001006090007060A6C
:1020E00000FD050900F4050900EB050900E20509FA
:1020F00000D9050900D0050900C7050900BE05097A
:1021000000B5050800AD050800A50509009C0508F7
:1021100000940508008C050800840508007C05086B
:1021200000740508006C050700650508005D0507DB
:1021300000560508004E0507004705070040050842
:102140000038050700310507002A050700230507A9
:10215000001C050600160507000F05070008050608
:102160000002050700FB040600F5040700EE040664
:1021700000E8040600E2040700DB040600D50406BC
:1021800000CF040600C9040600C3040600BD04060F
:1021900000B7040600B1040500AC040600A604065E
:1021A00000A00405009B04060095040500900406A9
:1021B000008A04050085040500800406007A0405F1
:1021C0000075040500700405006B04050066040535
:1021D00000610405005C0405005704050052040575
:1021E000004D04050048040500430405003E0404B6
:1021F000003A04050035040500300404002C0405F1
:102200000027040400230405001E0404001A04042B
:102210000016040500110404000D0404000904055F
:10222000000404040000040400FC030400F8030498
:1022300000F4030400F0030400EC030400E80304CA
:1022400000E4030400E0030400DC030400D80304FA
:1022500000D4030400D0030400CC030400C803032B
:1022600000C503030024F404D9201BC40C5C0E98A1
:1022700004C4095F0265077101F405F900FB04B3AA
:102280000048048700C10369005803550003034553
:1022900000BE023A008402310053022A00290225BE
:1022A0000004022000E4011C00C8011900AF01175E
:1022B00000980114008401130071011000610110E5
:1022C0000051010E0043010D0036010B002B010BE4
:1022D0000020010B00150109000C01090003010891
:1022E00000FB000800F3000800EB000700E4000614
:1022F00000DE000600D8000600D2000600CC000573
:1023000000C7000500C2000500BD000400B90004BC
:1023100000B5000400B1000400AD000400A90004F1
:1023200000A5000300A20003009F0004009B00031F
:102330000098000300950002009300030090000342
:10234000008D0002008B000300880002008600025E
:102350000084000300810002007F0002007D000273
:10236000007B000200790002007700010076000285
:10237000007400020072000100710002006F000290
:10238000006D0001006C0002006A0001006900029B
:1023900000670001006600010065000100640002A2
:1023A000006200010061000100600001005F0002A6
:1023B000005D0001005C0001005B0001005A0001AB
:1023C00000590001005800010057000100560001AB
:1023D00000550001005400010053000000530001AB
:1023E000005200010051000100500001004F0001A7
:1023F000004E0000004E0001004D0001004C0001A5
:10240000004B0000004B0001004A000100490001A0
:10241000004800000048000100470001004600009D
:102420000046000100450000004500010044000195
:102430000043000000430001004200000042000190
:10244000004100000041000100400001003F000089
:10245000003F0001003E0000003E0001003D000082
:10246000003D0001003C0000003C0000003C000179
:10247000003B0000003B0001003A0000003A000170
:102480000039000000390001003800000038000069
:10249000003800010037000000370001003600005E
:1024A0000036000000360001003500000035000055
:1024B0000035000100340000003400000034000149
:1024C0000033000000330000003300010032000040
:1024D0000032000000320001003100000031000035
:1024E0000031000100300000003000000030000129
:1024F000002F0000002F0000002F0000002F00011F
:10250000002E0000002E0000002E0001002D000013
:10251000002D0000002D0000002D0001002C000007
:10252000002C0000002C0000002C0001002B0000FB
:10253000002B0000002B0000002B0001002A0000EF
:10254000002A0000002A0000002A000100290000E3
:1025500000290000002900000029000000290001D6
:1025600000280000002800000028000000280000CB
:1025700000280001002700000027000000270000BD
:1025800000270000002700010026000000260000B0
:1025900000260000002600000026000100250000A3
:1025A0000025000000250000002500000025000097
:1025B0000025000100240000002400000024000089
:1025C000002400000024000100230000002300007C
:1025D000002300000023000000230000002300006F
:1025E0000023000100220000002200000022000061
:1025F0000022000000220000002200010021000053
:102600000021000000210000002100000021000046
:102610000021000000210001002000000020000037
:10262000002000000020000000200000002000002A
:102630000020000000200001001F0000001F00001B
:10264000001F0000001F0000001F0000001F00000E
:10265000001F0001001E0000001E0000001E000000
:10266000001E000000043700001E290000511B005E
:10267000005810000010090000CC0400007802008F
:1026800000410100006265640A002C2073797374B4
:10269000656D2073746F7070656421204865617486
:1026A00065725F49443A2000426564206865617440
:1026B000696E67206661696C65640048656174696C
:1026C0006E67206661696C656400453120457272F1
:1026D000657572206465206368617566666500488B
:1026E000656174696E67206661696C6564004D4F51
:1026F00052542E004D343238004D32383020503094
:102700002053313630004175746F74657374204204
:102710004C546F756368004D323830205030205370
:102720003132300050726563686175666661676555
:102730002041425300507265636861756666616747
:102740006520504C4100526566726F696469720081
:1027500052615A20424C546F756368004368616E41
:102760006765722066696C616D656E7400436861AF
:102770006E6765722066696C616D656E74004D36BA
:1027800030302042300041727265746572206D6F86
:102790007465757273004D3834005265676C2E2075
:1027A000646563616C2E206F726967696E650048AD
:1027B000617574657572206C697373656500486135
:1027C0007574657572206C6973736565004172720A
:1027D0006574004D6172636865005265676C2E20F8
:1027E0004E69762E206C6974005265676C2E204EFF
:1027F00069762E206C6974004732380A47323900F6
:1028000052756E204D343820546573740047323849
:102810000A4D343820503130004F726967696E6557
:10282000205A204175746F2E00473238205A004FCD
:10283000726967696E652059204175746F2E004773
:1028400032382059004F726967696E6520582041FF
:1028500075746F2E004732382058004F72696769CF
:102860006E65206175746F2E0047323800446570C4
:102870006C6163657220756E20617865004D656ED0
:1028800075207072696E636970616C004465706C6C
:102890002E2058004465706C2E2059004465706CE1
:1028A0002E205A004578747275646575720044650F
:1028B000706C2E20302E316D6D004465706C2E20B2
:1028C000316D6D004465706C2E2031306D6D0044AB
:1028D00065706C6163657220756E20617865004576
:1028E0007874727564657572004465706C2E205A38
:1028F000004465706C2E2059004465706C2E205881
:1029000000457874727564657572004465706C2E4C
:10291000205A004465706C2E2059004465706C2E5E
:102920002058005072657061726572004E6976655C
:1029300061752062696C696E6561697265004578D0
:1029400074727564657572733A203100544833446B
:1029500053747564696F2E636F6D00496D70726991
:102960006D616E74650000544833442055312E5219
:10297000322E4233004D61726C696E00546865728C
:102980006D6F636F75706C657300496E666F732051
:10299000636172746500496E666F7320696D707251
:1029A000696D616E7465004D656E75207072696E3B
:1029B000636970616C004D36303020423020542500
:1029C00064004D37303120542564004D37303220BB
:1029D0003B2564004D373032205425640043686144
:1029E0006E6765722066696C616D656E7400507209
:1029F0006563686175666661676520414253005092
:102A0000726563686175666661676520504C410058
:102A10004368616E6765722066696C616D656E748E
:102A200000494D50522E20504155534500444543D6
:102A30004841524745522046494C0043484152477D
:102A400045522046494C0050757267657220706C83
:102A500075730052657072656E64726520696D7081
:102A6000722E004F5054494F4E53205245505249F8
:102A700053453A002020427573653A200064652072
:102A800066696C616D656E74006475206368616E63
:102A900067656D656E7400417474656E746520645D
:102AA000656D617272616765002020427573653AD9
:102AB0002000200064656368617267657220666942
:102AC0006C616D656E7400417474656E746520642C
:102AD00065002020427573653A2000200050617423
:102AE00069656E74657A205356502E2E2E004275FD
:102AF000736520656E2063686175666665002020D9
:102B0000427573653A200020005072206368617539
:102B100066666572206C612062757365005072652F
:102B200073736572206C6520626F75746F6E2E2EE4
:102B30002E002020427573653A2000706F75722058
:102B4000636F6E74696E7565722E2E2E006574202B
:102B5000636C696320626F75746F6E00496E736594
:102B60007265722066696C616D656E74002020422A
:102B70007573653A200020006368617267656D6552
:102B80006E742066696C616D656E74004174746565
:102B90006E7465206465002020427573653A2000DC
:102BA00020005075726765722066696C616D656E94
:102BB0007400417474656E746500706F7572207274
:102BC000657072656E64726500417474656E7465DB
:102BD00020696D7072657373696F6E004D323400D9
:102BE0004D323320257300556E6B6E6F776E206308
:102BF0006F6D6D616E643A202200496E7365727468
:102C00002066696C616D656E7420616E64207072FF
:102C100065737320627574746F6E20286F72204D17
:102C2000313038290A00486F74656E6420746F6F04
:102C300020636F6C640A00456368656320736F6E80
:102C400064650A00456368656320736F6E646500A0
:102C5000205A3A200020593A200042656420583A10
:102C6000200053442063617264206F6B0A006F7010
:102C7000656E526F6F74206661696C65640A0076D8
:102C80006F6C756D652E696E6974206661696C651F
:102C9000640A00534420696E6974206661696C0A95
:102CA0000000000000300E0100C00E0A00500F149A
:102CB00000D00F1E0060102800E010320070113CA0
:102CC00000F01146007012500000135A0080136487
:102CD0000000146E00901478001015820090158C7E
:102CE00000101696009016A0001017AA009017B4B6
:102CF000001018BE009018C8001019D2009019DCFE
:102D000000101AE600801AF000001BFA00801B0475
:102D100001F01B0E01701C1801F01C2201601D2C1B
:102D200001E01D3601501E4001D01E4A01401F54D3
:102D300001B01F5E0130206801A020720110217CCB
:102D40000190218601002290016026F401902A580A
:102D500002802EBC0250322003E03584035039E853
:102D600003803C4C04202F002042403A0020403A8F
:102D700000434F4D4D554E49434154494F4E004439
:102D8000525952554E004552524F525300494E46E9
:102D90004F004543484F00286E6F2066696C6529D7
:102DA0000043757272656E742066696C653A200026
:102DB00046696C652064656C657465643A004465B9
:102DC0006C6574696F6E206661696C65642C204661
:102DD000696C653A20002569730025696D202569B5
:102DE00073002569682025696D20256973002569B0
:102DF00064202569682025696D202569730025698F
:102E00007920256964202569682025696D20256958
:102E100073005072696E742074696D653A20004DBC
:102E2000343820526573756C743A202573005374DE
:102E3000616E6461726420446576696174696F6E65
:102E40003A20002052616E67653A2000204D61787B
:102E50003A2000204D696E3A20004D65616E3A209F
:102E60000046696E6973686564210A002072616EAC
:102E700067653A2000206D61783A2000206D696E08
:102E80003A2000207369676D613A2000206D65610A
:102E90006E3A20003A207A3A2000206F66200050D7
:102EA0006F736974696F6E696E67207468652070EE
:102EB000726F62652E2E2E0A003F2028582C592949
:102EC000206F7574206F6620626F756E64732E0AB2
:102ED000003F53616D706C652073697A65206E6F79
:102EE0007420706C61757369626C652028342D35AF
:102EF00030292E0A004D34382054657374205275E1
:102F00006E6E696E672E2E2E0A003F285629657256
:102F1000626F7365206C6576656C20697320696DDE
:102F2000706C61757369626C652028302D34292EB0
:102F30000A006F6B00922D8D2D862D7F2D712D6FC8
:102F400066660044454255473A004D3131332053BF
:102F50000025753A2530327500253032753A253016
:102F600032750025756420253032753A253032756A
:102F7000005A00590058000920000000000000001D
:102F80000000000000003FFFF00000000000000013
:102F90000000000000380070000000000000000089
:102FA0000000000030FC30000000000000000000C5
:102FB00000000020FC1000000000000000000000E5
:102FC0000000207810000000000000000000000059
:102FD0000020301000000000000000000000000091
:102FE0002C00D03FC0000000000000002082002E16
:102FF00031D07FE0000000000000001041002F7B76
:10300000D07FE0000000000000001041002F7BD0C6
:103010007FE0000000000000002082002E31D03F41
:10302000C0000000000000004104002C00D03FC0A0
:10303000000000000000008208002030107FE00047
:103040000000000000008208002078107FE00000EF
:10305000000000000041040020FC107FE0000000A0
:103060000000000020820030FC301F8000000000C3
:103070000000000000003800700F00000000000099
:103080000000FFFFC03FFFF006000000000000004E
:1030900000FFFFC000000000000000000000000072
:1030A0000000003FFFF000000000000000000000F2
:1030B0000000380070000000000000000000000068
:1030C0000031863000000000000000000000000019
:1030D000238710000000000000000000000000270F
:1030E00087900000000000000000000000002F8713
:1030F000D00000000000000000000000002F03D0FE
:103100003FC0000000000000002082002030107F3F
:10311000E0000000000000001041002078107FE077
:10312000000000000000001041002078107FE00047
:103130000000000000002082002030103FC000008E
:1031400000000000004104002F03D03FC000000039
:10315000000000008208002F87D07FE00000000000
:103160000000008208002787907FE0000000000038
:1031700000004104002387107FE0000000000000F1
:10318000002082003186301F800000000000000017
:103190000000003800700F0000000000000000FF79
:1031A000FFC03FFFF0060000000000000000FFFF2E
:1031B000C000000000060900FE0000000000010938
:1031C0000008FE000005080806000040F0C88888D6
:1031D000987810050808060000C0F8888888888854
:1031E000F80505050600012030F83020050808061E
:1031F00000002070F820202020E00509090600FFCB
:103200002070A8A8B8888870200509090600FFE08A
:1032100080C0B0A8283028280509090600FFF8A8B2
:103220008888888888A8F8050A0A0600FE20505079
:10323000505088A8A8887003030306000340A040EC
:1032400042696C696E656172204C6576656C696E69
:103250006720477269643A0A00202844525952553F
:103260004E2900473239204175746F204265642031
:103270004C6576656C696E67003F20284C2C522C9B
:10328000462C4229206F7574206F6620626F756E20
:1032900064732E0A003F2856296572626F73652099
:1032A0006C6576656C20697320696D706C617573EF
:1032B00069626C652028302D34292E0A0042616431
:1032C000205A2076616C75650A004E6F2062696C29
:1032D000696E65617220677269640A004D3630302C
:1032E0003A2054726F702066726F696400486F7480
:1032F000656E6420746F6F20636F6C640A00456EA6
:10330000642066696C65206C6973740A00426567A5
:10331000696E2066696C65206C6973740A00000030
:103320002100240027002A002D0030003300010175
:103330000000040107010A01000022002500280006
:103340002B002E00310034000201000005010801AD
:103350000B01000020002300260029002C002F0074
:103360003200000100000301060109010505050501
:10337000070508080808020202020A0A08080404ED
:10338000040401010101010101010303030303031B
:103390000303040707070C0C0C0C0C0C0C0C0202AA
:1033A000020206060606060606060B0B0B0B0B0BA7
:1033B0000B0B010210202008081020401020408034
:1033C00002010201080402010102040810204080E9
:1033D0008040201008040201800402018040201077
:1033E00008040201080402010102040810204080C0
:1033F000010204081020408000000A0B02090C0D95
:103400000E08070304010000000000000000000097
:1034100000000000000000000000000000000000AC
:103420000000000012111000000000000000000069
:103430000000000000000000000000000000452027
:103440007061732F6D6D0045207061732F6D6D007D
:103450005A207061732F6D6D005A207061732F6D4B
:103460006D0059207061732F6D6D0059207061736C
:103470002F6D6D0058207061732F6D6D0058207096
:1034800061732F6D6D004D6F7576656D656E74009F
:103490005061732F6D6D004A65726B004163636507
:1034A0006C65726174696F6E0056656C6F636974E8
:1034B0006500446563616C616765205A00436F6E07
:1034C00074726F6C65720043686172676572206D1B
:1034D0006D0043686172676572206D6D00436861BD
:1034E00072676572206D6D0044656368617267651F
:1034F00072206D6D00446563686172676572206D4E
:103500006D00446563686172676572206D6D00438C
:103510006F6E74726F6C65720043616E6E6F7420B3
:10352000656E746572207375626469723A20000278
:103530002E2E000141637475616C69736572004DD4
:10354000656E75207072696E636970616C00546598
:103550006D70204D61783A203132300054656D70C5
:10356000204D696E3A203500544265643A41544317
:103570002031303447542D320054656D70204D6138
:10358000783A203239300054656D70204D696E3ABA
:1035900020350054303A20505431303020556C746E
:1035A000694D4200416C696D656E746174696F6E3E
:1035B0003A2047656E657269630050726F746F637D
:1035C0006F6C653A20312E3000426175643A2031CB
:1035D00031353230300043522D31305300496E695D
:1035E0007469616C6973657220454550524F4D0096
:1035F000436F6E74726F6C657200496E69746961B5
:103600006C6973657220454550524F4D005361758A
:1036100076657220636F6E66696700424C546F7501
:1036200063680046696C616D656E74004D6F7576F8
:10363000656D656E740054656D7065726174757248
:1036400065004D656E75207072696E636970616C9E
:10365000004D3330332055312045256920532569ED
:10366000005265676C2E2070726563682E2041429F
:1036700053005265676C2E2070726563682E20506F
:103680004C4100504944204175746F74756E65005B
:10369000504944204175746F74756E6500504944FB
:1036A0002D44005049442D44005049442D490050B8
:1036B00049442D49005049442D50005049442D5053
:1036C00000566974657373652076656E74696C2E37
:1036D00000566974657373652076656E74696C2E27
:1036E000004C6974004C6974004275736500427542
:1036F000736500436F6E74726F6C65720053617511
:1037000076657220636F6E666967004C6974004C61
:10371000697400427573650042757365005669747B
:10372000657373652076656E74696C2E00566974D6
:10373000657373652076656E74696C2E0054656DD3
:1037400070657261747572650056206465706C2EC8
:10375000206D696E0056206465706C2E206D696E58
:103760000056206465706C2E206D696E00566D6980
:103770006E2000566D696E2000566D696E200056F1
:103780006D6178204500566D6178204500566D6169
:1037900078204500566D6178205A00566D6178207A
:1037A0005A00566D6178205A00566D617820590094
:1037B000566D6178205900566D6178205900566D1C
:1037C0006178205800566D6178205800566D6178F8
:1037D0002058004D6F7576656D656E7400416D61A2
:1037E00078204500416D6178204500416D61782069
:1037F0005A00416D6178205A00416D61782059006E
:10380000416D6178205900416D6178205800416D0B
:10381000617820580041204465706C2E004120449E
:1038200065706C2E0041207265747261697400418C
:10383000207265747261697400416363656C6572BE
:103840006174696F6E00416363656C657261746970
:103850006F6E004D6F7576656D656E7400566520F0
:103860006A65726B005665206A65726B005665204A
:103870006A65726B00567A206A65726B00567A2010
:103880006A65726B005679206A65726B0056792002
:103890006A65726B005679206A65726B00567820F3
:1038A0006A65726B005678206A65726B00567820E4
:1038B0006A65726B004D6F7576656D656E7400207C
:1038C000746F6F206C6F6E672065787472757369A2
:1038D0006F6E2070726576656E7465640A00206391
:1038E0006F6C6420657874727573696F6E20707286
:1038F0006576656E7465640A00290A002062797431
:1039000065733B2063726320002073746F7265647B
:103910002073657474696E6773207265747269656B
:10392000766564202800202863616C63756C61747F
:10393000656429210A0020213D2000454550524F51
:103940004D20435243206D69736D61746368202D6F
:10395000202873746F7265642920002053697A658A
:103960003A2000496E6465783A2000204D61726CFF
:10397000696E3D563536290A0028454550524F4D4F
:103980003D00454550524F4D2076657273696F6E0C
:10399000206D69736D6174636820004861726463AF
:1039A0006F6465642044656661756C74205365744A
:1039B00074696E6773204C6F616465640A00F4017A
:1039C0000000F4010000F401000088130000000072
:1039D000FA430000FA430000704100004842000032
:1039E000A0420000A0420000C8430080CF43496DC0
:1039F0007072696D616E74652070726574652E00F9
:103A00005072696E74696E672E2E2E00496D707249
:103A10002E20656E2070617573650052616E67655A
:103A20007220424C546F756368004465706C6F7906
:103A3000657220424C546F756368004175746F74F1
:103A400065737420424C546F75636800436D643A2B
:103A50002053572D4D6F64650052615A20424C54DB
:103A60006F756368004D656E75207072696E63696D
:103A700070616C004D313235004D323400496D704B
:103A8000722E20616E6E756C656500496E69742ECC
:103A9000206C61206361727465205344004D3231A3
:103AA000005061732064652063617274650043682F
:103AB000616E676572206465206361727465004D94
:103AC000323100496D70722E206465707569732003
:103AD0005344004172726574657220696D70722E74
:103AE0000052657072656E64726520696D70722E29
:103AF00000412070726F706F7320696D70722E00BC
:103B0000496E746572726F6D70726520696D707246
:103B10002E00436F6E74726F6C6572005072657028
:103B200061726572005265676C657200496E666FFE
:103B300073000E000E000E000E000E000E000E00B0
:103B40000E007FC03F801F000E00040004000E0026
:103B50001F003F807FC00E000E000E000E000E0002
:103B60000E000E000E0003F8000FFE001E0F0038BE
:103B70000700380380700380700FE07007C0700387
:103B8000807001007000003800003807001E0F0030
:103B90000FFE0003F80000FE0003FF800783C00E45
:103BA00001C00E00E01C00E07F00E03E00E01C00D1
:103BB000E00800E00000E00001C00E01C00F078037
:103BC00007FF0001FC00FFFFFF7F80FFC0FFC0FF79
:103BD000C07F807F80FFC0FFC0FFC03F001E000C81
:103BE00000446563616C616765205A004368616EDB
:103BF0006765722066696C616D656E74004368610B
:103C00006E6765722066696C616D656E74004D3615
:103C1000303020423000446563616C616765205A32
:103C200000466C757800466C75780056697465734B
:103C300073652076656E74696C2E005669746573C1
:103C400073652076656E74696C2E004C6974004C47
:103C5000697400427573650042757365004861754B
:103C600074657572206C697373656500486175745D
:103C7000657572206C697373656500566974657348
:103C800073650056697465737365004D656E7520C4
:103C90007072696E636970616C005072656368610F
:103CA00075666661676520504C41206275736500DA
:103CB00050726563682E20504C41206C697400502E
:103CC000726563686175666661676520504C410086
:103CD00050726570617265720050726563686175DB
:103CE00066666167652041425320627573650050C6
:103CF000726563682E20414253206C6974005072D3
:103D0000656368617566666167652041425300506E
:103D100072657061726572007C3C3E5E2B3D3F2F88
:103D20005B5D3B2C2A225C001000C90210012C01B3
:103D30004001220170011801B0010E01F0010401DF
:103D40005002FA00B002F0003003E600D003DC00BD
:103D50009004D2007005C800A006BE000008B400A0
:103D6000B009AA00D00BA000600E960060118C0074
:103D70000015820020197800C01D6E00A02264008A
:103D8000B0275A00902C500000314600E0343C002F
:103D900010383200903A2800603C1E00A03D14000C
:103DA000803E0A00203F0000453120454D42414CF5
:103DB0004C454D454E5420544845524D2E004245E9
:103DC0004420544845524D414C2052554E41574194
:103DD0005900546865726D616C2052756E6177612F
:103DE00079004531204572723A2054454D502E20BD
:103DF0004D4158004572723A2054454D502E204D89
:103E00004158204C4954004D415854454D50207460
:103E10007269676765726564004531204572723A60
:103E20002054454D502E204D494E004572723A2087
:103E300054454D502E204D494E204C4954004D497B
:103E40004E54454D50207472696767657265640011
:103E50004D3834205820592045004F726967696EEB
:103E60006520257325732573205072656D69657211
:103E700000205072656D6965720A005A0059005839
:103E8000004F726967696E6520006C61737420531E
:103E90004420627974652061667465722070617572
:103EA000736520004E6F74205344207072696E74E5
:103EB000696E670A005344207072696E74696E6798
:103EC00020627974652000526573656E643A200043
:103ED0006F6B0000D200D40011241FBECFEFD1E2DF
:103EE000DEBFCDBF00E00CBF13E0A0E0B2E0E2E037
:103EF000F0E602E00BBF02C007900D92AE38B107AA
:103F0000D9F725E1AEE8B3E001C01D92AD3BB207A1
:103F1000E1F71FE1CBE6DFE100E006C021970109F0
:103F2000802FFE010F94652FCA36D10780E0080765
:103F3000A9F70F946A160D94F02F0C9400002F929D
:103F40003F924F925F926F927F928F929F92AF9229
:103F5000BF92CF92DF92EF92FF920F931F93CF9376
:103F6000DF93CDB7DEB7C056D1090FB6F894DEBFE8
:103F70000FBECDBF21E02093C90F8091F0148D3486
:103F800011F40C94622A843511F40C949037873420
:103F900011F00C94DC378091EE149091EF148C3179
:103FA000910509F447C6BCF4843091055CF4823075
:103FB0009105ACF597FF02C00C945E2A0E94F8C4EC
:103FC0000C94DE378430910509F4CDC54B9709F484
:103FD00009C60C945E2A8A32910511F40C94D328F8
:103FE0005CF48D31910511F40C94F6274E9711F481
:103FF0000C94FA270C945E2A8B35910511F40C94DD
:10400000AF298C35910511F40C94B3298A359105AB
:1040100011F00C945E2A10929E030C94DE372091CE
:104020001802222311F40C94DE3711E0029709F0F4
:1040300010E00E9473C482E50E946846882309F458
:1040400051C10E94EE456B017C0120910B10309113
:104050000C1040910D1050910E1029A73AA74BA7B4
:104060005CA740900F10509010106090111070904D
:1040700012108091CC0F9091CD0FA091CE0FB091E6
:10408000CF0F8DA79EA7AFA7B8AB2091D00F3091CF
:10409000D10F4091D20F5091D30F29AB3AAB4BAB1C
:1040A0005CAB20E030E0A901C701B6010F94C72541
:1040B000882309F43EC529A53AA54BA55CA56DA5A5
:1040C0007EA58FA598A90F94C72581110BC0A301C8
:1040D000920169A97AA98BA99CA90F94C725882365
:1040E00009F427C520E030E0A901C701B6010F940B
:1040F000C725881F8827881F18130BC080E090E011
:10410000A0E8BFE325968CAF9DAFAEAFBFAF2597BC
:104110000AC020E030E040E85FEB25962CAF3DAFD1
:104120004EAF5FAF259729A53AA54BA55CA56DA518
:104130007EA58FA598A90F94642C6DAB7EAB8FAB39
:1041400098AFA301920169A97AA98BA99CA90F94A0
:10415000642C69AF7AAF8BAF9CAF2DA93EA94FA954
:1041600058ADCA01B9010F942C264B015C0129AD51
:104170003AAD4BAD5CADCA01B9010F942C269B0141
:10418000AC01C501B4010F94652C0F94D12E21967A
:104190006CAF7DAF8EAF9FAF219720E030E040E065
:1041A0005FE30F942C264B015C019B01AC01C7011E
:1041B000B6010F94642C61966CAF7DAF8EAF9FAF4C
:1041C0006197A5019401C701B6010F94652C9B016D
:1041D000AC0161966CAD7DAD8EAD9FAD61970F94D6
:1041E0002C266B017C0120E030E0A9010F948B2E7E
:1041F00087FD07C0C701B6010F94D12E9B01AC010A
:1042000003C020E030E0A90125966CAD7DAD8EADF8
:104210009FAD25970F942C264B015C012DA53EA543
:104220004FA558A969A57AA58BA59CA50F94652CC7
:1042300020E030E040E05FE30F942C266B017C012E
:1042400069AD7AAD8BAD9CAD905821962CAD3DAD4E
:104250004EAD5FAD21970F94412D9B01AC01C5017F
:10426000B4010F942C269B01AC01C701B6010F9439
:10427000652C29A53AA54BA55CA50F94642C6B0170
:104280007C0129A93AA94BA95CA9C301B2010F94E9
:10429000652C20E030E040E05FE30F942C2669A716
:1042A0007AA78BA79CA721962CAD3DAD4EAD5FADF7
:1042B00021976DA97EA98FA998AD0F94412D9B01DF
:1042C000AC01C501B4010F942C269B01AC0169A57A
:1042D0007AA58BA59CA50F94652CA30192010F9440
:1042E000642C14C089E40E946846882329F00E9447
:1042F000EE456B017C0103C0C12CD12C76018AE410
:104300000E9468468823D9F00E94EE4569AB7AABDB
:104310008BAB9CAB20E030E0A901C701B6010F9444
:10432000C72581111AC020E030E0A90169A97AA946
:104330008BA99CA90F94C72581110FC0FAC320E057
:1043400030E0A901C701B6010F94C725882309F4FD
:10435000F0C319AA1AAA1BAA1CAAD701C601B058F1
:1043600089A79AA7ABA7BCA729A93AA94BA95CA979
:1043700050582DA73EA74FA758AB9C01AD01BC01DB
:10438000CD010F942C264B015C012DA53EA54FA518
:1043900058A9CA01B9010F942C269B01AC01C50193
:1043A000B4010F94652C0F94D12E65966CAF7DAF40
:1043B0008EAF9FAF659780910B1090910C10A091DC
:1043C0000D10B0910E108DAB9EABAFABB8AFA70187
:1043D0009601BC01CD010F94652C25966CAF7DAF85
:1043E0008EAF9FAF259720910F1030911010409104
:1043F00011105091121029AF3AAF4BAF5CAF29A901
:104400003AA94BA95CA969AD7AAD8BAD9CAD0F946F
:10441000652C61966CAF7DAF8EAF9FAF6197809139
:10442000CC0F9091CD0FA091CE0FB091CF0F2196D0
:104430008CAF9DAFAEAFBFAF219725962CAD3DADF4
:104440004EAD5FAD2597BC01CD010F94642C6B017F
:104450007C012091D00F3091D10F4091D20F50911B
:10446000D30F29962CAF3DAF4EAF5FAF2997619622
:104470002CAD3DAD4EAD5FAD619729966CAD7DAD78
:104480008EAD9FAD29970F94642C4B015C018091F8
:10449000131090911410A0911510B09116102D9634
:1044A0008CAF9DAFAEAFBFAF2D979C01AD016091BA
:1044B000D40F7091D50F8091D60F9091D70F0F9494
:1044C000642C2B013C012091D80F3091D90F4091E1
:1044D000DA0F5091DB0F6D962CAF3DAF4EAF5FAF53
:1044E0006D978091171090911810A0911910B091AC
:1044F0001A1069968CAF9DAFAEAFBFAF6997A70199
:10450000960169A57AA58BA59CA50F942C26A1964A
:104510006CAF7DAF8EAF9FAFA197A50194016DA544
:104520007EA58FA598A90F942C269B01AC01A1967E
:104530006CAD7DAD8EAD9FADA1970F94652CA1960E
:104540006CAF7DAF8EAF9FAFA197A501940169A518
:104550007AA58BA59CA50F942C264B015C01A70185
:1045600096016DA57EA58FA598A90F942C269B0179
:10457000AC01C501B4010F94642CA1962CAD3DADE6
:104580004EAD5FADA1970F94D82C6B017C0120E05C
:1045900030E0A9010F94C72587FF0AC02BED3FE04B
:1045A00049EC50E4C701B6010F94652C6B017C0106
:1045B000112351F02BED3FE049EC50E4C701B60167
:1045C0000F94642C6B017C0120E030E0A901C7014D
:1045D000B6010F94C725811124C021962CAD3DADA5
:1045E0004EAD5FAD21976DA97EA98FA998AD0F94AF
:1045F000C725811116C029962CAD3DAD4EAD5FADDE
:10460000299769AD7AAD8BAD9CAD0F94C72581110B
:1046100008C0ABEDCA2EAFE0DA2EA9ECEA2EA0E47A
:10462000FA2EA701960165966CAD7DAD8EAD9FAD5E
:1046300065970F942C264B015C0120E030E0A90126
:10464000C301B2010F94C7258823C9F0A5019401C5
:10465000C501B4010F942C264B015C01A30192010A
:10466000C301B2010F942C269B01AC01C501B4011A
:104670000F94652C0F94D12E4B015C010DC020E0EE
:1046800030E0A901C501B4010F948B2E87FF04C04F
:10469000B7FAB094B7F8B0942FE632E143E85AE3A2
:1046A000C501B4010F94C72587FF02C00C94DE3703
:1046B000C501B4010F94DA2D0F94AE2D1B01672BA9
:1046C00019F422242394312CB10180E090E00F945E
:1046D000CB254B015C019B01AC01C701B6010F94D6
:1046E000412D6DAB7EAB8FAB98AFA5019401C3019B
:1046F000B2010F94412D65966CAF7DAF8EAF9FAF29
:10470000659769962CAD3DAD4EAD5FAD69976D96E1
:104710006CAD7DAD8EAD9FAD6D970F94642CA501F2
:1047200094010F94412D6D966CAF7DAF8EAF9FAF0E
:104730006D972DA93EA94FA958ADCA01B9010F9493
:104740002C2620E030E040E05FE30F942C269B0114
:10475000AC0160E070E080E89FE30F94642C299640
:104760006CAF7DAF8EAF9FAF29972D962CAD3DAD31
:104770004EAD5FAD2D9729873A874B875C87699649
:104780008CAD9DADAEADBFAD69978D879E87AF8770
:10479000B88B6091490270914A02072E000C880B79
:1047A000990B0F94CD2520912F023091300240912A
:1047B0003102509132020F942C262AE037ED43E269
:1047C0005CE30F942C266DA37EA38FA398A70E9471
:1047D00034CD9B01AC0128533F4F4F4F5F4F2D9677
:1047E0002CAF3DAF4EAF5FAF2D9749A45AA46BA439
:1047F0007CA441E050E05EAF4DAF59E159AF2DAD23
:104800003EAD2215330509F43DC10E94478E0E943A
:1048100034CDDC01CB012D962CAD3DAD4EAD5FAD61
:104820002D97821B930BA40BB50BB7FD11C00E94F3
:1048300034CD9B01AC0128533F4F4F4F5F4F2D9616
:104840002CAF3DAF4EAF5FAF2D9780E00E942A4F57
:1048500039AD315039AF332309F441C029962CAD1D
:104860003DAD4EAD5FAD29976DA57EA58FA598A9ED
:104870000F942C266B017C012DA93EA94FA958ADA0
:10488000B201C3010F942C26A70196010F94652C49
:104890007B018C0129962CAD3DAD4EAD5FAD2997C6
:1048A000B201C3010F942C264B015C012DA93EA936
:1048B0004FA958AD6DA57EA58FA598A90F942C265C
:1048C0009B01AC01C501B4010F94642C2B013C0188
:1048D000C701D8018DA79EA7AFA7B8AB51C04DADFA
:1048E0005EADBA0180E090E00F94CB252DA93EA9E2
:1048F0004FA958AD0F942C264B015C010F943E2D0F
:104900006B017C01C501B4010F94C72E4B015C0102
:10491000A701960169A57AA58BA59CA50F942C26C5
:104920002B013C01A501940169A97AA98BA99CA935
:104930000F942C269B01AC01C301B2010F94652C8E
:104940002B013C01A501940169A57AA58BA59CA525
:104950000F942C264B015C01A701960169A97AA945
:104960008BA99CA90F942C269B01AC01C501B40115
:104970000F94642C6DA77EA78FA798AB59E159AF10
:104980009201A30125966CAD7DAD8EAD9FAD2597AF
:104990000F94652C69837A838B839C832DA53EA518
:1049A0004FA558A961966CAD7DAD8EAD9FAD619759
:1049B0000F94652C6D837E838F83988765962CADCD
:1049C0003DAD4EAD5FAD659769857A858B859C85DC
:1049D0000F94652C69877A878B879C876D962CADA1
:1049E0003DAD4EAD5FAD6D976D857E858F859889A8
:1049F0000F94652C6D877E878F87988B8091250219
:104A0000882321F0CE0101960E948B4CE090F10F9B
:104A10001D8E1E8E1F8E18A289819A81AB81BC814A
:104A2000898B9A8BAB8BBC8B8D819E81AF81B88536
:104A30008D8B9E8BAF8BB88F89859A85AB85BC8516
:104A4000898F9A8FAB8FBC8FAE01475E5F4FBE01DF
:104A50006B5E7F4FCE0141960E946D82CE014D96D6
:104A60006C018E010B5D1F4F9E01235F3F4FAE0116
:104A7000475E5F4FBE016B5E7F4F0C970E94D0E296
:104A8000811151C0E090F10F19A21AA21BA21CA221
:104A90008091CC0F9091CD0FA091CE0FB091CF0F00
:104AA000898B9A8BAB8BBC8B8091D00F9091D10F5F
:104AB000A091D20FB091D30F8D8B9E8BAF8BB88FFF
:104AC0008091D40F9091D50FA091D60FB091D70FB0
:104AD000898F9A8FAB8FBC8FAE01475E5F4FBE014F
:104AE0006B5E7F4FCE0141960E946D82DE019196F2
:104AF0006D018E010B5D1F4F28ED3FE0AE01475E5B
:104B00005F4FBE016B5E7F4FCE0141960E94D0E2A7
:104B100080E1ECECFFE0ABE0B0E101900D928A9512
:104B2000E1F70C94DE37EDADFEAD3196FEAFEDAFA3
:104B300066CEE1E4FBE184918F010F5F1F4F882374
:104B400021F00E940547F801F6CFE1EEF2E08491F2
:104B50008F010F5F1F4F882311F40C94DE370E94E2
:104B60000547F801F4CF80E50E946846882329F0C4
:104B70000E94AE456B017C0103C0C12CD12C760193
:104B800083E50E946846882361F00E94EE4520E09C
:104B900030E04AE754E40F942C260F94AE2D6B01BD
:104BA0007C010E94E68180916D14811105C060E056
:104BB00087EF92E00E94D0750E9434CDC60ED71EBA
:104BC000E81EF91E0E9434CDDC01CB018C199D0931
:104BD000AE09BF09B7FD02C00C94DE3780E00E9429
:104BE0002A4FF0CF0F94AE0A81110C94DE3780E08B
:104BF00090E0A0E2B1E489839A83AB83BC838D8388
:104C00009E83AF83B88789879A87AB87BC8780E507
:104C10000E946846882319F00E94BE4501C060E0EA
:104C2000698BBE016F5F7F4FCE0141960E94D08499
:104C30000C94DE378091FA0F8770873071F48FE41F
:104C40000E946846882319F00E94DF4503C08FE464
:104C50000E94214681110C94DE370E94E68180E09B
:104C60000E94664484EF91E0A0E0B0E089839A83DB
:104C7000AB83BC83BE016F5F7F4F80EA0E94BC4064
:104C80000E94DC400E94464111E01093650488E5D3
:104C90000E942146282E89E50E942146382E8AE569
:104CA0000E94214689AB211004C0311004C018278E
:104CB00005C0311002C010E001C019A90E94F146E0
:104CC00082E50E946846882399F10E94EE456B01B7
:104CD0007C0120E030E0A9010F94C725882341F131
:104CE000111105C0211003C0332009F40EC1C09278
:104CF000D40FD092D50FE092D60FF092D70F20911B
:104D00001310309114104091151050911610C701D6
:104D1000B6010F948B2E18165CF419821A821B822E
:104D20001C82BE016F5F7F4F84ED9FE00E94634253
:104D300011110DC0211003C03110E2C0E6C03110C6
:104D400006C080E00E94074D1123B1F3D9C0109234
:104D50000F10109210101092111010921210109249
:104D60000B1010920C1010920D1010920E100E9449
:104D70001F44EDEAFAE034913DAFE1EAFAE08590B4
:104D80009590A590B490E5EAFAE0C590D590E590AD
:104D9000F490A7019601C501B4010F948B2E18164B
:104DA0002CF4A5019401C701B60104C0A701960126
:104DB000C501B4010F94412D2B013C01E4E6FAE05A
:104DC00085919591A591B49189A79AA7ABA7BCA706
:104DD000E0E6FAE025913591459154912DA73EA743
:104DE0004FA758AB9C01AD016DA57EA58FA598A9D5
:104DF0000F94C72587FD08C009A53AA53DAB4BA573
:104E000049AF5CA559A707C00DA58EA58DAB9FA581
:104E100099AFA8A9A9A7A3019201C301B2010F9458
:104E20002C2620E030E040E85FE30F94652C0F94DF
:104E3000D12E9B01AC01602F7DA989AD99A50F945E
:104E40002C266D8F7E8F8F8F98A3EEEAFAE0049167
:104E500020E030E040EC5FE3C701B6010F942C2660
:104E60006B017C01602F000F770B880B990B0F945F
:104E7000CD259B01AC01C701B6010F942C26698397
:104E80007A838B839C8320E030E040EC5FE3C501B4
:104E9000B4010F942C266B017C01BDAD6B2FBB0FB1
:104EA000770B880B990B0F94CD259B01AC01C701A3
:104EB000B6010F942C26698B7A8B8B8B9C8BAE0161
:104EC000435E5F4FBE016F5F7F4FCE0141960E94F0
:104ED00042420E94168610920F10109210101092EB
:104EE00011101092121010920B1010920C101092C0
:104EF0000D1010920E10111124CF211022CF1CCFB3
:104F000081E00E94074D111104C0E9A9EE2309F4C4
:104F10005EC08091FA0F83708330E9F060E085E134
:104F200093E00E94D075E0E7FBE184918F010F5F71
:104F30001F4F882321F00E940547F801F6CFE1E0DA
:104F4000F3E084918F010F5F1F4F8823F1F10E94DE
:104F50000547F801F6CF0E941F44809113109091ED
:104F60001410A0911510B09116108093D40F909347
:104F7000D50FA093D60FB093D70F80E090E0ADE2AD
:104F8000B3E48093CC0F9093CD0FA093CE0FB0934A
:104F9000CF0F80E090E0AFE2B3E48093D00F909326
:104FA000D10FA093D20FB093D30F19821A821B8214
:104FB0001C82AE014F5F5F4F60ED7FE08CEC9FE0A5
:104FC0000E94424282E00E94074D0E942BC40E9430
:104FD0001F4480916404809365040E942D4183E006
:104FE00080934E020E941B6C0C94DE370E94C4C654
:104FF0000C94DE37C0900B10D0900C10E0900D1088
:10500000F0900E1088E50E946846811109C020E0EA
:1050100030E048EB51E4C701B6010F94642C02C0A4
:105020000E94EE45698B7A8B8B8B9C8BC0900F1006
:10503000D0901010E0901110F090121089E50E94AD
:105040006846811109C020E030E048EC51E4C70116
:10505000B6010F94642C02C00E94EE459B01AC0186
:1050600069837A838B839C8369897A898B899C89FC
:105070000E94264E882311F40C94DE3780E00E94B3
:1050800066440E94464185E40E946846882321F0D8
:105090000E94DF45182F04C085E40E94214611E0DC
:1050A00086E50E946846882321F00E94BE45262F8F
:1050B00001C021E0412FBE016F5F7F4FCE014196BD
:1050C0000E940AA86B017C019B01AC010F94132F75
:1050D00081115FC089889A88AB88BC8820E030E065
:1050E000A901C501B4010F94C72587FD05C027E1BB
:1050F00037EB41E558E304C027E137EB41E558EBD6
:10510000C501B4010F94652CAB01BC0182E393E0AF
:105110000F948C0F89809A80AB80BC8020E030E0B7
:10512000A901C501B4010F94C72587FD05C027E17A
:1051300037EB41E558E304C027E137EB41E558EB95
:10514000C501B4010F94652CAB01BC018DE293E065
:105150000F948C0F20E030E0A901C701B6010F9435
:10516000C72587FD05C027E137EB41E558E304C0BB
:1051700027E137EB41E558EBC701B6010F94652CE9
:10518000AB01BC0188E293E00F948C0F8AE00E948F
:1051900005470E942D41113011F40E942BC40E943A
:1051A0001B6C0C94DE3780911802882311F40C9448
:1051B000DE3789E40E946846182F882321F00E9478
:1051C000BE45E62E01C0E12C8AE40E946846082F05
:1051D000882331F00E94BE45F62E111104C00BC089
:1051E000F12C1123C1F0F4E0FE1510F00C945E3C9C
:1051F000EAE3F3E004C024E02F15D0F30CC084915F
:105200008F010F5F1F4F882311F40C94DE370E942B
:105210000547F801F4CF0E94F1461123F1F02091E7
:105220008E0F30918F0F4E2D4203B001439F700DB2
:1052300011248091F0119091F111680F791F072EC0
:10524000000C880B990B0F94CD256093CC0F7093B5
:10525000CD0F8093CE0F9093CF0F0023F1F02091CC
:10526000900F3091910F5F2D5203B001539F700D3D
:1052700011242091F2113091F311620F731F072E48
:10528000000C880B990B0F94CD256093D00F709371
:10529000D10F8093D20F9093D30F80E50E94684680
:1052A0008823E9F00E94DF458823A9F11123D9F072
:1052B00020E030E048EB51E46091CC0F7091CD0FCD
:1052C0008091CE0F9091CF0F0F94652C6093CC0FEF
:1052D0007093CD0F8093CE0F9093CF0F04C080E5D5
:1052E0000E942146E1CF0023B1F020E030E048ECFD
:1052F00051E46091D00F7091D10F8091D20F9091B5
:10530000D30F0F94652C6093D00F7093D10F8093BF
:10531000D20F9093D30F86E40E9468468823D9F079
:105320000E94EE456B017C0120E030E0A9010F9462
:105330008B2E181684F420E030E040E752E4C701D9
:10534000B6010F94412D60932F0270933002809329
:105350003102909332020E94BC510C94DE372093AC
:105360009E030C94DE3788E40E946846882381F00F
:105370000E94DF45882361F182E00E945E4388E459
:105380000E946846811108C060E070E0CB0106C051
:1053900088E40E942146EECF0E94EE4560931310F0
:1053A0007093141080931510909316100E941F4450
:1053B0008091131090911410A0911510B0911610B7
:1053C0008093D40F9093D50FA093D60FB093D70F9F
:1053D00070E6272E72E0372EEEE8CE2EE3E0DE2ECA
:1053E000E12CF12C00E010E0D1018D911D010E9413
:1053F0006846882309F44EC00E94EE452B013C010B
:10540000133059F0F701E550F04F2081318142818E
:1054100053810F94642C2B013C01F701E55FFF4E93
:105420002081318142815381C301B2010F94642CE8
:105430004B015C012DEB37E346E855EB0F948B2EC7
:1054400087FD0AC02DEB37E346E855E3C501B401FB
:105450000F94C7251816F4F4133051F44092171026
:10546000509218106092191070921A1001E012C038
:10547000A5019401F60160817181828193810F946D
:10548000652CD6016D937D938D939C931397812FFB
:105490000E941E431F5FB4E0CB0ED11CE4E0EE0E71
:1054A000F11C143009F0A0CF002321F087E190E136
:1054B0000F94D30B0E941B6C0C94DE370E94C3AC7C
:1054C0000C94DE378091EE149091EF14873791059C
:1054D00009F4A8C40CF0E6C08C34910509F4CCC2E0
:1054E0000CF05EC08931910509F486C234F584312F
:1054F000910509F46FC27CF48131910509F45AC217
:105500002CF4029708F4DCC10C948D37429709F40F
:105510003DC30C948D378631910509F463C20CF4B8
:105520005DC28731910509F463C2489711F00C946C
:105530008D370E94E8BA0C94DE378E31910509F45C
:1055400075C284F48B31910509F468C20CF462C20F
:105550008C31910509F466C24D9711F40C94DE3735
:105560000C948D378033910509F475C264F48F3142
:10557000910509F46CC2809711F00C948D370E944C
:10558000ADB80C94DE378934910509F468C28B34C8
:10559000910511F00C948D370E94D08F0C94DE375A
:1055A0008B36910509F4E2C20CF046C084359105B2
:1055B00009F4ECC2E4F48135910509F4DFC24CF43E
:1055C0008D34910511F00C948D370E941E900C942F
:1055D000DE378235910509F4D5C28335910511F086
:1055E0000C948D3781E080939D030C94DE378836D0
:1055F000910509F445C29CF48535910509F4CAC2A8
:105600008C35910511F00C948D3730E6C32E32E0C5
:10561000D32E4BE5E42E44E1F42E10E0D6C28936B9
:10562000910509F448C28A36910511F00C948D3722
:105630000E94ADB40C94DE378037910511F40C94C0
:10564000DE37A4F48D36910509F43FC214F40C94AE
:10565000DE378E36910509F417C28F36910511F0A9
:105660000C948D370E9427B40C94DE378337910554
:1056700009F469C354F48137910509F418C28237DB
:10568000910509F422C30C948D378537910509F4EF
:10569000B8C38637910511F00C948D370E94856B45
:1056A0000C94DE378F32F1E09F0711F40C942F3504
:1056B0000CF076C08D3C910509F4F6C474F581397F
:1056C000910509F4C0C384F48937910509F4B5C381
:1056D0000CF4ACC38D37910509F44CC28C3891059C
:1056E00009F40FC20C948D37893C910509F425C447
:1056F00054F48B39910509F4E4C18E3B910509F40A
:105700001EC20C948D378B3C910509F439C48C3C36
:10571000910509F454C40C948D37823E910509F427
:1057200089C7F4F4833D910509F434C67CF48E3CBA
:10573000910511F00C948D3760E6C62E62E0D62EEE
:1057400077E6E72E74E0F72E10E034C58C3D910526
:1057500009F400C78D3D910509F409C70C948D37F4
:105760008C3231E0930711F40C94113464F48831D5
:1057700051E0950709F4A0C78232914011F40C94CE
:1057800006340C948D378D32B1E09B0711F40C94E4
:105790003A348E32914011F40C94DB340C948D37F2
:1057A000853FF1E09F0711F40C94F7360CF04BC0E5
:1057B000823931E0930711F40C944E3514F5833699
:1057C00051E0950711F40C9432354CF4803391403C
:1057D00011F00C948D370E946E6A0C94DE3780397C
:1057E000E1E09E0711F40C944B358139914011F0A2
:1057F0000C948D3781E00E9481420E941B6C0C94B6
:10580000DE37853A21E0920711F40C945F366CF490
:105810008A3941E0940711F40C94DE37843A9140C0
:1058200011F40C9456350C948D378C3AA1E09A07FC
:1058300009F4D3C4843F914011F00C948D370E9439
:1058400068560C94DE378835E2E09E0711F40C941C
:105850000C37B4F4873F21E0920711F40C94FD3625
:1058600014F40C94FA36883F41E0940711F40C9438
:1058700000378C30924011F40C9403370C948D3720
:105880008B38A3E09A0711F40C94DE376CF48B3557
:10589000E2E09E0711F40C940F378335934011F426
:1058A0000C9412370C948D37803A23E0920709F458
:1058B000C1C0873E934011F40C9478370C948D3717
:1058C000A090EC14B090ED1480E50E946846882307
:1058D00059F00E94AE456B017C0111E0672B682BEB
:1058E000692B31F410E004C010E0C12CD12C7601FA
:1058F00083E50E946846882311F40C94E3370E94E4
:10590000EE4520E030E04AE754E40F942C260F9453
:10591000AE2D6B017C0111110BC0672B682B692B1D
:1059200039F4A114B10421F0D5018C91811102C088
:1059300010E001C011E00E94E681112329F061E02E
:10594000C5010E940C7605C060E089E593E00E94E5
:10595000D07583E08093C90F81E08093C80FC11494
:10596000D104E104F104F1F00E9434CDC60ED71E3B
:10597000E81EF91E0E9434CDDC01CB018C199D0973
:10598000AE09BF09B7FD06C00E94CFF91092C80F3B
:105990000C94DE378091C80F8823B1F380E00E9419
:1059A0002A4FE8CF8091C80F882371F380E00E94CE
:1059B0002A4FF8CF60E08DE693E00E94D0755F98A3
:1059C0008A98809108018170809306014798129807
:1059D0000C94DE370E947EC10C94DE370E94C5A66F
:1059E0000C94DE371092E0061092E1060C94DE373C
:1059F0000E9423BB0C94DE371092E0060E940990AF
:105A00008EE793E09093BC0F8093BB0F0E94C0433E
:105A10000C94DE370E94CEBA0C94DE370E9477BA1F
:105A20000C94DE370E946FBA0C94DE370E94BDB929
:105A30000C94DE378091EC149091ED1421E02093CA
:105A4000DF0640E060E00E94A57F0C94DE370E94F4
:105A5000EEB80C94DE370E9446B50C94DE37809188
:105A6000E00681110C94DE3780E50E942146811109
:105A70000C94E8370C94DE370E9409900C94DE37C2
:105A80000E9413B50C94DE378EE40E94684688238A
:105A900011F40C94DE370E94BE456093B3147093EA
:105AA000B4148093B5149093B6140C94DE370E940E
:105AB000FDB30C94DE370E94F7B41092C90F0C941A
:105AC000653C0E94C9B40C94DE378DE690E00E94DC
:105AD000F24981110C94DE378091F50F83FF02C0EB
