:100000000C94841F0C94B51F0C94B51F0C94B51F51
:100010000C94B51F0C94B51F0C94B51F0C94B51F10
:100020000C94B51F0C94B51F0C94B51F0C94B51F00
:100030000C94B51F0C94456E0C94B51F0C94B51F11
:100040000C94B51F0D940C000C94B51F0C94B51FA7
:100050000C94B51F0C94B51F0C9404960C94BD70B1
:100060000C94B51F0C942A480C94B51F0C94B51F22
:100070000C94B51F0C94B51F0C94B51F0C94B51FB0
:100080000D940A0D0C94B51F0C94B51F0C94B51F5C
:100090000C94B51F0C94B51F0C94B51F0C94B51F90
:1000A0000C94B51F0C94B51F0D94DD0C0C94B51F6A
:1000B0000C94B51F0C94B51F0C94B51F0D94B00C87
:1000C0000C94B51F0C94B51F0C94B51F0C94B51F60
:1000D0000C94B51F0C94B51F0C94B51F0C94B51F50
:1000E0000C94B51F5D48634874487F4887489C4816
:1000F0008B489C488F4893489C489948FE6E016FF6
:10010000F06EF46EFA6E386F056F096F0F6F136F34
:10011000176F1D6F216F256F386F2B6F2F6F336F28
:10012000ADA193A196A199A19CA1A8A19FA1B9A1BC
:10013000A2A1A5A14CCE51CE56CE60CE6ACEE3CEC2
:1001400074CE7CCE84CE8ECE98CEA2CEB1CEBBCE97
:10015000E3CEC5CECFCED9CE084AD73B3BCE016E3B
:1001600084BCBFFDC12F3D6C74319ABD56833DDA0E
:100170003D00C77F11BED9E4BB4C3E916BAAAABE1D
:10018000000000803F05A84CCDB2D44EB93836A946
:10019000020C50B9918688083CA6AAAA2ABE000083
:1001A00000803F000D94CD100D9474150D949D1D8D
:1001B0000D94D1100D94B9120D942E110D94E910D7
:1001C0000D94C9100D94A71E0D94F3100D94B51243
:1001D0000D94C5100D94EE100D94B1124E414E4980
:1001E0004E495459494E46CDCCCC3D0AD7233C17F5
:1001F000B7D13877CC2B329595E6241FB14F0A0042
:100200000020410000C84200401C4620BCBE4CCA31
:100210001B0E5AAEC59D7400407A10F35A00A072AE
:100220004E18090010A5D4E80000E8764817000031
:10023000E40B54020000CA9A3B000000E1F50500FF
:100240000080969800000040420F000000A0860148
:10025000000000102700000000E803000000006418
:1002600000000000000A0000000000010000000083
:10027000002C76D888DC674F0823DFC1DFAE59E158
:10028000B1B796E5E3E453C63AE651997696E8E6C7
:10029000C28426EB898C9B62ED407C6FFCEFBC9C9A
:1002A0009F40F2BAA56FA5F490055A2AF75C936BAC
:1002B0006CF9676DC11BFCE0E40D47FEF520E6B567
:1002C00000D0ED902E0300943577050080841E0841
:1002D0000000204E0A000000C80C333333330F985F
:1002E0006E12831141EF8D2114893BE65516CFFE26
:1002F000E6DB18D1844B381BF77C1D901DA4BBE4B2
:1003000024203284725E228100C9F124ECA1E53DF3
:1003100027434F4D4D554E49434154494F4E00449C
:10032000525952554E004552524F525300494E4673
:100330004F004543484F0047322F473320626164E6
:1003400020706172616D65746572730A005665692B
:100350006C6C652E2E2E004F726967696E65205891
:1003600059205072656D6965720A004F726967693C
:100370006E65205859205072656D696572004D3167
:100380003235004D343820526573756C743A20252F
:1003900073005374616E64617264204465766961B0
:1003A00074696F6E3A20002052616E67653A2000D2
:1003B000204D61783A2000204D696E3A20004D654D
:1003C000616E3A200046696E6973686564210A00AF
:1003D0002072616E67653A2000206D61783A2000D6
:1003E000206D696E3A2000207369676D613A2000C4
:1003F000206D65616E3A20003A207A3A2000206F25
:10040000662000506F736974696F6E696E6720743F
:1004100068652070726F62652E2E2E0A003F2028BC
:10042000582C5929206F7574206F6620626F756E85
:1004300064732E0A003F53616D706C652073697A96
:1004400065206E6F7420706C61757369626C6520D5
:1004500028342D3530292E0A004D34382054657348
:10046000742052756E6E696E672E2E2E0A003F281C
:1004700056296572626F7365206C6576656C2069BC
:100480007320696D706C61757369626C65202830CA
:100490002D34292E0A0032032D0326031F031103D6
:1004A0006F66660044454255473A004D313133206E
:1004B00053006F6B0020573A0042656420636F6FF2
:1004C0006C696E672E2E2E004C697420656E206359
:1004D0006861756666652E2E2E00496D7072696DB5
:1004E000616E74652041727265742E002C20002CA0
:1004F0002000544845524D414C5F50524F544543A3
:1005000054494F4E004155544F5245504F52545F3D
:1005100053445F53544154555300454D455247454C
:100520004E43595F50415253455200434153455F3A
:100530004C494748545F4252494748544E455353EB
:1005400000544F47474C455F4C494748545300536C
:100550004F4654574152455F504F57455200425500
:10056000494C445F50455243454E54004C45564516
:100570004C494E475F44415441005A5F50524F42EC
:1005800045004155544F4C4556454C005052494E3C
:10059000545F4A4F420050524F4752455353004117
:1005A00055544F5245504F52545F54454D5000568C
:1005B0004F4C554D455452494300454550524F4DBF
:1005C0000053455249414C5F584F4E5F584F464685
:1005D000004649524D574152455F4E414D453A4DB7
:1005E00061726C696E20544833442055312E52326A
:1005F0002E423320534F555243455F434F44455F8E
:1006000055524C3A2050524F544F434F4C5F564531
:100610005253494F4E3A312E30204D414348494EB6
:10062000455F545950453A496D7072696D616E74F9
:10063000652045585452554445525F434F554E54DA
:100640003A3120555549443A0A002F2F20004D31A8
:10065000343520533C696E6465783E206F75742094
:100660006F662072616E67652028302D31290A007F
:10067000205400205200416363656C6572617469A7
:100680006F6E3A2050005741524E494E4721204C40
:100690006F77205A204A65726B206D6179206C65F6
:1006A000616420746F20756E77616E74656420706C
:1006B00061757365732E0A000000000000000000E1
:1006C00000000000446563616C61676573206170C0
:1006D000706C6971756573004572723A20546F6F62
:1006E000206661722100546F6F206661722066720D
:1006F0006F6D207265666572656E636520706F69E7
:100700006E740A00205A00205900580020204D61C4
:10071000783A2000205A00205900580020204D69C6
:100720006E3A20004D6172636865004172726574B3
:1007300000536F667420656E6473746F70733A2033
:100740000020466C6F773A2000000136372603FF01
:10075000FFFF353C3D380EFFFFFF312E303E12FFCC
:10076000FFFFFF28FF0C0809FFFFFF1A1C18FFFFFF
:100770002A08440AFF4224221E2C206F7574206F21
:10078000662072616E67650A00536572766F20009D
:100790003A200020536572766F200050726F6265B8
:1007A000205A204F66667365743A200020643A0030
:1007B00020693A0020703A00496E76616C696420C5
:1007C00065787472756465720A0043290A00616273
:1007D0006C656420286D696E2074656D702000431F
:1007E0006F6C6420657874727564657320617265DE
:1007F000200020643A0020693A0020703A003A2034
:100800000050726F6265205A204F666673657400EF
:100810003F5A206F7574206F662072616E67652085
:10082000282D3520746F2031290A004163746976C0
:10083000652045787472756465723A2000496E7659
:10084000616C69642065787472756465720A004E23
:100850006F20436865636B73756D207769746820DA
:100860006C696E65206E756D6265722C204C6173CB
:1008700074204C696E653A200053544F5050452EF9
:10088000005072696E7465722073746F7070656465
:100890002064756520746F206572726F72732E20EC
:1008A00046697820746865206572726F7220616E87
:1008B0006420757365204D39393920746F20726555
:1008C00073746172742E202854656D706572617442
:1008D0007572652069732072657365742E20536587
:1008E0007420697420616674657220726573746126
:1008F0007274696E67290A004E6F20436865636BE6
:1009000073756D2077697468206C696E65206E75EB
:100910006D6265722C204C617374204C696E653A6F
:100920002000636865636B73756D206D69736D611D
:100930007463682C204C617374204C696E653A2096
:10094000004C696E65204E756D626572206973207A
:100950006E6F74204C617374204C696E65204E7507
:100960006D6265722B312C204C617374204C696E62
:10097000653A20004D313130004D33310053442071
:1009800072656164206572726F720A00446F6E65F1
:10099000207072696E74696E672066696C650A0002
:1009A00020496E76616C696420657874727564653F
:1009B00072200000000000000000000000000000A5
:1009C000009643000096430000C84342696C696E7C
:1009D000656172204C6576656C696E672047726947
:1009E000643A0A00202844525952554E2900473291
:1009F00039204175746F20426564204C6576656CC2
:100A0000696E67003F20284C2C522C462C4229202E
:100A10006F7574206F6620626F756E64732E0A00A6
:100A20003F2856296572626F7365206C6576656C28
:100A300020697320696D706C61757369626C6520E3
:100A400028302D34292E0A00426164205A20766114
:100A50006C75650A004E6F2062696C696E65617223
:100A600020677269640A00205A3A200020593A200F
:100A70000042656420583A20004D65736820706F0D
:100A8000696E742063616E6E6F742062652072659A
:100A9000736F6C7665640A00436C696320706F75D0
:100AA000722072657072656E647265004D6F746558
:100AB00075727320626C6F717565732E00205A3ADF
:100AC0000020593A0020436F756E7420583A002078
:100AD000453A00205A3A0020593A00583A003A0064
:100AE0004361703A004B64200023646566696E655B
:100AF0002044454641554C545F004B692000236417
:100B00006566696E652044454641554C545F004B0F
:100B100070200023646566696E6520444546415532
:100B20004C545F00504944204175746F74756E6574
:100B30002066696E6973686564212050757420743D
:100B40006865206C617374204B702C204B692061A8
:100B50006E64204B6420636F6E7374616E747320D7
:100B600066726F6D2062656C6F7720696E746F209E
:100B7000436F6E66696775726174696F6E2E680A7D
:100B800000504944204175746F74756E652066612C
:100B9000696C6564212074696D656F75740A004520
:100BA0003120454D42414C4C454D454E5420544812
:100BB00045524D2E0042454420544845524D414C2B
:100BC0002052554E4157415900546865726D616C11
:100BD0002052756E617761790045312045727265EA
:100BE000757220646520636861756666650042659C
:100BF000642068656174696E67206661696C65640C
:100C00000048656174696E67206661696C6564009F
:100C1000504944204175746F74756E652066616932
:100C20006C6564212054656D7065726174757265C0
:100C300020746F6F20686967680A00204B643A204F
:100C400000204B693A2000204B703A20000A2043D4
:100C50006C617373696320504944200A0020547505
:100C60003A2000204B753A2000206D61783A200030
:100C7000206D696E3A200020643A2000206269618C
:100C8000733A2000504944204175746F74756E6545
:100C9000206661696C6564212054656D70657261C0
:100CA0007475726520746F6F20686967680A0050F8
:100CB0004944204175746F74756E65207374617258
:100CC000740A00504944204175746F74756E652034
:100CD0006661696C65642120426164206578747284
:100CE00075646572206E756D6265720A004172727C
:100CF00065740A0046616465204865696768742008
:100D000000426564204C6576656C696E672000461C
:100D100061696C656420746F20656E61626C65202A
:100D2000426564204C6576656C696E670A004D65A6
:100D3000736820706F696E742063616E6E6F7420CB
:100D40006265207265736F6C7665640A004D34329B
:100D50003120696E636F72726563742070617261B5
:100D60006D657465722075736167650A004545504D
:100D7000524F4D204F4B0A00496E736572742066C6
:100D8000696C616D656E7420616E6420707265734C
:100D90007320627574746F6E20286F72204D31302D
:100DA00038290A00507265737320627574746F6E0F
:100DB00020286F72204D3130382920746F206865EB
:100DC0006174206E6F7A7A6C650A00496E73657281
:100DD000742066696C616D656E7420616E6420704C
:100DE0007265737320627574746F6E20286F722041
:100DF0004D313038290A004E6F2063617365206CD5
:100E0000696768740A00454550524F4D206461740B
:100E10006173697A65206572726F722E0A00290A01
:100E2000002062797465733B206372632000536510
:100E30007474696E67732053746F72656420280040
:100E4000290A002062797465733B20637263200075
:100E50002073746F7265642073657474696E677350
:100E600020726574726965766564202800202863A5
:100E7000616C63756C6174656429210A0020213DF1
:100E80002000454550524F4D20435243206D697319
:100E90006D61746368202D202873746F72656429F6
:100EA00020002053697A653A2000496E6465783ADB
:100EB0002000204D61726C696E3D563536290A005E
:100EC00028454550524F4D3D00454550524F4D200D
:100ED00076657273696F6E206D69736D6174636896
:100EE000200048617264636F6465642044656661D4
:100EF000756C742053657474696E6773204C6F61F0
:100F00006465640A00F4010000F4010000F40100CB
:100F100000881300000000FA430000FA430000704C
:100F200041000048420000A0420000A0420000C86A
:100F3000430080CF43024D4F52542E00202D2049B4
:100F40006E76616C69642065787472756465722070
:100F50006E756D62657220210A00000000000000BD
:100F60000000000000000000000000000000000081
:100F70000000000000000000000000000000000071
:100F8000040000400000000000000000000000001D
:100F9000070001C000000000000000000000000089
:100FA00007C007C0000000000000000000000000B3
:100FB00007E00FC00000000000000000000000007B
:100FC00007F01FC00000000000000000000000004B
:100FD00007F01FC00000000000000000000000003B
:100FE00007F01FC00000000000000000000000002B
:100FF00007F01FC00000000000000000000000001B
:1010000003F01FC00000000000000000000000000E
:1010100003F01FC0000000000000000000000000FE
:1010200003F01F800000000000000000000000002E
:1010300003F01F800000000000000000000000001E
:1010400003F01F800000000000000000000000000E
:1010500003F01F80000000000000000000000000FE
:1010600003F01F80000000000000000000180000D6
:1010700003F01F800000300000000000000C0000A2
:1010800001F01F000000600000000000000F0000E1
:1010900001F01F000001C0000000000000078000F8
:1010A00001F01F0000038000000000000003E000CA
:1010B00001F01F00000F8000000000000003F0009E
:1010C00001F01F00001F0000000000000001FC00F4
:1010D00001F01F00007E0000000000000000FE0084
:1010E00001F01F0000FC00000000000000007F80F5
:1010F00001F01F0003F800000000000000007FC0A6
:1011000000F01F0007F800000000000000003FF0A2
:1011100000F01E001FF000000000000000001FFC97
:1011200018F01E303FE000000000000000000FF843
:1011300038701C383FC0000000000000000007F0BD
:10114000FC30187E1F80000000000000000003E15A
:10115000FE1010FF0F80000000000000000001C31F
:10116000FF0001FF87000000000000000000008772
:10117000FF8001FFC2000000000000000000000F1F
:10118000FF8003FFE0000000000000000000001FDF
:10119000E7C007CFF0000000000000000000003FA3
:1011A000C1E00F83F8000000000000000000001FF5
:1011B000C0700E07F0000000000000000000001FDB
:1011C000E010080FE0000000000000000000000F29
:1011D000F000001FE0000000000000000000000719
:1011E000F800001FC0000000000000000000000325
:1011F000FC00003F80000000000000000000000133
:10120000FC00007F00000000000000000000000063
:10121000FE0000FE000000000000000000000000D2
:101220007F0001FC00000000000000000000000042
:101230007F8003F8000000000000000000000000B4
:101240003FC007F0000000000000000000000000A8
:101250001FE007F000000000000000000000000098
:101260000FF00FE000000000000000000000000090
:1012700007F01FC000000000000000000000000098
:1012800003F83F80000000000000000000000000A4
:1012900001FC7F00000000000000000000000000D2
:1012A00000FE7E00000000000000000000000000C2
:1012B000007FFC00000000000000000000000000B3
:1012C000007FF800000000000000000000000000A7
:1012D000003FF800000000000000000000000000D7
:1012E000001FF000000000000000000000000000EF
:1012F000000FE000000000000000000000000000FF
:101300000007C00000000000000000000000000016
:10131000000380000000000000000000000000004A
:1013200000010000000000000000000000000000BC
:1013300000000000000000000000000000000000AD
:10134000000000000000000000000000000000009D
:10135000000000000000000000001FFFFFFFFFFF73
:10136000FF600000000001FF400000000000FF805F
:1013700000000000007F83CF00000C303F87FF801B
:10138000000C301F867980000C000F8C30C7838CD6
:1013900030E78C30CFC7CC31F38C30DCECEC33B998
:1013A0008C30D86C6C33198C30D06C0C33198C3079
:1013B000D86C0C33198C30DC6C0E3B198C30CF7C24
:1013C000079F198C30C77C038F1940000000000074
:1013D00002600000000000061FFFFFFFFFFFF82073
:1013E00020506C616E6E65724275666665724279F8
:1013F0007465733A20002046726565204D656D6FF7
:1014000072793A2000436F6D70696C65643A2044CC
:10141000656320323320323032300A00207C204194
:101420007574686F723A202854483344290A0000C2
:10143000204C61737420557064617465643A2000B7
:10144000544833442055312E52322E42330A004D37
:1014500061726C696E0020536F66747761726520EB
:1014600052657365740A00205761746368646F671E
:101470002052657365740A002042726F776E206F88
:1014800075742052657365740A002045787465721E
:101490006E616C2052657365740A00506F776572D7
:1014A00055700A0073746172740A006175746F2557
:1014B000692E67006572726F722077726974696E47
:1014C0006720746F2066696C650A004275746565F3
:1014D0007320256320256320256320256300205A7F
:1014E0003A0020593A0020583A00656E6473746FD0
:1014F0007073206869743A2000446F6E65207361D0
:1015000076696E672066696C652E0A004D32390077
:1015100000002100240027002A002D0030003300A5
:1015200001010000040107010A010000220025005A
:1015300028002B002E0031003400020100000501BC
:1015400008010B01000020002300260029002C00C8
:101550002F0032000001000003010601090105050A
:101560000505070508080808020202020A0A080819
:101570000404040401010101010101010303030347
:1015800003030303040707070C0C0C0C0C0C0C0CD6
:101590000202020206060606060606060B0B0B0BE7
:1015A0000B0B0B0B0102102020080810204010200C
:1015B0004080020102010804020101020408102017
:1015C0004080804020100804020180040201804015
:1015D000201008040201080402010102040810207E
:1015E0004080010204081020408000000A0B02091C
:1015F0000C0D0E08070304010000000000000000AD
:1016000000000000000000000000000000000000DA
:101610000000000000001211100000000000000097
:1016200000000000000000000000000000000000BA
:1016300057726974696E6720746F2066696C653AC9
:1016400020006F70656E206661696C65642C2046B1
:10165000696C653A20006F70656E206661696C6523
:10166000642C2046696C653A200046696C652073DD
:10167000656C65637465640A002053697A653A2075
:101680000046696C65206F70656E65643A200020C5
:1016900066696C653A2000646F696E670066726502
:1016A0007368004E6F772000454E442053554252D8
:1016B0004F5554494E450A002220706F7300222076
:1016C000706172656E743A2200535542524F555400
:1016D000494E452043414C4C207461726765743A11
:1016E00022004D4F52542E00747279696E67207437
:1016F0006F2063616C6C207375622D67636F646526
:101700002066696C6573207769746820746F6F2038
:101710006D616E79206C6576656C732E204D415835
:10172000206C6576656C2069733A004572726F7241
:101730003A006F70656E206661696C65642C2046A6
:10174000696C653A200043616E6E6F74206F70653E
:101750006E2073756264697220006563686F3A0079
:101760003A0A0020286D6D290020204D36303320A4
:10177000002055004C0046696C616D656E74206CEC
:101780006F61642F756E6C6F6164206C656E677439
:1017900068733A0A0020204D383531205A005A2DFE
:1017A00050726F6265204F66667365740020440056
:1017B00020490020204D33303420500020440020A8
:1017C000490020204D3330312050005049442073CF
:1017D000657474696E67733A0A00204600204200FF
:1017E00020480020204D3134352053004D61746570
:1017F0007269616C206865617475702070617261D6
:101800006D65746572733A0A00205A00204A002000
:10181000204732392057204900205A0020204D34DB
:1018200032302053004175746F20426564204C654E
:1018300076656C696E673A0A00205A0020590020CC
:10184000204D323036205800486F6D65206F666637
:101850007365743A0A00204500205A002059002080
:10186000580020540020530020204D3230352051A4
:101870000020453C6D61785F655F6A65726B3E0074
:1018800020583C6D61785F785F6A65726B3E2059C5
:101890003C6D61785F795F6A65726B3E205A3C6D82
:1018A00061785F7A5F6A65726B3E00416476616E53
:1018B0006365643A20513C6D696E5F7365676D6561
:1018C0006E745F74696D655F75733E20533C6D691E
:1018D0006E5F66656564726174653E20543C6D6937
:1018E0006E5F74726176656C5F6665656472617463
:1018F000653E0020540020520020204D323034201C
:101900005000416363656C65726174696F6E202875
:10191000756E6974732F7332293A20503C70726966
:101920006E745F616363656C3E20523C72657472D5
:101930006163745F616363656C3E20543C747261E3
:1019400076656C5F616363656C3E0A00204500202C
:101950005A0020590020204D3230312058004D616E
:1019600078696D756D20416363656C65726174693A
:101970006F6E2028756E6974732F7332293A0A00CE
:10198000204500205A0020590020204D32303320BD
:1019900058004D6178696D756D206665656472618A
:1019A0007465732028756E6974732F73293A0A0061
:1019B000204500205A0020590020204D393220585F
:1019C0000053746570732070657220756E69743A87
:1019D0000A0020204D3134392043203B20556E69C8
:1019E000747320696E2043656C736975730A0020F7
:1019F00020473231202020203B004563686563206A
:101A00006F726967696E6500545249474745524590
:101A100044006F70656E003A200066696C616D6508
:101A20006E74007A5F6D696E00795F6D696E007823
:101A30005F6D696E005265706F7274696E672065C4
:101A40006E6473746F70207374617475730A002010
:101A500020427573653A20002000507572676572E8
:101A60002066696C616D656E7400417474656E7496
:101A70006500706F75722072657072656E64726554
:101A800000417474656E746520696D70726573735E
:101A9000696F6E0000060900FE0701920321207F96
:101AA000FF07FF07FF00000006000001070706020E
:101AB0000080808080800080030202060105A0A0D3
:101AC0000507070600005050F850F850500507076A
:101AD0000600002078A07028F02005070706000007
:101AE000C0C810204098180507070600006090A0A5
:101AF00040A89068020303060104C0408003070762
:101B00000601002040808080402003070706010076
:101B10008040202020408005050506000120A87097
:101B2000A8200505050600012020F8202002030357
:101B30000602FFC04080050101060003F802020210
:101B4000060200C0C00505050600010810204080FF
:101B500005070706000070888888888870030707D3
:101B600006010040C040404040E005070706000075
:101B7000708808708080F8050707060000F81020BC
:101B8000100808F005070706000010305090F81004
:101B900010050707060000F880F0080888700507A0
:101BA00007060000708080F088887005070706002F
:101BB00000F8081020202020050707060000708884
:101BC0008870888870050707060000708888780884
:101BD0000870020505060200C0C000C0C00206066B
:101BE0000602FFC0C000C0408004070706000010C6
:101BF000204080402010050303060002F800F8048E
:101C000007070601008040201020408005070706D6
:101C100000007088081020002005070706000070EB
:101C2000880868A8A870050707060000708888F86B
:101C3000888888050707060000F08888F08888F003
:101C400005070706000070888080808870050707F8
:101C5000060000F08888888888F0050707060000DD
:101C6000F88080F08080F8050707060000F8808083
:101C7000F0808080050707060000708880B888889B
:101C800070050707060000888888F888888801079B
:101C9000070602008080808080808005070706009C
:101CA000003810101010906005070706000088909B
:101CB000A0C0A09088050707060000808080808073
:101CC00080F805070706000088D8A8888888880556
:101CD00007070600008888C8A898888805070706AF
:101CE000000070888888888870050707060000F063
:101CF0008888F08080800507070600007088888843
:101D0000A89068050707060000F08888F0A0908872
:101D1000050707060000788080700808F0050707AF
:101D2000060000F8202020202020050707060000DC
:101D30008888888888887005070706000088888852
:101D4000888850200507070600008888888888A8AA
:101D5000500507070600008888502050888805072E
:101D60000706000088888850202020050707060005
:101D700000F80810204080F8030707060100E08003
:101D800080808080E0050505060001804020100865
:101D9000030707060100E02020202020E0050303C0
:101DA000060004205088050101060000F802020226
:101DB0000602058040050505060000700878887851
:101DC0000507070600008080B0C88888F005050573
:101DD000060000708080887005070706000008086C
:101DE00068988888780505050600007088F8807076
:101DF0000507070600003048E04040404005060661
:101E00000600FF70888878087005070706000080C4
:101E100080B0C8888888010707060200800080809B
:101E20008080800308080601FF200020202020A0D9
:101E300040040707060000808090A0C0A090030720
:101E400007060100C04040404040E005050506008F
:101E500000D0A8A8A8A8050505060000B0C8888875
:101E60008805050506000070888888700506060646
:101E700000FFF08888F080800506060600FF78885D
:101E800088780808050505060000B0C88080800530
:101E9000050506000070807008F0040707060000C2
:101EA0004040E04040403005050506000088888835
:101EB00098680505050600008888885020050505F6
:101EC0000600008888A8A85005050506000088506F
:101ED0002050880506060600FF8888887808700567
:101EE0000505060000F8102040F80307070601006A
:101EF000204040804040200107070602008080808B
:101F00008080808003070706010080404020404019
:101F100080050202060002689000000006000062D0
:101F200065640A002C2073797374656D2073746F77
:101F30007070656421204865617465725F49443A38
:101F400020004265642068656174696E672066617F
:101F5000696C65640048656174696E6720666169D3
:101F60006C65640045312045727265757220646548
:101F700020636861756666650048656174696E67AF
:101F8000206661696C6564004D4F52542E0010004C
:101F9000C90210012C014001220170011801B00199
:101FA0000E01F00104015002FA00B002F00030030B
:101FB000E600D003DC009004D2007005C800A00643
:101FC000BE000008B400B009AA00D00BA000600E4B
:101FD000960060118C000015820020197800C01D49
:101FE0006E00A0226400B0275A00902C50000031EF
:101FF0004600E0343C0010383200903A2800603C43
:102000001E00A03D1400803E0A00203F0000453124
:1020100020454D42414C4C454D454E542054484579
:10202000524D2E0042454420544845524D414C20CB
:1020300052554E4157415900546865726D616C208C
:1020400052756E61776179004531204572723A2090
:1020500054454D502E204D4158004572723A20543F
:10206000454D502E204D4158204C4954004D41586B
:1020700054454D5020747269676765726564004508
:1020800031204572723A2054454D502E204D494E14
:10209000004572723A2054454D502E204D494E2035
:1020A0004C4954004D494E54454D50207472696757
:1020B0006765726564004D3834205820592045000A
:1020C000202F002042403A0020403A004D32340098
:1020D0004D323320257300556E6B6E6F776E206323
:1020E0006F6D6D616E643A202200496E7365727483
:1020F0002066696C616D656E7420616E642070721B
:1021000065737320627574746F6E20286F72204D32
:10211000313038290A00486F74656E6420746F6F1F
:1021200020636F6C640A00456368656320736F6E9B
:1021300064650A00456368656320736F6E646500BB
:10214000205A3A200020593A200042656420583A2B
:10215000200053442063617264206F6B0A006F702B
:10216000656E526F6F74206661696C65640A0076F3
:102170006F6C756D652E696E6974206661696C653A
:10218000640A00534420696E6974206661696C0AB0
:102190000054656D70204D61783A20313230005422
:1021A000656D70204D696E3A203500544265643A81
:1021B0004154432031303447542D320054656D7002
:1021C000204D61783A203239300054656D70204DD1
:1021D000696E3A20350054303A2050543130302066
:1021E000556C74694D4200416C696D656E74617423
:1021F000696F6E3A2047656E657269630050726F51
:10220000746F636F6C653A20312E300042617564E3
:102210003A203131353230300043522D31305300C5
:102220004E69766561752062696C696E6561697277
:102230006500457874727564657572733A20310073
:102240005448334453747564696F2E636F6D00494D
:102250006D7072696D616E7465000054483344207E
:1022600055312E52322E4233004D61726C696E0030
:10227000546865726D6F636F75706C657300496E3D
:10228000666F7320636172746500496E666F7320B8
:10229000696D7072696D616E7465004D656E752053
:1022A0007072696E636970616C004D363030204227
:1022B0003020542564004D37303120542564004DC2
:1022C000373032203B2564004D37303220542564AE
:1022D000004368616E6765722066696C616D656E4A
:1022E0007400507265636861756666616765204158
:1022F0004253005072656368617566666167652068
:10230000504C41004368616E6765722066696C617C
:102310006D656E7400494D50522E20504155534505
:10232000004445434841524745522046494C0043EA
:102330004841524745522046494C005075726765E6
:102340007220706C75730052657072656E64726590
:1023500020696D70722E004F5054494F4E532052D9
:102360004550524953453A002020427573653A2042
:102370000064652066696C616D656E74006475202B
:102380006368616E67656D656E7400417474656E37
:1023900074652064656D617272616765002020421A
:1023A0007573653A20002000646563686172676533
:1023B000722066696C616D656E7400417474656E3F
:1023C0007465206465002020427573653A20002002
:1023D0000050617469656E74657A205356502E2ED4
:1023E0002E004275736520656E20636861756666B0
:1023F00065002020427573653A200020005072204D
:102400006368617566666572206C612062757365CC
:102410000050726573736572206C6520626F75740D
:102420006F6E2E2E2E002020427573653A200070AC
:102430006F757220636F6E74696E7565722E2E2EC5
:1024400000657420636C696320626F75746F6E0041
:10245000496E73657265722066696C616D656E7434
:10246000002020427573653A200020006368617285
:1024700067656D656E742066696C616D656E74006C
:10248000417474656E74652064650025753A253065
:10249000327500253032753A253032750025756465
:1024A00020253032753A25303275005A00590058CF
:1024B00000092000000000000000000000000000F3
:1024C0003FFFF000000000000000000000000038A6
:1024D000007000000000000000000000000030FC60
:1024E0003000000000000000000000000020FC1090
:1024F0000000000000000000000000002078100034
:10250000000000000000000000000020301000006B
:10251000000000000000000000002C00D03FC000C0
:102520000000000000002082002E31D07FE000007B
:1025300000000000001041002F7BD07FE000000071
:10254000000000001041002F7BD07FE00000000061
:102550000000002082002E31D03FC00000000000AB
:1025600000004104002C00D03FC00000000000002B
:10257000008208002030107FE00000000000000012
:102580008208002078107FE0000000000000004179
:10259000040020FC107FE00000000000000020820A
:1025A0000030FC301F800000000000000000000030
:1025B0003800700F0000000000000000FFFFC03F67
:1025C000FFF0060000000000000000FFFFC0000058
:1025D000000000000000000000000000003FFFF0CD
:1025E0000000000000000000000000003800700043
:1025F00000000000000000000000003186300000F4
:102600000000000000000000000023871000000010
:10261000000000000000000000278790000000007C
:1026200000000000000000002F87D0000000000024
:10263000000000000000002F03D03FC00000000099
:102640000000002082002030107FE0000000000029
:1026500000001041002078107FE000000000000022
:10266000001041002078107FE00000000000000012
:102670002082002030103FC0000000000000004118
:1026800004002F03D03FC0000000000000008208BB
:10269000002F87D07FE000000000000000820800CB
:1026A0002787907FE0000000000000004104002325
:1026B00087107FE0000000000000002082003186CB
:1026C000301F800000000000000000000038007093
:1026D0000F0000000000000000FFFFC03FFFF006F9
:1026E0000000000000000000FFFFC0000000000626
:1026F0000900FE000000000001090008FE000005BE
:10270000080806000040F0C8888898781005080876
:10271000060000C0F88888888888F8050505060046
:10272000012030F830200508080600002070F8204D
:10273000202020E00509090600FF2070A8A8B8881D
:102740008870200509090600FFE080C0B0A8283085
:1027500028280509090600FFF8A88888888888A81D
:10276000F8050A0A0600FE205050505088A8A88894
:102770007003030306000340A0404572726F72208D
:1027800077726974696E6720746F20454550524FA7
:102790004D210A0050726563686175666661676500
:1027A00020504C4120627573650050726563682E3D
:1027B00020504C41206C69740050726563686175EB
:1027C000666661676520504C4100507265706172A9
:1027D0006572005072656368617566666167652041
:1027E00041425320627573650050726563682E2004
:1027F000414253206C69740050726563686175666C
:102800006661676520414253005072657061726570
:1028100072004D343238004D323830205030205361
:10282000313630004175746F7465737420424C54B6
:102830006F756368004D323830205030205331328C
:102840003000507265636861756666616765204136
:102850004253005072656368617566666167652002
:10286000504C4100526566726F6964697200526132
:102870005A20424C546F756368004368616E676507
:10288000722066696C616D656E74004368616E6785
:1028900065722066696C616D656E74004D3630300E
:1028A0002042300041727265746572206D6F7465EC
:1028B000757273004D3834005265676C2E20646564
:1028C00063616C2E206F726967696E65004861757F
:1028D00074657572206C6973736565004861757401
:1028E000657572206C6973736565004172726574F9
:1028F000004D6172636865005265676C2E204E69F9
:10290000762E206C6974005265676C2E204E6976B5
:102910002E206C6974004732380A473239005275EC
:102920006E204D34382054657374004732380A4D98
:10293000343820503130004F726967696E65205A13
:10294000204175746F2E00473238205A004F72694B
:1029500067696E652059204175746F2E00473238C3
:102960002059004F726967696E652058204175745F
:102970006F2E004732382058004F726967696E65C4
:10298000206175746F2E00473238004465706C61A9
:1029900063657220756E20617865004D656E7520E7
:1029A0007072696E636970616C005665206A657249
:1029B0006B005665206A65726B005665206A657209
:1029C0006B00567A206A65726B00567A206A6572CF
:1029D0006B005679206A65726B005679206A6572C1
:1029E0006B005679206A65726B005678206A6572B2
:1029F0006B005678206A65726B005678206A6572A3
:102A00006B004D6F7576656D656E74004520706165
:102A1000732F6D6D0045207061732F6D6D005A200E
:102A20007061732F6D6D005A207061732F6D6D0092
:102A300059207061732F6D6D0059207061732F6D77
:102A40006D0058207061732F6D6D00582070617398
:102A50002F6D6D004D6F7576656D656E74005061FC
:102A6000732F6D6D004A65726B00416363656C6521
:102A7000726174696F6E0056656C6F63697465008E
:102A8000446563616C616765205A00436F6E7472C0
:102A90006F6C65720043686172676572206D6D00CE
:102AA00043686172676572206D6D0043686172678B
:102AB0006572206D6D0044656368617267657220A0
:102AC0006D6D00446563686172676572206D6D00AD
:102AD000446563686172676572206D6D00436F6E57
:102AE00074726F6C65720043616E6E6F7420656EF8
:102AF000746572207375626469723A2000022E2E2A
:102B0000000141637475616C69736572004D656E97
:102B100075207072696E636970616C004D31323579
:102B2000004D323400496D70722E20616E6E756CEE
:102B3000656500496E69742E206C61206361727452
:102B400065205344004D323100506173206465208C
:102B50006361727465004368616E676572206465C5
:102B6000206361727465004D323100496D70722EC0
:102B700020646570756973205344004172726574F6
:102B8000657220696D70722E0052657072656E6498
:102B9000726520696D70722E00412070726F706FC7
:102BA0007320696D70722E00496E746572726F6D5C
:102BB00070726520696D70722E00436F6E74726F53
:102BC0006C65720050726570617265720052656763
:102BD0006C657200496E666F73000E000E000E0089
:102BE0000E000E000E000E000E007FC03F801F0082
:102BF0000E00040004000E001F003F807FC00E0086
:102C00000E000E000E000E000E000E000E0003F867
:102C1000000FFE001E0F003807003803807003808D
:102C2000700FE07007C07003807001007000003802
:102C300000003807001E0F000FFE0003F80000FE22
:102C40000003FF800783C00E01C00E00E01C00E0FF
:102C50007F00E03E00E01C00E00800E00000E00033
:102C600001C00E01C00F078007FF0001FC00FFFF3D
:102C7000FF7F80FFC0FFC0FFC07F807F80FFC0FF5D
:102C8000C0FFC03F001E000C00446563616C6167BB
:102C900065205A004368616E6765722066696C61E1
:102CA0006D656E74004368616E6765722066696C5D
:102CB000616D656E74004D363030204230004465E1
:102CC00063616C616765205A00466C757800466CDC
:102CD000757800566974657373652076656E7469DE
:102CE0006C2E00566974657373652076656E746921
:102CF0006C2E004C6974004C697400427573650059
:102D0000427573650048617574657572206C6973EE
:102D10007365650048617574657572206C697373BD
:102D200065650056697465737365005669746573EB
:102D30007365004D656E75207072696E63697061B0
:102D40006C0020746F6F206C6F6E672065787472F2
:102D50007573696F6E2070726576656E7465640A4E
:102D60000020636F6C6420657874727573696F6E90
:102D70002070726576656E7465640A006275737999
:102D80003A2070617573656420666F7220696E7099
:102D900075740A00627573793A20706175736564A1
:102DA00020666F7220757365720A00627573793AD6
:102DB0002070726F63657373696E670A004D4F52BE
:102DC000542E004B494C4C2063617573656420623E
:102DD00079204B494C4C20627574746F6E2F70696A
:102DE0006E0A004D4F52542E004B494C4C206361EB
:102DF0007573656420627920746F6F206D756368E8
:102E000020696E6163746976652074696D65202D33
:102E10002063757272656E7420636F6D6D616E6490
:102E20003A20004D3630300052615A2E2053565011
:102E300000494D50522E2053544F5050454500509C
:102E400072696E7465722068616C7465642E206BA3
:102E5000696C6C28292063616C6C6564210A0053DD
:102E6000617576657220636F6E666967004C697480
:102E7000004C6974004275736500427573650056B5
:102E80006974657373652076656E74696C2E00567F
:102E90006974657373652076656E74696C2E005471
:102EA000656D706572617475726500562064657039
:102EB0006C2E206D696E0056206465706C2E206D3E
:102EC000696E0056206465706C2E206D696E005628
:102ED0006D696E2000566D696E2000566D696E201A
:102EE00000566D6178204500566D6178204500568A
:102EF0006D6178204500566D6178205A00566D61ED
:102F000078205A00566D6178205A00566D617820FD
:102F10005900566D6178205900566D61782059002E
:102F2000566D6178205800566D6178205800566DB6
:102F300061782058004D6F7576656D656E7400413F
:102F40006D6178204500416D6178204500416D61DB
:102F500078205A00416D6178205A00416D617820D7
:102F60005900416D6178205900416D617820580009
:102F7000416D617820580041204465706C2E0041FD
:102F8000204465706C2E0041207265747261697412
:102F90000041207265747261697400416363656CFD
:102FA00065726174696F6E00416363656C6572611F
:102FB00074696F6E004D6F7576656D656E74004D4A
:102FC0003630303A2054726F702066726F69640038
:102FD000486F74656E6420746F6F20636F6C640A51
:102FE00000456E642066696C65206C6973740A0024
:102FF000426567696E2066696C65206C6973740A46
:1030000000286E6F2066696C6529004375727265D1
:103010006E742066696C653A200046696C652064B0
:10302000656C657465643A0044656C6574696F6EBF
:10303000206661696C65642C2046696C653A2000E5
:103040002569730025696D2025697300256968204D
:1030500025696D202569730025696420256968202C
:1030600025696D202569730025697920256964200B
:103070002569682025696D20256973005072696E85
:10308000742074696D653A200050726F74656374C2
:1030900065642050696E0A0020573A004520436F4E
:1030A0006F6C696E672E2E2E004520456E2063687A
:1030B00061756666652E2E2E0020746F6F206C6F12
:1030C0006E6720657874727573696F6E20707265B3
:1030D00076656E7465640A0020636F6C64206578A1
:1030E00074727573696F6E2070726576656E746543
:1030F000640A00656E7175657565696E67202200EA
:10310000000020420000204200008040000000003B
:103110005761726E696E673A20486F6D696E6720FD
:1031200042756D702044697669736F72203C20315E
:103130000A000202040000A0400000A040000000BD
:103140004000009643000096430000C843FFFFFF85
:1031500000002110422063308440A550C660E77013
:10316000088129914AA16BB18CC1ADD1CEE1EFF1BB
:103170003112100273325222B5529442F772D66263
:10318000399318837BB35AA3BDD39CC3FFF3DEE30B
:103190006224433420040114E664C774A4448554B3
:1031A0006AA54BB528850995EEE5CFF5ACC58DD55B
:1031B0005336722611163006D776F6669556B44603
:1031C0005BB77AA719973887DFF7FEE79DD7BCC7AB
:1031D000C448E5588668A778400861180228233853
:1031E000CCC9EDD98EE9AFF9488969990AA92BB9FB
:1031F000F55AD44AB77A966A711A500A333A122AA3
:10320000FDDBDCCBBFFB9EEB799B588B3BBB1AAB4A
:10321000A66C877CE44CC55C222C033C600C411CF2
:10322000AEED8FFDECCDCDDD2AAD0BBD688D499D9A
:10323000977EB66ED55EF44E133E322E511E700E42
:103240009FFFBEEFDDDFFCCF1BBF3AAF599F788FEA
:103250008891A981CAB1EBA10CD12DC14EF16FE1CA
:103260008010A100C230E320045025404670676002
:10327000B9839893FBA3DAB33DC31CD37FE35EF31A
:10328000B1029012F322D232354214527762567252
:10329000EAB5CBA5A89589856EF54FE52CD50DC56A
:1032A000E234C324A01481046674476424540544A2
:1032B000DBA7FAB79987B8975FE77EF71DC73CD7BA
:1032C000D326F2369106B0165766767615463456F2
:1032D0004CD96DC90EF92FE9C899E9898AB9ABA90A
:1032E0004458654806782768C018E1088238A32842
:1032F0007DCB5CDB3FEB1EFBF98BD89BBBAB9ABB5A
:10330000754A545A376A167AF10AD01AB32A923A91
:103310002EFD0FED6CDD4DCDAABD8BADE89DC98DA9
:10332000267C076C645C454CA23C832CE01CC10CE1
:103330001FEF3EFF5DCF7CDF9BAFBABFD98FF89FF9
:10334000176E367E554E745E932EB23ED10EF01E31
:103350007C3C3E5E2B3D3F2F5B5D3B2C2A225C007C
:10336000457874727564657572004465706C2E20C2
:103370005A004465706C2E2059004465706C2E20F4
:103380005800507265706172657200496E697469A7
:10339000616C6973657220454550524F4D00436F13
:1033A0006E74726F6C657200496E697469616C69E4
:1033B00073657220454550524F4D005361757665D7
:1033C0007220636F6E66696700424C546F75636864
:1033D0000046696C616D656E74004D6F7576656D44
:1033E000656E740054656D70657261747572650008
:1033F0004D656E75207072696E636970616C004D09
:10340000333033205531204525692053256900523A
:1034100065676C2E2070726563682E2041425300F0
:103420005265676C2E2070726563682E20504C4187
:1034300000504944204175746F74756E65005049A1
:1034400044204175746F74756E65005049442D4475
:10345000005049442D44005049442D4900504944EE
:103460002D49005049442D50005049442D500056DC
:103470006974657373652076656E74696C2E005689
:103480006974657373652076656E74696C2E004C83
:103490006974004C69740042757365004275736508
:1034A00000436F6E74726F6C657200000000003034
:1034B0000E0100C00E0A00500F1400D00F1E006055
:1034C000102800E010320070113C00F0114600702E
:1034D00012500000135A008013640000146E009014
:1034E0001478001015820090158C0010169600902C
:1034F00016A0001017AA009017B4001018BE009074
:1035000018C8001019D2009019DC00101AE60080CB
:103510001AF000001BFA00801B0401F01B0E017062
:103520001C1801F01C2201601D2C01E01D36015009
:103530001E4001D01E4A01401F5401B01F5E0130E1
:10354000206801A020720110217C019021860100D9
:103550002290016026F401902A5802802EBC02506D
:10356000322003E03584035039E803803C4C0424C6
:10357000F4D43050C38E20C2A24017828B70111237
:103580007A910D816CD90AA861E108C75866076174
:103590005143061E4B5D05C145A7041A411104099C
:1035A0003D9803713931034036DB0265339102D413
:1035B000305402802E1D02632CEE01752AC501B025
:1035C00028A001102781018F2564012B244B01E0E5
:1035D000223401AC211F018D200D01801FFC0084CD
:1035E0001EED00971DDF00B81CD200E61BC60020B0
:1035F0001BBC00641AB200B219A8000A19A0006A24
:10360000189900D117910040178B00B5168400312E
:10361000167E00B31579003A157300C7146F005871
:10362000146A00EE1366008813630025135E00C75A
:10363000125B006C12570015125400C1115100703A
:10364000114F0021114B00D61049008D1047004644
:1036500010440002104200C00F4000800F3E0042A4
:103660000F3C00060F3B00CB0E3800930E37005C7A
:103670000E3500270E3400F30D3200C10D310090DD
:103680000D3000600D2E00320D2D00050D2C00D9DF
:103690000C2B00AE0C2900850C29005C0C27003592
:1036A0000C27000E0C2600E80B2400C40B2400A0FD
:1036B0000B23007D0B23005A0B2100390B2100182E
:1036C0000B2000F80A1F00D90A1E00BB0A1E009D2D
:1036D0000A1D00800A1D00630A1C00470A1B002CFB
:1036E0000A1B00110A1A00F7091A00DD091900C4A3
:1036F000091900AB091900920917007B091800632A
:103700000917004C09160036091600200916000A90
:10371000091500F5081500E0081400CC081400B8DD
:10372000081400A4081400900813007D0812006B10
:10373000081300580812004608120034081100232C
:103740000811001208110001081100F0071000E034
:10375000071000D0071000C0071000B0070F00A12D
:1037600007100091070E0083070F0074070F006514
:10377000070E0057070E0049070E003B070D002EED
:10378000070E0020070D0013070D0006070D00F9B6
:10379000060C00ED060D00E0060C00D4060C00C877
:1037A000060C00BC060C00B0060C00A4060B009929
:1037B000060C008D060B0082060B0077060B006CD2
:1037C000060B0061060A0057060B004C060A004271
:1037D000060A0038060A002E060A0024060A001A05
:1037E000060A001006090007060A00FD050900F494
:1037F000050900EB050900E2050900D9050900D01B
:10380000050900C7050900BE050900B5050800AD9A
:10381000050800A50509009C050800940508008C12
:10382000050800840508007C050800740508006C84
:10383000050700650508005D050700560508004EF0
:103840000507004705070040050800380507003157
:103850000507002A050700230507001C05060016BA
:103860000507000F0507000805060002050700FB15
:10387000040600F5040700EE040600E8040600E272
:10388000040700DB040600D5040600CF040600C9C7
:10389000040600C3040600BD040600B7040600B118
:1038A000040500AC040600A6040600A00405009B65
:1038B00004060095040500900406008A04050085AE
:1038C000040500800406007A0405007504050070F4
:1038D0000405006B04050066040500610405005C36
:1038E00004050057040500520405004D0405004876
:1038F000040500430405003E0404003A04050035B5
:10390000040500300404002C0405002704040023EF
:103910000405001E0404001A040400160405001126
:103920000404000D0404000904050004040400005C
:10393000040400FC030400F8030400F4030400F092
:10394000030400EC030400E8030400E4030400E0C3
:10395000030400DC030400D8030400D4030400D0F3
:10396000030400CC030400C8030300C503030024C0
:10397000F404D9201BC40C5C0E9804C4095F0265D2
:10398000077101F405F900FB04B30048048700C186
:103990000369005803550003034500BE023A008442
:1039A00002310053022A002902250004022000E40B
:1039B000011C00C8011900AF011700980114008410
:1039C000011300710110006101100051010E00434C
:1039D000010D0036010B002B010B0020010B00151F
:1039E0000109000C01090003010800FB000800F3B5
:1039F000000800EB000700E4000600DE000600D827
:103A0000000600D2000600CC000500C7000500C279
:103A1000000500BD000400B9000400B5000400B1B9
:103A2000000400AD000400A9000400A5000300A2EA
:103A30000003009F0004009B000300980003009512
:103A400000020093000300900003008D0002008B31
:103A50000003008800020086000200840003008149
:103A60000002007F0002007D0002007B000200795E
:103A7000000200770001007600020074000200726C
:103A8000000100710002006F0002006D0001006C77
:103A90000002006A00010069000200670001006680
:103AA0000001006500010064000200620001006185
:103AB000000100600001005F0002005D0001005C89
:103AC0000001005B0001005A00010059000100588C
:103AD000000100570001005600010055000100548C
:103AE000000100530000005300010052000100518A
:103AF000000100500001004F0001004E0000004E88
:103B00000001004D0001004C0001004B0000004B83
:103B10000001004A0001004900010048000000487F
:103B2000000100470001004600000046000100457A
:103B30000000004500010044000100430000004374
:103B4000000100420000004200010041000000416D
:103B5000000100400001003F0000003F0001003E66
:103B60000000003E0001003D0000003D0001003C5F
:103B70000000003C0000003C0001003B0000003B56
:103B80000001003A0000003A00010039000000394D
:103B90000001003800000038000000380001003744
:103BA000000000370001003600000036000000363B
:103BB0000001003500000035000000350001003430
:103BC0000000003400000034000100330000003326
:103BD000000000330001003200000032000000321B
:103BE0000001003100000031000000310001003010
:103BF00000000030000000300001002F0000002F06
:103C00000000002F0000002F0001002E0000002EF9
:103C10000000002E0001002D0000002D0000002DEE
:103C20000000002D0001002C0000002C0000002CE2
:103C30000000002C0001002B0000002B0000002BD6
:103C40000000002B0001002A0000002A0000002ACA
:103C50000000002A000100290000002900000029BE
:103C600000000029000000290001002800000028B1
:103C700000000028000000280000002800010027A4
:103C80000000002700000027000000270000002798
:103C9000000100260000002600000026000000268B
:103CA000000000260001002500000025000000257E
:103CB0000000002500000025000000250001002470
:103CC0000000002400000024000000240000002464
:103CD0000001002300000023000000230000002357
:103CE0000000002300000023000000230001002248
:103CF000000000220000002200000022000000223C
:103D0000000000220001002100000021000000212D
:103D1000000000210000002100000021000000211F
:103D20000001002000000020000000200000002012
:103D30000000002000000020000000200000002003
:103D40000001001F0000001F0000001F0000001FF6
:103D50000000001F0000001F0000001F0001001EE7
:103D60000000001E0000001E0000001E00000004F5
:103D70003700001E290000511B00005810000010E1
:103D8000090000CC04000078020000410100004F4F
:103D9000726967696E6520257325732573205072DB
:103DA000656D69657200205072656D6965720A0003
:103DB0005A00590058004F726967696E6520006C9F
:103DC0006173742053442062797465206166746560
:103DD0007220706175736520004E6F74205344200B
:103DE0007072696E74696E670A005344207072695C
:103DF0006E74696E67206279746520004465706C2A
:103E00002E2058004465706C2E2059004465706C5B
:103E10002E205A0045787472756465757200446589
:103E2000706C2E20302E316D6D004465706C2E202C
:103E3000316D6D004465706C2E2031306D6D004425
:103E400065706C6163657220756E206178650045F0
:103E50007874727564657572004465706C2E205AB2
:103E6000004465706C2E2059004465706C2E2058FB
:103E700000526573656E643A20006F6B00496D7087
:103E800072696D616E74652070726574652E005084
:103E900072696E74696E672E2E2E00496D70722ED7
:103EA00020656E2070617573650052616E67657282
:103EB00020424C546F756368004465706C6F79657F
:103EC0007220424C546F756368004175746F74655D
:103ED000737420424C546F75636800436D643A20DC
:103EE00053572D4D6F64650052615A20424C546FF8
:103EF000756368004D656E75207072696E636970D8
:103F0000616C0000D600E20011241FBECFEFD1E2A9
:103F1000DEBFCDBF00E00CBF13E0A0E0B2E0E6E3FF
:103F2000F1E602E00BBF02C007900D92AC38B1077A
:103F3000D9F729E1ACE8B3E001C01D92A738B20778
:103F4000E1F71FE1C3E8DFE100E006C021970109C6
:103F5000802FFE010F94FF2FC238D10780E00807A1
:103F6000A9F70F944B180D948A300C9400002F92EF
:103F70003F924F925F926F927F928F929F92AF92F9
:103F8000BF92CF92DF92EF92FF920F931F93CF9346
:103F9000DF93CDB7DEB7C257D1090FB6F894DEBFB5
:103FA0000FBECDBF2DB73EB7A8963FAF2EAFA89797
:103FB00021E020937D0E8091E6188D3411F40C944D
:103FC0002A28843511F40C944639873411F00C9466
:103FD00092398091E4189091E5188C31910509F49B
:103FE00048C69CF4843091053CF482309105D4F5A8
:103FF00097FF31C00C9426288430910509F4D2C56E
:104000004B9709F40EC60C9426288A32910511F4B8
:104010000C941A286CF48D31910511F40C94162827
:104020004E9711F00C9426280E94E94D0C94943977
:104030008B35910511F40C941E288C35910511F4E3
:104040000C9422288A35910511F00C9426281092A0
:1040500090030C94943980910A0281110C9499393F
:104060000C94943920910A02222311F40C9494396F
:1040700011E0029709F010E00E94534B82E50E9484
:10408000D743882309F451C10E945D436B017C0131
:104090008091BF0E9091C00EA091C10EB091C20E42
:1040A00089A79AA7ABA7BCA74090C30E5090C40E97
:1040B0006090C50E7090C60E2091800E3091810EDA
:1040C0004091820E5091830E2DA73EA74FA758AB6B
:1040D0008091840E9091850EA091860EB091870EEE
:1040E00089AB9AABABABBCAB20E030E0A901C70118
:1040F000B6010F946126882309F43AC529A53AA58B
:104100004BA55CA56DA57EA58FA598A90F946126EA
:1041100081110BC0A301920169A97AA98BA99CA95D
:104120000F946126882309F423C520E030E0A9011B
:10413000C701B6010F946126881F8827881F1813AE
:104140000BC020E030E040E85FE325962CAF3DAFA8
:104150004EAF5FAF25970AC080E090E0A0E8BFEBCC
:1041600025968CAF9DAFAEAFBFAF259729A53AA5D9
:104170004BA55CA56DA57EA58FA598A90F94FE2CD7
:104180006DAB7EAB8FAB98AFA301920169A97AA901
:104190008BA99CA90F94FE2C69AF7AAF8BAF9CAF13
:1041A0002DA93EA94FA958ADCA01B9010F94C62641
:1041B0004B015C0129AD3AAD4BAD5CADCA01B90113
:1041C0000F94C6269B01AC01C501B4010F94FF2CCE
:1041D0000F946B2F21966CAF7DAF8EAF9FAF219761
:1041E00020E030E040E05FE30F94C6264B015C0125
:1041F0009B01AC01C701B6010F94FE2C61966CAF18
:104200007DAF8EAF9FAF6197A5019401C701B60145
:104210000F94FF2C9B01AC0161966CAD7DAD8EAD12
:104220009FAD61970F94C6266B017C0120E030E0C2
:10423000A9010F94252F87FD07C0C701B6010F9470
:104240006B2F9B01AC0103C020E030E0A901259653
:104250006CAD7DAD8EAD9FAD25970F94C6264B01FD
:104260005C012DA53EA54FA558A969A57AA58BA5EA
:104270009CA50F94FF2C20E030E040E05FE30F941A
:10428000C6266B017C0169AD7AAD8BAD9CAD9058B3
:1042900021962CAD3DAD4EAD5FAD21970F94DB2D3A
:1042A0009B01AC01C501B4010F94C6269B01AC0172
:1042B000C701B6010F94FF2C29A53AA54BA55CA513
:1042C0000F94FE2C6B017C0129A93AA94BA95CA98A
:1042D000C301B2010F94FF2C20E030E040E05FE327
:1042E0000F94C62669A77AA78BA79CA721962CAD09
:1042F0003DAD4EAD5FAD21976DA97EA98FA998AD5B
:104300000F94DB2D9B01AC01C501B4010F94C626AF
:104310009B01AC0169A57AA58BA59CA50F94FF2CE8
:10432000A30192010F94FE2C14C089E40E94D7438C
:10433000882329F00E945D436B017C0103C0C12CDE
:10434000D12C76018AE40E94D7438823D9F00E94B9
:104350005D4369AB7AAB8BAB9CAB20E030E0A9014D
:10436000C701B6010F94612681111AC020E030E028
:10437000A90169A97AA98BA99CA90F946126811129
:104380000FC0F6C320E030E0A901C701B6010F94C9
:104390006126882309F4ECC319AA1AAA1BAA1CAA2D
:1043A000A7019601505829A73AA74BA75CA789A94E
:1043B0009AA9ABA9BCA9B0588DA79EA7AFA7B8ABC7
:1043C000CA01B9010F94C6264B015C012DA53EA57B
:1043D0004FA558A9CA01B9010F94C6269B01AC018B
:1043E000C501B4010F94FF2C0F946B2F69966CAF2D
:1043F0007DAF8EAF9FAF69972091BF0E3091C00EF9
:104400004091C10E5091C20E2DAB3EAB4FAB58AF99
:10441000A70196016DA97EA98FA998AD0F94FF2CD5
:1044200025966CAF7DAF8EAF9FAF25978091C30E61
:104430009091C40EA091C50EB091C60E89AF9AAFEF
:10444000ABAFBCAF29A93AA94BA95CA9BC01CD016E
:104450000F94FF2C61966CAF7DAF8EAF9FAF6197CD
:104460002091800E3091810E4091820E5091830EEA
:1044700021962CAF3DAF4EAF5FAF219725962CAD67
:104480003DAD4EAD5FAD259721966CAD7DAD8EAD4A
:104490009FAD21970F94FE2C6B017C018091840EBF
:1044A0009091850EA091860EB091870E29968CAFC3
:1044B0009DAFAEAFBFAF299761962CAD3DAD4EAD70
:1044C0005FAD6197BC01CD010F94FE2C4B015C01E7
:1044D0002091C70E3091C80E4091C90E5091CA0E5E
:1044E0002D962CAF3DAF4EAF5FAF2D976091880EEC
:1044F0007091890E80918A0E90918B0E0F94FE2CF4
:104500002B013C0180918C0E90918D0EA0918E0E0E
:10451000B0918F0E6D968CAF9DAFAEAFBFAF6D9764
:104520002091CB0E3091CC0E4091CD0E5091CE0EFD
:1045300065962CAF3DAF4EAF5FAF6597A701960173
:1045400069A57AA58BA59CA50F94C626A1966CAFEC
:104550007DAF8EAF9FAFA197A50194016DA57EA5FC
:104560008FA598A90F94C6269B01AC01A1966CADAE
:104570007DAD8EAD9FADA1970F94FF2CA1966CAF32
:104580007DAF8EAF9FAFA197A501940169A57AA5D4
:104590008BA59CA50F94C6264B015C01A701960133
:1045A0006DA57EA58FA598A90F94C6269B01AC0189
:1045B000C501B4010F94FE2CA1962CAD3DAD4EADBE
:1045C0005FADA1970F94722D6B017C0120E030E06C
:1045D000A9010F94612687FF0AC02BED3FE049EC4B
:1045E00050E4C701B6010F94FF2C6B017C0111232D
:1045F00051F02BED3FE049EC50E4C701B6010F94B8
:10460000FE2C6B017C0120E030E0A901C701B6015E
:104610000F946126811124C021962CAD3DAD4EAD85
:104620005FAD21976DA97EA98FA998AD0F946126E2
:10463000811116C029962CAD3DAD4EAD5FAD2997C9
:1046400069AD7AAD8BAD9CAD0F946126811108C028
:104650001BEDC12E1FE0D12E19ECE12E10E4F12E3E
:10466000A701960169966CAD7DAD8EAD9FAD699742
:104670000F94C6264B015C0120E030E0A901C30184
:10468000B2010F9461268823C9F0A5019401C501E8
:10469000B4010F94C6264B015C01A3019201C30132
:1046A000B2010F94C6269B01AC01C501B4010F9461
:1046B000FF2C0F946B2F4B015C010DC020E030E00C
:1046C000A901C501B4010F94252F87FF04C0B7FAD3
:1046D000B094B7F8B0942FE632E143E85AE3C5014D
:1046E000B4010F94612687FF02C00C949439C50170
:1046F000B4010F94742E0F94482E1B01672B19F4EC
:1047000022242394312CB10180E090E00F9465269F
:104710004B015C019B01AC01C701B6010F94DB2D7D
:104720006DAB7EAB8FAB98AFA5019401C301B20115
:104730000F94DB2D69966CAF7DAF8EAF9FAF6997FD
:1047400065962CAD3DAD4EAD5FAD65976D966CAD8C
:104750007DAD8EAD9FAD6D970F94FE2CA50194019C
:104760000F94DB2D6D966CAF7DAF8EAF9FAF6D97C5
:104770002DA93EA94FA958ADCA01B9010F94C6266B
:1047800020E030E040E05FE30F94C6269B01AC01DF
:1047900060E070E080E89FE30F94FE2C29966CAFF8
:1047A0007DAF8EAF9FAF29972D968CAD9DADAEADF1
:1047B000BFAD2D9789879A87AB87BC8765962CAD4F
:1047C0003DAD4EAD5FAD65972D873E874F87588BCA
:1047D0006091210270912202072E000C880B990B28
:1047E0000F94672620911702309118024091190208
:1047F00050911A020F94C6262AE037ED43E25CE39B
:104800000F94C6266DA37EA38FA398A70E94B170B4
:104810009B01AC0128533F4F4F4F5F4F2D962CAF5C
:104820003DAF4EAF5FAF2D9749A45AA46BA47CA4B3
:1048300041E050E05EAF4DAF59E159AF2DAD3EAD17
:104840002215330509F43DC10E94829B0E94B1707C
:10485000DC01CB012D962CAD3DAD4EAD5FAD2D975E
:10486000821B930BA40BB50BB7FD11C00E94B17056
:104870009B01AC0128533F4F4F4F5F4F2D962CAFFC
:104880003DAF4EAF5FAF2D9780E00E94A8CC39AD11
:10489000315039AF332309F441C029962CAD3DADD9
:1048A0004EAD5FAD29976DA57EA58FA598A90F94F4
:1048B000C6266B017C012DA93EA94FA958ADB201B6
:1048C000C3010F94C626A70196010F94FF2C7B010C
:1048D0008C0129962CAD3DAD4EAD5FAD2997B2014F
:1048E000C3010F94C6264B015C012DA93EA94FA917
:1048F00058AD6DA57EA58FA598A90F94C6269B01DE
:10490000AC01C501B4010F94FE2C2B013C01C70181
:10491000D8018DA79EA7AFA7B8AB51C04DAD5EAD76
:10492000BA0180E090E00F9465262DA93EA94FA919
:1049300058AD0F94C6264B015C010F94D82D6B0126
:104940007C01C501B4010F94612F4B015C01A701EB
:10495000960169A57AA58BA59CA50F94C6262B0167
:104960003C01A501940169A97AA98BA99CA90F947E
:10497000C6269B01AC01C301B2010F94FF2C2B0191
:104980003C01A501940169A57AA58BA59CA50F946E
:10499000C6264B015C01A701960169A97AA98BA9DA
:1049A0009CA90F94C6269B01AC01C501B4010F94CC
:1049B000FE2C6DA77EA78FA798AB59E159AF920146
:1049C000A30125966CAD7DAD8EAD9FAD25970F945F
:1049D000FF2C69837A838B839C832DA53EA54FA5ED
:1049E00058A961966CAD7DAD8EAD9FAD61970F946A
:1049F000FF2C6D837E838F83988769962CAD3DADA8
:104A00004EAD5FAD699769857A858B859C850F94DE
:104A1000FF2C69877A878B879C876D962CAD3DAD7F
:104A20004EAD5FAD6D976D857E858F8598890F94AE
:104A3000FF2C6D877E878F87988B80915802882303
:104A400021F0CE0101960E942BF4E090A50E1D8E60
:104A50001E8E1F8E18A289819A81AB81BC81898BA1
:104A60009A8BAB8BBC8B8D819E81AF81B8858D8BF2
:104A70009E8BAF8BB88F89859A85AB85BC85898FD6
:104A80009A8FAB8FBC8FAE01475E5F4FBE016B5EEE
:104A90007F4FCE0141960E945A80CE014D966C0107
:104AA0008E010B5D1F4F9E01235F3F4FAE01475E9E
:104AB0005F4FBE016B5E7F4F0C970E94DCE281115D
:104AC00051C0E090A50E19A21AA21BA21CA28091AF
:104AD000800E9091810EA091820EB091830E898BF1
:104AE0009A8BAB8BBC8B8091840E9091850EA0919C
:104AF000860EB091870E8D8B9E8BAF8BB88F809179
:104B0000880E9091890EA0918A0EB0918B0E898F9C
:104B10009A8FAB8FBC8FAE01475E5F4FBE016B5E5D
:104B20007F4FCE0141960E945A80DE0191966D0121
:104B30008E010B5D1F4F2CE83EE0AE01475E5F4FDC
:104B4000BE016B5E7F4FCE0141960E94DCE280E1A8
:104B5000E0E8FEE0AFEBBEE001900D928A95E1F750
:104B60000C949439EDADFEAD3196FEAFEDAF66CE4F
:104B7000EBE2F7E184918F010F5F1F4F882321F053
:104B80000E947644F801F6CFE7E3F3E084918F01C9
:104B90000F5F1F4F882311F40C9494390E947644C0
:104BA000F801F4CF80E50E94D743882329F00E94C2
:104BB0001D436B017C0103C0C12CD12C760183E520
:104BC0000E94D743882361F00E945D4320E030E0DB
:104BD0004AE754E40F94C6260F94482E6B017C01DB
:104BE0000E94D37F80918113811105C060E08DE424
:104BF00093E00E94BA8E0E94B170C60ED71EE81EC6
:104C0000F91E0E94B170DC01CB018C199D09AE091F
:104C1000BF09B7FD02C00C94943980E00E94A8CC73
:104C2000F0CF0F941E0881110C94943980E090E02D
:104C3000A0E2B1E489839A83AB83BC838D839E8396
:104C4000AF83B88789879A87AB87BC8780E50E9446
:104C5000D743882319F00E942D4301C060E0698B7F
:104C6000BE016F5F7F4FCE0141960E94BD820C94C2
:104C700094398091AE0E8770873071F48FE40E9472
:104C8000D743882319F00E944E4303C08FE40E944B
:104C9000904381110C9494390E94D37F80E00E944C
:104CA000974D84EF91E0A0E0B0E089839A83AB83D5
:104CB000BC83BE016F5F7F4F80EA0E9411550E9446
:104CC00031550E949A4011E010934F0488E50E94EC
:104CD0009043382E89E50E949043082F8AE50E9470
:104CE000904389AB311005C0011105C0282E212643
:104CF00005C0011102C0212C01C029A80E946244F4
:104D000082E50E94D743882399F10E945D436B019D
:104D10007C0120E030E0A9010F946126882341F155
:104D2000211005C0311003C0002309F40EC1C09248
:104D3000880ED092890EE0928A0EF0928B0E20910E
:104D4000C70E3091C80E4091C90E5091CA0EC701CE
:104D5000B6010F94252F18165CF419821A821B8253
:104D60001C82BE016F5F7F4F88E89EE00E94B741C2
:104D700021100DC0311003C00111E2C0E6C00111C5
:104D800006C080E00E94A7F42220B1F3D9C010929F
:104D9000C30E1092C40E1092C50E1092C60E109241
:104DA000BF0E1092C00E1092C10E1092C20E0E9441
:104DB000D642EDE4F1E334913DAFE1E4F1E38590D7
:104DC0009590A590B490E5E4F1E3C590D590E59079
:104DD000F490A7019601C501B4010F94252F181670
:104DE0002CF4A5019401C701B60104C0A7019601E6
:104DF000C501B4010F94DB2D2B013C01E4E0F1E38C
:104E000085919591A591B49189A79AA7ABA7BCA7C5
:104E1000E0E0F1E325913591459154912DA73EA70E
:104E20004FA758AB9C01AD016DA57EA58FA598A994
:104E30000F94612687FD08C019A53AA53DAB4BA587
:104E400049AF5CA559A707C01DA58EA58DAB9FA531
:104E500099AFA8A9A9A7A3019201C301B2010F9418
:104E6000C62620E030E040E85FE30F94FF2C0F946B
:104E70006B2F9B01AC01612F7DA989AD99A50F9482
:104E8000C6266D8F7E8F8F8F98A3EEE4F1E3149189
:104E900020E030E040EC5FE3C701B6010F94C62686
:104EA0006B017C01612F110F770B880B990B0F940D
:104EB00067269B01AC01C701B6010F94C626698322
:104EC0007A838B839C8320E030E040EC5FE3C50174
:104ED000B4010F94C6266B017C01BDAD6B2FBB0FD7
:104EE000770B880B990B0F9467269B01AC01C701C8
:104EF000B6010F94C626698B7A8B8B8B9C8BAE0187
:104F0000435E5F4FBE016F5F7F4FCE0141960E94AF
:104F100096410E9403841092C30E1092C40E109208
:104F2000C50E1092C60E1092BF0E1092C00E1092B7
:104F3000C10E1092C20E211024CF311022CF1CCFEF
:104F400081E00E94A7F4211004C0E9A9EE2309F42E
:104F50005EC08091AE0E83708330E9F060E08BE636
:104F600093E00E94BA8EEAE5F7E184918F010F5F2A
:104F70001F4F882321F00E947644F801F6CFE7E521
:104F8000F3E084918F010F5F1F4F8823F1F10E949E
:104F90007644F801F6CF0E94D6428091C70E9091D8
:104FA000C80EA091C90EB091CA0E8093880E90933E
:104FB000890EA0938A0EB0938B0E80E090E0ADE254
:104FC000B3E48093800E9093810EA093820EB093F1
:104FD000830E80E090E0AFE2B3E48093840E909380
:104FE000850EA093860EB093870E19821A821B82BB
:104FF0001C82AE014F5F5F4F64E87EE080E89EE078
:105000000E94964182E00E94A7F40E940B4B0E94EE
:10501000D64280914E0480934F040E94814083E0E9
:1050200080934B020E94465F0C9494390E94785002
:105030000C9494390E94274A0C949439209390033D
:105040000C9494390E9469490C9494390E94C6A327
:105050000C9494398091E4189091E5188737910564
:1050600011F40C94C9310CF0EAC08C34910509F4A8
:1050700018C60CF061C08931910509F416C24CF5CF
:105080008431910509F4FFC194F48131910509F44B
:10509000F6C144F4029710F00C9443390E94E148A1
:1050A0000C949439429709F495C70C94433986318E
:1050B000910509F4F0C10CF4EAC18731910509F4B6
:1050C000F0C1489711F00C9443390E94E1DF0C9431
:1050D00094398E31910509F408C284F48B3191051D
:1050E00009F4F5C10CF4EFC18C31910509F4F3C159
:1050F0004D9711F40C9494390C94433980339105F5
:1051000009F4FFC164F48F31910509F4F6C1809769
:1051100011F00C9443390E94AEDD0C94943989341B
:10512000910509F4B1C58B34910511F00C94433904
:105130000E94C1970C9494398B36910509F41BC7D2
:105140000CF043C08435910509F444C7E4F481357B
:10515000910509F426C74CF48D34910511F00C9497
:1051600043390E940F980C9494398235910509F4C3
:105170002DC78335910511F00C94433981E080935C
:105180008F030C9494398836910509F48EC59CF4EC
:105190008535910509F453C78C35910511F00C94B0
:1051A000433930E6C32E32E0D32E4FE6E42E43E1FE
:1051B000F42E10E05FC78936910509F461C68A367E
:1051C000910509F4BAC60C9443398037910511F45E
:1051D0000C9494398CF48D36910509F493C614F42B
:1051E0000C9494398E36910509F49AC58F36910541
:1051F00009F4A9C50C9443398337910511F40C9433
:10520000143154F48137910509F40EC682379105A3
:1052100009F4B0C70C9443398537910511F40C9407
:1052200072318637910511F00C9443390091E218E0
:105230001091E31883E0D12C40E00C9489318F3237
:10524000F1E09F0711F40C94AB370CF085C08D3C56
:10525000910511F40C940333BCF58139910511F4D7
:105260000C94D731ACF48937910511F40C94D231F8
:1052700014F40C94CC318D37910509F48EC68C381A
:10528000910511F00C9443390E94DB610C94943920
:10529000893C910511F40C944E3254F48B399105EC
:1052A00009F409C68E3B910509F430C60C944339C4
:1052B0008B3C910511F40C9470328C3C910511F4E7
:1052C0000C948E320C944339823E910511F40C9467
:1052D000AF350CF5833D910511F40C945F347CF4EB
:1052E0008E3C910511F00C94433960E6C62E62E0C5
:1052F000D62E71E5E72E74E0F72E10E079C78C3DCD
:10530000910511F40C943F358D3D910511F40C94E9
:105310004C350C9443398C3231E0930711F40C94E2
:105320008D366CF4883151E0950711F40C94D83522
:105330008232914011F40C9482360C9443398D32B0
:10534000B1E09B0711F40C94B6368E32914011F403
:105350000C9457370C944339853FF1E09F0711F4C3
:105360000C943C380CF04CC0823931E0930711F4B6
:105370000C94313804F5833651E0950711F40C9400
:105380002B383CF48033914011F40C94AE370C94DC
:1053900043398039E1E09E0711F40C942E388139AD
:1053A000914011F00C94433981E00E94D94F0E9442
:1053B000465F0C949439853A21E0920711F40C94DD
:1053C00039387CF48A3941E0940711F40C9494390B
:1053D000843A914011F00C9443390E9411600C946E
:1053E00094398C3AA1E09A0711F40C948233843FEB
:1053F000914011F00C9443390E9471690C949439D6
:105400008835E2E09E0711F40C945138B4F4873FDC
:1054100021E0920711F40C94423814F40C943F38B4
:10542000883F41E0940711F40C9445388C30924049
:1054300011F40C9448380C9443398B38A3E09A0744
:1054400011F40C9494396CF48B35E2E09E0711F45E
:105450000C9454388335934011F40C94DD380C943B
:105460004339803A23E0920709F443C0873E9340D2
:1054700011F00C9443390E9482550C9494390E9487
:10548000D2480C9494390E9430E00C9494390E94D4
:10549000C69D0C9494391092740A1092750A0C945B
:1054A00094390E941CE00C9494391092740A0E9462
:1054B000FA978EE793E09093700E80936F0E0E94A0
:1054C00077420C9494390E94C7DF0C9494390E945F
:1054D00070DF0C94943940E060E08091E218909184
:1054E000E3180E94927D0C9494390E94BEDE0C94C5
:1054F00094390E94A3DD0C9494390E94EFDD0C9442
:1055000094394DB75EB76F965FAF4EAF6F970F94FC
:105510001E088111AEC386E50E94D743882391F00F
:105520000E943D4389A7853080F0EEE6F4E0849147
:105530008F010F5F1F4F882309F49BC30E9476449D
:10554000F801F5CF51E059A703C089A5882361F080
:10555000E9E5F4E084918F010F5F1F4F882321F06C
:105560000E947644F801F6CF60E08DE393E00E945C
:10557000F68E80E50E94D743882321F00E943D43A8
:10558000182F01C01AE08CEF810F8F3268F0E5E32D
:10559000F4E084918F010F5F1F4F882309F469C3E2
:1055A0000E947644F801F5CF85E40E94D743882312
:1055B00049F00E944E43882349F091E066969FAFE0
:1055C000669708C085E40E949043F5CFA2E06696F6
:1055D000AFAF66978090C30E9090C40EA090C50E9A
:1055E000B090C60E20E030E048EB51E46091BF0E71
:1055F0007091C00E8091C10E9091C20E0F94FE2C3E
:105600006B017C0188E50E94D743882321F00E942A
:105610005D436B017C01CD8EDE8EEF8EF8A220E023
:1056200030E048EC51E4C501B4010F94FE2C9B011D
:10563000AC0189E5E0962FAFE097E1963FAFE197A7
:10564000E2964FAFE297E3965FAFE3970E94D743AE
:10565000E0962FADE097E1963FADE197E2964FAD32
:10566000E297E3965FADE397882321F00E945D43C4
:105670009B01AC01298B3A8B4B8B5C8B6D8D7E8DA6
:105680008F8D98A10E94CBF581110DC0EDE1F4E062
:1056900084918F010F5F1F4F882309F4EAC20E9493
:1056A0007644F801F5CFB9A5B33068F0E3E0F4E053
:1056B00084917F012FEFE21AF20A882321F00E94E1
:1056C0007644F701F5CF3091250FA6963FAFA69708
:1056D00080E00E94974D0E949A404DB75EB784E0EB
:1056E000189F4019510911240FB6F8945EBF0FBEE0
:1056F0004DBFADB7BEB711966B96BFAFAEAF6B9750
:1057000029A566964FAD6697BE016F5E7F4FCE01AD
:105710004D960E940B9F9B01AC010F94AD2F811100
:10572000C9C10E94B170611571058105910511F023
:105730000F94DA2162961FAE6297B3EF2296BFAF45
:105740002297EFE42E96EFAF2E97F3EC2696FFAF5D
:10575000269727EC2A962FAF2A9733EF39AB4FE4E1
:105760004DAB53EC59AF87E48DAF812C912C540194
:1057700024013501A12FB0E0AA96BFAFAEAFAA9722
:10578000B9A5B250AB96BFAFAB97212F30E040E048
:1057900050E0AF962CAF3DAF4EAF5FAFAF97629684
:1057A000EFAD6297CE2ED12CAA962EAD3FADAA9723
:1057B000C216D3060CF07CC120E066964FAD66970A
:1057C000BE016F5E7F4FCE014D960E940B9F062F4C
:1057D000372E282E9DA7F601EE0FFF1FEE0FFF1F9D
:1057E0006B964EAD5FAD6B97E40FF51F862F932D33
:1057F000A22DBDA580839183A283B383202F332D57
:10580000422D5B2F602F732D822D9B2F0F94AD2F78
:1058100081116FC1812C912C540110E06B96EEAD7B
:10582000FFAD6B9754E0159FE00DF11D1124208111
:10583000318142815381C501B4010F94FF2C4B018A
:105840005C011F5F62968FAD6297811738F79FEFFB
:10585000C91AD90A0D2C000CEE08FF08C701B601C1
:105860000F946726A5966CAF7DAF8EAF9FAFA597BF
:105870009B01AC01C501B4010F94DB2D2B013C0150
:10588000202F332D422D5DA569A97DA989AD9DAD40
:105890000F94252F18162CF409AB3DAA29AEADA5FF
:1058A000ADAF202F332D422D5DA522966FAD2297EF
:1058B0002E967FAD2E9726968FAD26972A969FAD72
:1058C0002A970F94612687FF0DC022960FAF22976B
:1058D0002E963FAE2E9726962FAE2697BDA52A96DA
:1058E000BFAF2A97812C912C540110E06B96EEAD3E
:1058F000FFAD6B9724E0129FE00DF11D1124A30171
:10590000920160817181828193810F94FE2C9B01B1
:10591000AC010F94C6269B01AC01C501B4010F94E4
:10592000FF2C4B015C011F5F62963FAD6297311700
:10593000E8F6A5962CAD3DAD4EAD5FADA5970F94A5
:10594000DB2D0F946B2F4B015C01AB964FADAB97EA
:105950004E3708F0A5C0C701B6010E949F47EEEF81
:10596000F3E084917F015FEFE51AF50A882321F0C7
:105970000E947644F701F5CFAF966CAD7DAD8EAD4C
:105980009FADAF970E949F47E8EFF3E084917F01BE
:105990009FEFE91AF90A882321F00E947644F70163
:1059A000F5CF43E0602F732D822D9DA50E94B9474E
:1059B000A9A5A23009F471C0E0EFF3E084918F0152
:1059C0000F5F1F4F882321F00E947644F801F6CF25
:1059D00044E0C301B2010E94B947E7EEF3E08491CD
:1059E0008F010F5F1F4F882321F00E947644F8013A
:1059F000F6CF46E0C501B4010E94B947E0EEF3E0FE
:105A000084918F010F5F1F4F882321F00E947644FD
:105A1000F801F6CF43E069A97DA989AD9DAD0E944B
:105A2000B947E9EDF3E084918F010F5F1F4F8823A1
:105A300021F00E947644F801F6CF43E022966FAD44
:105A400022972E967FAD2E9726968FAD26972A9673
:105A50009FAD2A970E94B947E0EDF3E084918F0152
:105A60000F5F1F4F882321F00E947644F801F6CF84
:105A700029A93DA949AD5DAD22966FAD22972E961D
:105A80007FAD2E9726968FAD26972A969FAD2A97A3
:105A90000F94FE2C43E00E94B9478AE00E947644AE
:105AA0006296BFAD6297BF5F6296BFAF629777CED7
:105AB00011E020C010E033EF22963FAF22974FE471
:105AC0002E964FAF2E9753EC26965FAF269787EC16
:105AD0002A968FAF2A9793EF99ABAFE4ADABB3ECB7
